No.     Time           Source                Destination           Protocol Length Info
    135 12.004256      host                  1.5.0                 USB      36     GET DESCRIPTOR Request DEVICE

Frame 135: Packet, 36 bytes on wire (288 bits), 36 bytes captured (288 bits) on interface \\.\USBPcap1, id 0
    Section number: 1
    Interface id: 0 (\\.\USBPcap1)
        Interface name: \\.\USBPcap1
        Interface description: USBPcap1
    Encapsulation type: USB packets with USBPcap header (152)
    Arrival Time: Dec  5, 2025 16:53:03.208427000 Финляндия (зима)
    UTC Arrival Time: Dec  5, 2025 14:53:03.208427000 UTC
    Epoch Arrival Time: 1764946383.208427000
    [Time shift for this packet: 0.000000000 seconds]
    [Time delta from previous captured frame: 354.000 microseconds]
    [Time since reference or first frame: 12.004256000 seconds]
    Frame Number: 135
    Frame Length: 36 bytes (288 bits)
    Capture Length: 36 bytes (288 bits)
    [Frame is marked: False]
    [Frame is ignored: False]
    [Protocols in frame: usb]
    Character encoding: ASCII (0)
USB URB
    [Source: host]
    [Destination: 1.5.0]
    USBPcap pseudoheader length: 28
    IRP ID: 0xffff9906654eba00
    IRP USBD_STATUS: USBD_STATUS_SUCCESS (0x00000000)
    URB Function: URB_FUNCTION_GET_DESCRIPTOR_FROM_DEVICE (0x000b)
    IRP information: 0x00, Direction: FDO -> PDO
        0000 000. = Reserved: 0x00
        .... ...0 = Direction: FDO -> PDO (0x0)
    URB bus id: 1
    Device address: 5
    Endpoint: 0x80, Direction: IN
        1... .... = Direction: IN (1)
        .... 0000 = Endpoint number: 0
    URB transfer type: URB_CONTROL (0x02)
    Packet Data Length: 8
    [Response in: 136]
    Control transfer stage: Setup (0)
Setup Data
    bmRequestType: 0x80
        1... .... = Direction: Device-to-host
        .00. .... = Type: Standard (0x0)
        ...0 0000 = Recipient: Device (0x00)
    bRequest: GET DESCRIPTOR (6)
    Descriptor Index: 0x00
    bDescriptorType: DEVICE (0x01)
    Language Id: no language specified (0x0000)
    wLength: 18

12.004256
0000  1c 00 00 ba 4e 65 06 99 ff ff 00 00 00 00 0b 00   ....Ne..........
0010  00 01 00 05 00 80 02 08 00 00 00 00 80 06 00 01   ................
0020  00 00 12 00                                       ....

No.     Time           Source                Destination           Protocol Length Info
    136 12.006909      1.5.0                 host                  USB      46     GET DESCRIPTOR Response DEVICE

Frame 136: Packet, 46 bytes on wire (368 bits), 46 bytes captured (368 bits) on interface \\.\USBPcap1, id 0
    Section number: 1
    Interface id: 0 (\\.\USBPcap1)
        Interface name: \\.\USBPcap1
        Interface description: USBPcap1
    Encapsulation type: USB packets with USBPcap header (152)
    Arrival Time: Dec  5, 2025 16:53:03.211080000 Финляндия (зима)
    UTC Arrival Time: Dec  5, 2025 14:53:03.211080000 UTC
    Epoch Arrival Time: 1764946383.211080000
    [Time shift for this packet: 0.000000000 seconds]
    [Time delta from previous captured frame: 2.653000 milliseconds]
    [Time delta from previous displayed frame: 2.653000 milliseconds]
    [Time since reference or first frame: 12.006909000 seconds]
    Frame Number: 136
    Frame Length: 46 bytes (368 bits)
    Capture Length: 46 bytes (368 bits)
    [Frame is marked: False]
    [Frame is ignored: False]
    [Protocols in frame: usb]
    Character encoding: ASCII (0)
USB URB
    [Source: 1.5.0]
    [Destination: host]
    USBPcap pseudoheader length: 28
    IRP ID: 0xffff9906654eba00
    IRP USBD_STATUS: USBD_STATUS_SUCCESS (0x00000000)
    URB Function: URB_FUNCTION_CONTROL_TRANSFER (0x0008)
    IRP information: 0x01, Direction: PDO -> FDO
        0000 000. = Reserved: 0x00
        .... ...1 = Direction: PDO -> FDO (0x1)
    URB bus id: 1
    Device address: 5
    Endpoint: 0x80, Direction: IN
        1... .... = Direction: IN (1)
        .... 0000 = Endpoint number: 0
    URB transfer type: URB_CONTROL (0x02)
    Packet Data Length: 18
    [Request in: 135]
    [Time from request: 2.653000 milliseconds]
    Control transfer stage: Complete (3)
DEVICE DESCRIPTOR
    bLength: 18
    bDescriptorType: 0x01 (DEVICE)
    bcdUSB: 0x0200
    bDeviceClass: Device (0x00)
    bDeviceSubClass: 0
    bDeviceProtocol: 0 (Use class code info from Interface Descriptors)
    bMaxPacketSize0: 64
    idVendor: Shenzhen Rapoo Technology Co., Ltd. (0x24ae)
    idProduct: Unknown (0x2013)
    bcdDevice: 0x0110
    iManufacturer: 1
    iProduct: 2
    iSerialNumber: 0
    bNumConfigurations: 1

12.006909
0000  1c 00 00 ba 4e 65 06 99 ff ff 00 00 00 00 08 00   ....Ne..........
0010  01 01 00 05 00 80 02 12 00 00 00 03 12 01 00 02   ................
0020  00 00 00 40 ae 24 13 20 10 01 01 02 00 01         ...@.$. ......

No.     Time           Source                Destination           Protocol Length Info
    137 12.006947      host                  1.5.0                 USB      36     GET DESCRIPTOR Request CONFIGURATION

Frame 137: Packet, 36 bytes on wire (288 bits), 36 bytes captured (288 bits) on interface \\.\USBPcap1, id 0
    Section number: 1
    Interface id: 0 (\\.\USBPcap1)
        Interface name: \\.\USBPcap1
        Interface description: USBPcap1
    Encapsulation type: USB packets with USBPcap header (152)
    Arrival Time: Dec  5, 2025 16:53:03.211118000 Финляндия (зима)
    UTC Arrival Time: Dec  5, 2025 14:53:03.211118000 UTC
    Epoch Arrival Time: 1764946383.211118000
    [Time shift for this packet: 0.000000000 seconds]
    [Time delta from previous captured frame: 38.000 microseconds]
    [Time delta from previous displayed frame: 38.000 microseconds]
    [Time since reference or first frame: 12.006947000 seconds]
    Frame Number: 137
    Frame Length: 36 bytes (288 bits)
    Capture Length: 36 bytes (288 bits)
    [Frame is marked: False]
    [Frame is ignored: False]
    [Protocols in frame: usb]
    Character encoding: ASCII (0)
USB URB
    [Source: host]
    [Destination: 1.5.0]
    USBPcap pseudoheader length: 28
    IRP ID: 0xffff9906a687a660
    IRP USBD_STATUS: USBD_STATUS_SUCCESS (0x00000000)
    URB Function: URB_FUNCTION_GET_DESCRIPTOR_FROM_DEVICE (0x000b)
    IRP information: 0x00, Direction: FDO -> PDO
        0000 000. = Reserved: 0x00
        .... ...0 = Direction: FDO -> PDO (0x0)
    URB bus id: 1
    Device address: 5
    Endpoint: 0x80, Direction: IN
        1... .... = Direction: IN (1)
        .... 0000 = Endpoint number: 0
    URB transfer type: URB_CONTROL (0x02)
    Packet Data Length: 8
    [Response in: 138]
    Control transfer stage: Setup (0)
Setup Data
    bmRequestType: 0x80
        1... .... = Direction: Device-to-host
        .00. .... = Type: Standard (0x0)
        ...0 0000 = Recipient: Device (0x00)
    bRequest: GET DESCRIPTOR (6)
    Descriptor Index: 0x00
    bDescriptorType: CONFIGURATION (0x02)
    Language Id: no language specified (0x0000)
    wLength: 9

12.006947
0000  1c 00 60 a6 87 a6 06 99 ff ff 00 00 00 00 0b 00   ..`.............
0010  00 01 00 05 00 80 02 08 00 00 00 00 80 06 00 02   ................
0020  00 00 09 00                                       ....

No.     Time           Source                Destination           Protocol Length Info
    138 12.009904      1.5.0                 host                  USB      37     GET DESCRIPTOR Response CONFIGURATION

Frame 138: Packet, 37 bytes on wire (296 bits), 37 bytes captured (296 bits) on interface \\.\USBPcap1, id 0
    Section number: 1
    Interface id: 0 (\\.\USBPcap1)
        Interface name: \\.\USBPcap1
        Interface description: USBPcap1
    Encapsulation type: USB packets with USBPcap header (152)
    Arrival Time: Dec  5, 2025 16:53:03.214075000 Финляндия (зима)
    UTC Arrival Time: Dec  5, 2025 14:53:03.214075000 UTC
    Epoch Arrival Time: 1764946383.214075000
    [Time shift for this packet: 0.000000000 seconds]
    [Time delta from previous captured frame: 2.957000 milliseconds]
    [Time delta from previous displayed frame: 2.957000 milliseconds]
    [Time since reference or first frame: 12.009904000 seconds]
    Frame Number: 138
    Frame Length: 37 bytes (296 bits)
    Capture Length: 37 bytes (296 bits)
    [Frame is marked: False]
    [Frame is ignored: False]
    [Protocols in frame: usb]
    Character encoding: ASCII (0)
USB URB
    [Source: 1.5.0]
    [Destination: host]
    USBPcap pseudoheader length: 28
    IRP ID: 0xffff9906a687a660
    IRP USBD_STATUS: USBD_STATUS_SUCCESS (0x00000000)
    URB Function: URB_FUNCTION_CONTROL_TRANSFER (0x0008)
    IRP information: 0x01, Direction: PDO -> FDO
        0000 000. = Reserved: 0x00
        .... ...1 = Direction: PDO -> FDO (0x1)
    URB bus id: 1
    Device address: 5
    Endpoint: 0x80, Direction: IN
        1... .... = Direction: IN (1)
        .... 0000 = Endpoint number: 0
    URB transfer type: URB_CONTROL (0x02)
    Packet Data Length: 9
    [Request in: 137]
    [Time from request: 2.957000 milliseconds]
    Control transfer stage: Complete (3)
CONFIGURATION DESCRIPTOR
    bLength: 9
    bDescriptorType: 0x02 (CONFIGURATION)
    wTotalLength: 84
    bNumInterfaces: 3
    bConfigurationValue: 1
    iConfiguration: 0
    Configuration bmAttributes: 0xa0  NOT SELF-POWERED  REMOTE-WAKEUP
        1... .... = Must be 1: Must be 1 for USB 1.1 and higher
        .0.. .... = Self-Powered: This device is powered from the USB bus
        ..1. .... = Remote Wakeup: This device supports REMOTE WAKEUP
    bMaxPower: 50  (100mA)

12.009904
0000  1c 00 60 a6 87 a6 06 99 ff ff 00 00 00 00 08 00   ..`.............
0010  01 01 00 05 00 80 02 09 00 00 00 03 09 02 54 00   ..............T.
0020  03 01 00 a0 32                                    ....2

No.     Time           Source                Destination           Protocol Length Info
    139 12.009940      host                  1.5.0                 USB      36     GET DESCRIPTOR Request CONFIGURATION

Frame 139: Packet, 36 bytes on wire (288 bits), 36 bytes captured (288 bits) on interface \\.\USBPcap1, id 0
    Section number: 1
    Interface id: 0 (\\.\USBPcap1)
        Interface name: \\.\USBPcap1
        Interface description: USBPcap1
    Encapsulation type: USB packets with USBPcap header (152)
    Arrival Time: Dec  5, 2025 16:53:03.214111000 Финляндия (зима)
    UTC Arrival Time: Dec  5, 2025 14:53:03.214111000 UTC
    Epoch Arrival Time: 1764946383.214111000
    [Time shift for this packet: 0.000000000 seconds]
    [Time delta from previous captured frame: 36.000 microseconds]
    [Time delta from previous displayed frame: 36.000 microseconds]
    [Time since reference or first frame: 12.009940000 seconds]
    Frame Number: 139
    Frame Length: 36 bytes (288 bits)
    Capture Length: 36 bytes (288 bits)
    [Frame is marked: False]
    [Frame is ignored: False]
    [Protocols in frame: usb]
    Character encoding: ASCII (0)
USB URB
    [Source: host]
    [Destination: 1.5.0]
    USBPcap pseudoheader length: 28
    IRP ID: 0xffff99069cb6b770
    IRP USBD_STATUS: USBD_STATUS_SUCCESS (0x00000000)
    URB Function: URB_FUNCTION_GET_DESCRIPTOR_FROM_DEVICE (0x000b)
    IRP information: 0x00, Direction: FDO -> PDO
        0000 000. = Reserved: 0x00
        .... ...0 = Direction: FDO -> PDO (0x0)
    URB bus id: 1
    Device address: 5
    Endpoint: 0x80, Direction: IN
        1... .... = Direction: IN (1)
        .... 0000 = Endpoint number: 0
    URB transfer type: URB_CONTROL (0x02)
    Packet Data Length: 8
    [Response in: 140]
    Control transfer stage: Setup (0)
Setup Data
    bmRequestType: 0x80
        1... .... = Direction: Device-to-host
        .00. .... = Type: Standard (0x0)
        ...0 0000 = Recipient: Device (0x00)
    bRequest: GET DESCRIPTOR (6)
    Descriptor Index: 0x00
    bDescriptorType: CONFIGURATION (0x02)
    Language Id: no language specified (0x0000)
    wLength: 84

12.009940
0000  1c 00 70 b7 b6 9c 06 99 ff ff 00 00 00 00 0b 00   ..p.............
0010  00 01 00 05 00 80 02 08 00 00 00 00 80 06 00 02   ................
0020  00 00 54 00                                       ..T.

No.     Time           Source                Destination           Protocol Length Info
    140 12.012913      1.5.0                 host                  USB      112    GET DESCRIPTOR Response CONFIGURATION

Frame 140: Packet, 112 bytes on wire (896 bits), 112 bytes captured (896 bits) on interface \\.\USBPcap1, id 0
    Section number: 1
    Interface id: 0 (\\.\USBPcap1)
        Interface name: \\.\USBPcap1
        Interface description: USBPcap1
    Encapsulation type: USB packets with USBPcap header (152)
    Arrival Time: Dec  5, 2025 16:53:03.217084000 Финляндия (зима)
    UTC Arrival Time: Dec  5, 2025 14:53:03.217084000 UTC
    Epoch Arrival Time: 1764946383.217084000
    [Time shift for this packet: 0.000000000 seconds]
    [Time delta from previous captured frame: 2.973000 milliseconds]
    [Time delta from previous displayed frame: 2.973000 milliseconds]
    [Time since reference or first frame: 12.012913000 seconds]
    Frame Number: 140
    Frame Length: 112 bytes (896 bits)
    Capture Length: 112 bytes (896 bits)
    [Frame is marked: False]
    [Frame is ignored: False]
    [Protocols in frame: usb:usbhid:usbhid:usbhid]
    Character encoding: ASCII (0)
USB URB
    [Source: 1.5.0]
    [Destination: host]
    USBPcap pseudoheader length: 28
    IRP ID: 0xffff99069cb6b770
    IRP USBD_STATUS: USBD_STATUS_SUCCESS (0x00000000)
    URB Function: URB_FUNCTION_CONTROL_TRANSFER (0x0008)
    IRP information: 0x01, Direction: PDO -> FDO
        0000 000. = Reserved: 0x00
        .... ...1 = Direction: PDO -> FDO (0x1)
    URB bus id: 1
    Device address: 5
    Endpoint: 0x80, Direction: IN
        1... .... = Direction: IN (1)
        .... 0000 = Endpoint number: 0
    URB transfer type: URB_CONTROL (0x02)
    Packet Data Length: 84
    [Request in: 139]
    [Time from request: 2.973000 milliseconds]
    Control transfer stage: Complete (3)
CONFIGURATION DESCRIPTOR
    bLength: 9
    bDescriptorType: 0x02 (CONFIGURATION)
    wTotalLength: 84
    bNumInterfaces: 3
    bConfigurationValue: 1
    iConfiguration: 0
    Configuration bmAttributes: 0xa0  NOT SELF-POWERED  REMOTE-WAKEUP
        1... .... = Must be 1: Must be 1 for USB 1.1 and higher
        .0.. .... = Self-Powered: This device is powered from the USB bus
        ..1. .... = Remote Wakeup: This device supports REMOTE WAKEUP
    bMaxPower: 50  (100mA)
INTERFACE DESCRIPTOR (0.0): class HID
    bLength: 9
    bDescriptorType: 0x04 (INTERFACE)
    bInterfaceNumber: 0
    bAlternateSetting: 0
    bNumEndpoints: 1
    bInterfaceClass: HID (0x03)
    bInterfaceSubClass: Boot Interface (0x01)
    bInterfaceProtocol: Mouse (0x02)
    iInterface: 0
HID DESCRIPTOR
    bLength: 9
    bDescriptorType: 0x21 (HID)
    bcdHID: 0x0110
    bCountryCode: Not Supported (0x00)
    bNumDescriptors: 1
    bDescriptorType: HID Report (0x22)
    wDescriptorLength: 64
ENDPOINT DESCRIPTOR
    bLength: 7
    bDescriptorType: 0x05 (ENDPOINT)
    bEndpointAddress: 0x81  IN  Endpoint:1
        1... .... = Direction: IN Endpoint
        .... 0001 = Endpoint Number: 0x1
    bmAttributes: 0x03
        .... ..11 = Transfertype: Interrupt-Transfer (0x3)
    wMaxPacketSize: 64
        ...0 0... .... .... = Transactions per microframe: 1 (0)
        .... .000 0100 0000 = Maximum Packet Size: 64
    bInterval: 10
INTERFACE DESCRIPTOR (1.0): class HID
    bLength: 9
    bDescriptorType: 0x04 (INTERFACE)
    bInterfaceNumber: 1
    bAlternateSetting: 0
    bNumEndpoints: 1
    bInterfaceClass: HID (0x03)
    bInterfaceSubClass: Boot Interface (0x01)
    bInterfaceProtocol: Keyboard (0x01)
    iInterface: 0
HID DESCRIPTOR
    bLength: 9
    bDescriptorType: 0x21 (HID)
    bcdHID: 0x0110
    bCountryCode: Not Supported (0x00)
    bNumDescriptors: 1
    bDescriptorType: HID Report (0x22)
    wDescriptorLength: 94
ENDPOINT DESCRIPTOR
    bLength: 7
    bDescriptorType: 0x05 (ENDPOINT)
    bEndpointAddress: 0x82  IN  Endpoint:2
        1... .... = Direction: IN Endpoint
        .... 0010 = Endpoint Number: 0x2
    bmAttributes: 0x03
        .... ..11 = Transfertype: Interrupt-Transfer (0x3)
    wMaxPacketSize: 64
        ...0 0... .... .... = Transactions per microframe: 1 (0)
        .... .000 0100 0000 = Maximum Packet Size: 64
    bInterval: 10
INTERFACE DESCRIPTOR (2.0): class HID
    bLength: 9
    bDescriptorType: 0x04 (INTERFACE)
    bInterfaceNumber: 2
    bAlternateSetting: 0
    bNumEndpoints: 1
    bInterfaceClass: HID (0x03)
    bInterfaceSubClass: Boot Interface (0x01)
    bInterfaceProtocol: Keyboard (0x01)
    iInterface: 0
HID DESCRIPTOR
    bLength: 9
    bDescriptorType: 0x21 (HID)
    bcdHID: 0x0110
    bCountryCode: Not Supported (0x00)
    bNumDescriptors: 1
    bDescriptorType: HID Report (0x22)
    wDescriptorLength: 64
ENDPOINT DESCRIPTOR
    bLength: 7
    bDescriptorType: 0x05 (ENDPOINT)
    bEndpointAddress: 0x83  IN  Endpoint:3
        1... .... = Direction: IN Endpoint
        .... 0011 = Endpoint Number: 0x3
    bmAttributes: 0x03
        .... ..11 = Transfertype: Interrupt-Transfer (0x3)
    wMaxPacketSize: 64
        ...0 0... .... .... = Transactions per microframe: 1 (0)
        .... .000 0100 0000 = Maximum Packet Size: 64
    bInterval: 10

12.012913
0000  1c 00 70 b7 b6 9c 06 99 ff ff 00 00 00 00 08 00   ..p.............
0010  01 01 00 05 00 80 02 54 00 00 00 03 09 02 54 00   .......T......T.
0020  03 01 00 a0 32 09 04 00 00 01 03 01 02 00 09 21   ....2..........!
0030  10 01 00 01 22 40 00 07 05 81 03 40 00 0a 09 04   ...."@.....@....
0040  01 00 01 03 01 01 00 09 21 10 01 00 01 22 5e 00   ........!...."^.
0050  07 05 82 03 40 00 0a 09 04 02 00 01 03 01 01 00   ....@...........
0060  09 21 10 01 00 01 22 40 00 07 05 83 03 40 00 0a   .!...."@.....@..

No.     Time           Source                Destination           Protocol Length Info
    141 12.014279      host                  1.5.0                 USB      36     SET CONFIGURATION Request

Frame 141: Packet, 36 bytes on wire (288 bits), 36 bytes captured (288 bits) on interface \\.\USBPcap1, id 0
    Section number: 1
    Interface id: 0 (\\.\USBPcap1)
        Interface name: \\.\USBPcap1
        Interface description: USBPcap1
    Encapsulation type: USB packets with USBPcap header (152)
    Arrival Time: Dec  5, 2025 16:53:03.218450000 Финляндия (зима)
    UTC Arrival Time: Dec  5, 2025 14:53:03.218450000 UTC
    Epoch Arrival Time: 1764946383.218450000
    [Time shift for this packet: 0.000000000 seconds]
    [Time delta from previous captured frame: 1.366000 milliseconds]
    [Time delta from previous displayed frame: 1.366000 milliseconds]
    [Time since reference or first frame: 12.014279000 seconds]
    Frame Number: 141
    Frame Length: 36 bytes (288 bits)
    Capture Length: 36 bytes (288 bits)
    [Frame is marked: False]
    [Frame is ignored: False]
    [Protocols in frame: usb]
    Character encoding: ASCII (0)
USB URB
    [Source: host]
    [Destination: 1.5.0]
    USBPcap pseudoheader length: 28
    IRP ID: 0xffff99068772a010
    IRP USBD_STATUS: USBD_STATUS_SUCCESS (0x00000000)
    URB Function: URB_FUNCTION_SELECT_CONFIGURATION (0x0000)
    IRP information: 0x00, Direction: FDO -> PDO
        0000 000. = Reserved: 0x00
        .... ...0 = Direction: FDO -> PDO (0x0)
    URB bus id: 1
    Device address: 5
    Endpoint: 0x00, Direction: OUT
        0... .... = Direction: OUT (0)
        .... 0000 = Endpoint number: 0
    URB transfer type: URB_CONTROL (0x02)
    Packet Data Length: 8
    [Response in: 142]
    Control transfer stage: Setup (0)
Setup Data
    bmRequestType: 0x00
        0... .... = Direction: Host-to-device
        .00. .... = Type: Standard (0x0)
        ...0 0000 = Recipient: Device (0x00)
    bRequest: SET CONFIGURATION (9)
    bConfigurationValue: 1
    wIndex: 0 (0x0000)
    wLength: 0

12.014279
0000  1c 00 10 a0 72 87 06 99 ff ff 00 00 00 00 00 00   ....r...........
0010  00 01 00 05 00 00 02 08 00 00 00 00 00 09 01 00   ................
0020  00 00 00 00                                       ....

No.     Time           Source                Destination           Protocol Length Info
    142 12.026914      1.5.0                 host                  USB      28     SET CONFIGURATION Response

Frame 142: Packet, 28 bytes on wire (224 bits), 28 bytes captured (224 bits) on interface \\.\USBPcap1, id 0
    Section number: 1
    Interface id: 0 (\\.\USBPcap1)
        Interface name: \\.\USBPcap1
        Interface description: USBPcap1
    Encapsulation type: USB packets with USBPcap header (152)
    Arrival Time: Dec  5, 2025 16:53:03.231085000 Финляндия (зима)
    UTC Arrival Time: Dec  5, 2025 14:53:03.231085000 UTC
    Epoch Arrival Time: 1764946383.231085000
    [Time shift for this packet: 0.000000000 seconds]
    [Time delta from previous captured frame: 12.635000 milliseconds]
    [Time delta from previous displayed frame: 12.635000 milliseconds]
    [Time since reference or first frame: 12.026914000 seconds]
    Frame Number: 142
    Frame Length: 28 bytes (224 bits)
    Capture Length: 28 bytes (224 bits)
    [Frame is marked: False]
    [Frame is ignored: False]
    [Protocols in frame: usb]
    Character encoding: ASCII (0)
USB URB
    [Source: 1.5.0]
    [Destination: host]
    USBPcap pseudoheader length: 28
    IRP ID: 0xffff99068772a010
    IRP USBD_STATUS: USBD_STATUS_SUCCESS (0x00000000)
    URB Function: URB_FUNCTION_SELECT_CONFIGURATION (0x0000)
    IRP information: 0x01, Direction: PDO -> FDO
        0000 000. = Reserved: 0x00
        .... ...1 = Direction: PDO -> FDO (0x1)
    URB bus id: 1
    Device address: 5
    Endpoint: 0x00, Direction: OUT
        0... .... = Direction: OUT (0)
        .... 0000 = Endpoint number: 0
    URB transfer type: URB_CONTROL (0x02)
    Packet Data Length: 0
    [Request in: 141]
    [Time from request: 12.635000 milliseconds]
    Control transfer stage: Complete (3)

12.026914
0000  1c 00 10 a0 72 87 06 99 ff ff 00 00 00 00 00 00   ....r...........
0010  01 01 00 05 00 00 02 00 00 00 00 03               ............

No.     Time           Source                Destination           Protocol Length Info
    143 12.027013      host                  1.5.0                 USB      27     Unknown type 7f

Frame 143: Packet, 27 bytes on wire (216 bits), 27 bytes captured (216 bits) on interface \\.\USBPcap1, id 0
    Section number: 1
    Interface id: 0 (\\.\USBPcap1)
        Interface name: \\.\USBPcap1
        Interface description: USBPcap1
    Encapsulation type: USB packets with USBPcap header (152)
    Arrival Time: Dec  5, 2025 16:53:03.231184000 Финляндия (зима)
    UTC Arrival Time: Dec  5, 2025 14:53:03.231184000 UTC
    Epoch Arrival Time: 1764946383.231184000
    [Time shift for this packet: 0.000000000 seconds]
    [Time delta from previous captured frame: 99.000 microseconds]
    [Time delta from previous displayed frame: 99.000 microseconds]
    [Time since reference or first frame: 12.027013000 seconds]
    Frame Number: 143
    Frame Length: 27 bytes (216 bits)
    Capture Length: 27 bytes (216 bits)
    [Frame is marked: False]
    [Frame is ignored: False]
    [Protocols in frame: usb]
    Character encoding: ASCII (0)
USB URB
    [Source: host]
    [Destination: 1.5.0]
    USBPcap pseudoheader length: 27
    IRP ID: 0xffff99069cb6b770
    IRP USBD_STATUS: USBD_STATUS_SUCCESS (0x00000000)
    URB Function: URB_FUNCTION_GET_MS_FEATURE_DESCRIPTOR (0x002a)
    IRP information: 0x00, Direction: FDO -> PDO
        0000 000. = Reserved: 0x00
        .... ...0 = Direction: FDO -> PDO (0x0)
    URB bus id: 1
    Device address: 5
    Endpoint: 0x00, Direction: OUT
        0... .... = Direction: OUT (0)
        .... 0000 = Endpoint number: 0
    URB transfer type: Unknown (0xff)
        [Expert Info (Error/Malformed): USBPcap did not recognize URB Function code (report to desowin.org/USBPcap)]
            [USBPcap did not recognize URB Function code (report to desowin.org/USBPcap)]
            [Severity level: Error]
            [Group: Malformed]
    Packet Data Length: 0
    [Response in: 144]

12.027013
0000  1b 00 70 b7 b6 9c 06 99 ff ff 00 00 00 00 2a 00   ..p...........*.
0010  00 01 00 05 00 00 ff 00 00 00 00                  ...........

No.     Time           Source                Destination           Protocol Length Info
    144 12.027019      1.5.0                 host                  USB      27     Unknown type 7f

Frame 144: Packet, 27 bytes on wire (216 bits), 27 bytes captured (216 bits) on interface \\.\USBPcap1, id 0
    Section number: 1
    Interface id: 0 (\\.\USBPcap1)
        Interface name: \\.\USBPcap1
        Interface description: USBPcap1
    Encapsulation type: USB packets with USBPcap header (152)
    Arrival Time: Dec  5, 2025 16:53:03.231190000 Финляндия (зима)
    UTC Arrival Time: Dec  5, 2025 14:53:03.231190000 UTC
    Epoch Arrival Time: 1764946383.231190000
    [Time shift for this packet: 0.000000000 seconds]
    [Time delta from previous captured frame: 6.000 microseconds]
    [Time delta from previous displayed frame: 6.000 microseconds]
    [Time since reference or first frame: 12.027019000 seconds]
    Frame Number: 144
    Frame Length: 27 bytes (216 bits)
    Capture Length: 27 bytes (216 bits)
    [Frame is marked: False]
    [Frame is ignored: False]
    [Protocols in frame: usb]
    Character encoding: ASCII (0)
USB URB
    [Source: 1.5.0]
    [Destination: host]
    USBPcap pseudoheader length: 27
    IRP ID: 0xffff99069cb6b770
    IRP USBD_STATUS: USBD_STATUS_SUCCESS (0x00000000)
    URB Function: URB_FUNCTION_GET_MS_FEATURE_DESCRIPTOR (0x002a)
    IRP information: 0x01, Direction: PDO -> FDO
        0000 000. = Reserved: 0x00
        .... ...1 = Direction: PDO -> FDO (0x1)
    URB bus id: 1
    Device address: 5
    Endpoint: 0x00, Direction: OUT
        0... .... = Direction: OUT (0)
        .... 0000 = Endpoint number: 0
    URB transfer type: Unknown (0xff)
        [Expert Info (Error/Malformed): USBPcap did not recognize URB Function code (report to desowin.org/USBPcap)]
            [USBPcap did not recognize URB Function code (report to desowin.org/USBPcap)]
            [Severity level: Error]
            [Group: Malformed]
    Packet Data Length: 0
    [Request in: 143]
    [Time from request: 6.000 microseconds]

12.027019
0000  1b 00 70 b7 b6 9c 06 99 ff ff 00 00 00 00 2a 00   ..p...........*.
0010  01 01 00 05 00 00 ff 00 00 00 00                  ...........

No.     Time           Source                Destination           Protocol Length Info
    145 12.027026      host                  1.5.0                 USB      27     Unknown type 7f

Frame 145: Packet, 27 bytes on wire (216 bits), 27 bytes captured (216 bits) on interface \\.\USBPcap1, id 0
    Section number: 1
    Interface id: 0 (\\.\USBPcap1)
        Interface name: \\.\USBPcap1
        Interface description: USBPcap1
    Encapsulation type: USB packets with USBPcap header (152)
    Arrival Time: Dec  5, 2025 16:53:03.231197000 Финляндия (зима)
    UTC Arrival Time: Dec  5, 2025 14:53:03.231197000 UTC
    Epoch Arrival Time: 1764946383.231197000
    [Time shift for this packet: 0.000000000 seconds]
    [Time delta from previous captured frame: 7.000 microseconds]
    [Time delta from previous displayed frame: 7.000 microseconds]
    [Time since reference or first frame: 12.027026000 seconds]
    Frame Number: 145
    Frame Length: 27 bytes (216 bits)
    Capture Length: 27 bytes (216 bits)
    [Frame is marked: False]
    [Frame is ignored: False]
    [Protocols in frame: usb]
    Character encoding: ASCII (0)
USB URB
    [Source: host]
    [Destination: 1.5.0]
    USBPcap pseudoheader length: 27
    IRP ID: 0xffff99069cb6b770
    IRP USBD_STATUS: USBD_STATUS_SUCCESS (0x00000000)
    URB Function: URB_FUNCTION_GET_MS_FEATURE_DESCRIPTOR (0x002a)
    IRP information: 0x00, Direction: FDO -> PDO
        0000 000. = Reserved: 0x00
        .... ...0 = Direction: FDO -> PDO (0x0)
    URB bus id: 1
    Device address: 5
    Endpoint: 0x00, Direction: OUT
        0... .... = Direction: OUT (0)
        .... 0000 = Endpoint number: 0
    URB transfer type: Unknown (0xff)
        [Expert Info (Error/Malformed): USBPcap did not recognize URB Function code (report to desowin.org/USBPcap)]
            [USBPcap did not recognize URB Function code (report to desowin.org/USBPcap)]
            [Severity level: Error]
            [Group: Malformed]
    Packet Data Length: 0
    [Response in: 146]

12.027026
0000  1b 00 70 b7 b6 9c 06 99 ff ff 00 00 00 00 2a 00   ..p...........*.
0010  00 01 00 05 00 00 ff 00 00 00 00                  ...........

No.     Time           Source                Destination           Protocol Length Info
    146 12.027028      1.5.0                 host                  USB      27     Unknown type 7f

Frame 146: Packet, 27 bytes on wire (216 bits), 27 bytes captured (216 bits) on interface \\.\USBPcap1, id 0
    Section number: 1
    Interface id: 0 (\\.\USBPcap1)
        Interface name: \\.\USBPcap1
        Interface description: USBPcap1
    Encapsulation type: USB packets with USBPcap header (152)
    Arrival Time: Dec  5, 2025 16:53:03.231199000 Финляндия (зима)
    UTC Arrival Time: Dec  5, 2025 14:53:03.231199000 UTC
    Epoch Arrival Time: 1764946383.231199000
    [Time shift for this packet: 0.000000000 seconds]
    [Time delta from previous captured frame: 2.000 microseconds]
    [Time delta from previous displayed frame: 2.000 microseconds]
    [Time since reference or first frame: 12.027028000 seconds]
    Frame Number: 146
    Frame Length: 27 bytes (216 bits)
    Capture Length: 27 bytes (216 bits)
    [Frame is marked: False]
    [Frame is ignored: False]
    [Protocols in frame: usb]
    Character encoding: ASCII (0)
USB URB
    [Source: 1.5.0]
    [Destination: host]
    USBPcap pseudoheader length: 27
    IRP ID: 0xffff99069cb6b770
    IRP USBD_STATUS: USBD_STATUS_SUCCESS (0x00000000)
    URB Function: URB_FUNCTION_GET_MS_FEATURE_DESCRIPTOR (0x002a)
    IRP information: 0x01, Direction: PDO -> FDO
        0000 000. = Reserved: 0x00
        .... ...1 = Direction: PDO -> FDO (0x1)
    URB bus id: 1
    Device address: 5
    Endpoint: 0x00, Direction: OUT
        0... .... = Direction: OUT (0)
        .... 0000 = Endpoint number: 0
    URB transfer type: Unknown (0xff)
        [Expert Info (Error/Malformed): USBPcap did not recognize URB Function code (report to desowin.org/USBPcap)]
            [USBPcap did not recognize URB Function code (report to desowin.org/USBPcap)]
            [Severity level: Error]
            [Group: Malformed]
    Packet Data Length: 0
    [Request in: 145]
    [Time from request: 2.000 microseconds]

12.027028
0000  1b 00 70 b7 b6 9c 06 99 ff ff 00 00 00 00 2a 00   ..p...........*.
0010  01 01 00 05 00 00 ff 00 00 00 00                  ...........

No.     Time           Source                Destination           Protocol Length Info
    147 12.028240      host                  1.5.0                 USB      36     GET DESCRIPTOR Request STRING

Frame 147: Packet, 36 bytes on wire (288 bits), 36 bytes captured (288 bits) on interface \\.\USBPcap1, id 0
    Section number: 1
    Interface id: 0 (\\.\USBPcap1)
        Interface name: \\.\USBPcap1
        Interface description: USBPcap1
    Encapsulation type: USB packets with USBPcap header (152)
    Arrival Time: Dec  5, 2025 16:53:03.232411000 Финляндия (зима)
    UTC Arrival Time: Dec  5, 2025 14:53:03.232411000 UTC
    Epoch Arrival Time: 1764946383.232411000
    [Time shift for this packet: 0.000000000 seconds]
    [Time delta from previous captured frame: 1.212000 milliseconds]
    [Time delta from previous displayed frame: 1.212000 milliseconds]
    [Time since reference or first frame: 12.028240000 seconds]
    Frame Number: 147
    Frame Length: 36 bytes (288 bits)
    Capture Length: 36 bytes (288 bits)
    [Frame is marked: False]
    [Frame is ignored: False]
    [Protocols in frame: usb]
    Character encoding: ASCII (0)
USB URB
    [Source: host]
    [Destination: 1.5.0]
    USBPcap pseudoheader length: 28
    IRP ID: 0xffff990694dcc630
    IRP USBD_STATUS: USBD_STATUS_SUCCESS (0x00000000)
    URB Function: URB_FUNCTION_GET_DESCRIPTOR_FROM_DEVICE (0x000b)
    IRP information: 0x00, Direction: FDO -> PDO
        0000 000. = Reserved: 0x00
        .... ...0 = Direction: FDO -> PDO (0x0)
    URB bus id: 1
    Device address: 5
    Endpoint: 0x80, Direction: IN
        1... .... = Direction: IN (1)
        .... 0000 = Endpoint number: 0
    URB transfer type: URB_CONTROL (0x02)
    Packet Data Length: 8
    [Response in: 148]
    Control transfer stage: Setup (0)
Setup Data
    bmRequestType: 0x80
        1... .... = Direction: Device-to-host
        .00. .... = Type: Standard (0x0)
        ...0 0000 = Recipient: Device (0x00)
    bRequest: GET DESCRIPTOR (6)
    Descriptor Index: 0x02
    bDescriptorType: STRING (0x03)
    Language Id: English (United States) (0x0409)
    wLength: 4

12.028240
0000  1c 00 30 c6 dc 94 06 99 ff ff 00 00 00 00 0b 00   ..0.............
0010  00 01 00 05 00 80 02 08 00 00 00 00 80 06 02 03   ................
0020  09 04 04 00                                       ....

No.     Time           Source                Destination           Protocol Length Info
    148 12.029920      1.5.0                 host                  USB      32     GET DESCRIPTOR Response STRING

Frame 148: Packet, 32 bytes on wire (256 bits), 32 bytes captured (256 bits) on interface \\.\USBPcap1, id 0
    Section number: 1
    Interface id: 0 (\\.\USBPcap1)
        Interface name: \\.\USBPcap1
        Interface description: USBPcap1
    Encapsulation type: USB packets with USBPcap header (152)
    Arrival Time: Dec  5, 2025 16:53:03.234091000 Финляндия (зима)
    UTC Arrival Time: Dec  5, 2025 14:53:03.234091000 UTC
    Epoch Arrival Time: 1764946383.234091000
    [Time shift for this packet: 0.000000000 seconds]
    [Time delta from previous captured frame: 1.680000 milliseconds]
    [Time delta from previous displayed frame: 1.680000 milliseconds]
    [Time since reference or first frame: 12.029920000 seconds]
    Frame Number: 148
    Frame Length: 32 bytes (256 bits)
    Capture Length: 32 bytes (256 bits)
    [Frame is marked: False]
    [Frame is ignored: False]
    [Protocols in frame: usb]
    Character encoding: ASCII (0)
USB URB
    [Source: 1.5.0]
    [Destination: host]
    USBPcap pseudoheader length: 28
    IRP ID: 0xffff990694dcc630
    IRP USBD_STATUS: USBD_STATUS_SUCCESS (0x00000000)
    URB Function: URB_FUNCTION_CONTROL_TRANSFER (0x0008)
    IRP information: 0x01, Direction: PDO -> FDO
        0000 000. = Reserved: 0x00
        .... ...1 = Direction: PDO -> FDO (0x1)
    URB bus id: 1
    Device address: 5
    Endpoint: 0x80, Direction: IN
        1... .... = Direction: IN (1)
        .... 0000 = Endpoint number: 0
    URB transfer type: URB_CONTROL (0x02)
    Packet Data Length: 4
    [Request in: 147]
    [Time from request: 1.680000 milliseconds]
    Control transfer stage: Complete (3)
STRING DESCRIPTOR
    bLength: 54
    bDescriptorType: 0x03 (STRING)
    bString: R

12.029920
0000  1c 00 30 c6 dc 94 06 99 ff ff 00 00 00 00 08 00   ..0.............
0010  01 01 00 05 00 80 02 04 00 00 00 03 36 03 52 00   ............6.R.

No.     Time           Source                Destination           Protocol Length Info
    149 12.029972      host                  1.5.0                 USB      36     GET DESCRIPTOR Request STRING

Frame 149: Packet, 36 bytes on wire (288 bits), 36 bytes captured (288 bits) on interface \\.\USBPcap1, id 0
    Section number: 1
    Interface id: 0 (\\.\USBPcap1)
        Interface name: \\.\USBPcap1
        Interface description: USBPcap1
    Encapsulation type: USB packets with USBPcap header (152)
    Arrival Time: Dec  5, 2025 16:53:03.234143000 Финляндия (зима)
    UTC Arrival Time: Dec  5, 2025 14:53:03.234143000 UTC
    Epoch Arrival Time: 1764946383.234143000
    [Time shift for this packet: 0.000000000 seconds]
    [Time delta from previous captured frame: 52.000 microseconds]
    [Time delta from previous displayed frame: 52.000 microseconds]
    [Time since reference or first frame: 12.029972000 seconds]
    Frame Number: 149
    Frame Length: 36 bytes (288 bits)
    Capture Length: 36 bytes (288 bits)
    [Frame is marked: False]
    [Frame is ignored: False]
    [Protocols in frame: usb]
    Character encoding: ASCII (0)
USB URB
    [Source: host]
    [Destination: 1.5.0]
    USBPcap pseudoheader length: 28
    IRP ID: 0xffff9906654eba00
    IRP USBD_STATUS: USBD_STATUS_SUCCESS (0x00000000)
    URB Function: URB_FUNCTION_GET_DESCRIPTOR_FROM_DEVICE (0x000b)
    IRP information: 0x00, Direction: FDO -> PDO
        0000 000. = Reserved: 0x00
        .... ...0 = Direction: FDO -> PDO (0x0)
    URB bus id: 1
    Device address: 5
    Endpoint: 0x80, Direction: IN
        1... .... = Direction: IN (1)
        .... 0000 = Endpoint number: 0
    URB transfer type: URB_CONTROL (0x02)
    Packet Data Length: 8
    [Response in: 150]
    Control transfer stage: Setup (0)
Setup Data
    bmRequestType: 0x80
        1... .... = Direction: Device-to-host
        .00. .... = Type: Standard (0x0)
        ...0 0000 = Recipient: Device (0x00)
    bRequest: GET DESCRIPTOR (6)
    Descriptor Index: 0x02
    bDescriptorType: STRING (0x03)
    Language Id: English (United States) (0x0409)
    wLength: 54

12.029972
0000  1c 00 00 ba 4e 65 06 99 ff ff 00 00 00 00 0b 00   ....Ne..........
0010  00 01 00 05 00 80 02 08 00 00 00 00 80 06 02 03   ................
0020  09 04 36 00                                       ..6.

No.     Time           Source                Destination           Protocol Length Info
    150 12.032910      1.5.0                 host                  USB      82     GET DESCRIPTOR Response STRING

Frame 150: Packet, 82 bytes on wire (656 bits), 82 bytes captured (656 bits) on interface \\.\USBPcap1, id 0
    Section number: 1
    Interface id: 0 (\\.\USBPcap1)
        Interface name: \\.\USBPcap1
        Interface description: USBPcap1
    Encapsulation type: USB packets with USBPcap header (152)
    Arrival Time: Dec  5, 2025 16:53:03.237081000 Финляндия (зима)
    UTC Arrival Time: Dec  5, 2025 14:53:03.237081000 UTC
    Epoch Arrival Time: 1764946383.237081000
    [Time shift for this packet: 0.000000000 seconds]
    [Time delta from previous captured frame: 2.938000 milliseconds]
    [Time delta from previous displayed frame: 2.938000 milliseconds]
    [Time since reference or first frame: 12.032910000 seconds]
    Frame Number: 150
    Frame Length: 82 bytes (656 bits)
    Capture Length: 82 bytes (656 bits)
    [Frame is marked: False]
    [Frame is ignored: False]
    [Protocols in frame: usb]
    Character encoding: ASCII (0)
USB URB
    [Source: 1.5.0]
    [Destination: host]
    USBPcap pseudoheader length: 28
    IRP ID: 0xffff9906654eba00
    IRP USBD_STATUS: USBD_STATUS_SUCCESS (0x00000000)
    URB Function: URB_FUNCTION_CONTROL_TRANSFER (0x0008)
    IRP information: 0x01, Direction: PDO -> FDO
        0000 000. = Reserved: 0x00
        .... ...1 = Direction: PDO -> FDO (0x1)
    URB bus id: 1
    Device address: 5
    Endpoint: 0x80, Direction: IN
        1... .... = Direction: IN (1)
        .... 0000 = Endpoint number: 0
    URB transfer type: URB_CONTROL (0x02)
    Packet Data Length: 54
    [Request in: 149]
    [Time from request: 2.938000 milliseconds]
    Control transfer stage: Complete (3)
STRING DESCRIPTOR
    bLength: 54
    bDescriptorType: 0x03 (STRING)
    bString: Rapoo 2.4G Wireless Device

12.032910
0000  1c 00 00 ba 4e 65 06 99 ff ff 00 00 00 00 08 00   ....Ne..........
0010  01 01 00 05 00 80 02 36 00 00 00 03 36 03 52 00   .......6....6.R.
0020  61 00 70 00 6f 00 6f 00 20 00 32 00 2e 00 34 00   a.p.o.o. .2...4.
0030  47 00 20 00 57 00 69 00 72 00 65 00 6c 00 65 00   G. .W.i.r.e.l.e.
0040  73 00 73 00 20 00 44 00 65 00 76 00 69 00 63 00   s.s. .D.e.v.i.c.
0050  65 00                                             e.

No.     Time           Source                Destination           Protocol Length Info
    151 12.035019      host                  1.5.0                 USB      36     GET DESCRIPTOR Request STRING

Frame 151: Packet, 36 bytes on wire (288 bits), 36 bytes captured (288 bits) on interface \\.\USBPcap1, id 0
    Section number: 1
    Interface id: 0 (\\.\USBPcap1)
        Interface name: \\.\USBPcap1
        Interface description: USBPcap1
    Encapsulation type: USB packets with USBPcap header (152)
    Arrival Time: Dec  5, 2025 16:53:03.239190000 Финляндия (зима)
    UTC Arrival Time: Dec  5, 2025 14:53:03.239190000 UTC
    Epoch Arrival Time: 1764946383.239190000
    [Time shift for this packet: 0.000000000 seconds]
    [Time delta from previous captured frame: 2.109000 milliseconds]
    [Time delta from previous displayed frame: 2.109000 milliseconds]
    [Time since reference or first frame: 12.035019000 seconds]
    Frame Number: 151
    Frame Length: 36 bytes (288 bits)
    Capture Length: 36 bytes (288 bits)
    [Frame is marked: False]
    [Frame is ignored: False]
    [Protocols in frame: usb]
    Character encoding: ASCII (0)
USB URB
    [Source: host]
    [Destination: 1.5.0]
    USBPcap pseudoheader length: 28
    IRP ID: 0xffff990687d22660
    IRP USBD_STATUS: USBD_STATUS_SUCCESS (0x00000000)
    URB Function: URB_FUNCTION_GET_DESCRIPTOR_FROM_DEVICE (0x000b)
    IRP information: 0x00, Direction: FDO -> PDO
        0000 000. = Reserved: 0x00
        .... ...0 = Direction: FDO -> PDO (0x0)
    URB bus id: 1
    Device address: 5
    Endpoint: 0x80, Direction: IN
        1... .... = Direction: IN (1)
        .... 0000 = Endpoint number: 0
    URB transfer type: URB_CONTROL (0x02)
    Packet Data Length: 8
    [Response in: 152]
    Control transfer stage: Setup (0)
Setup Data
    bmRequestType: 0x80
        1... .... = Direction: Device-to-host
        .00. .... = Type: Standard (0x0)
        ...0 0000 = Recipient: Device (0x00)
    bRequest: GET DESCRIPTOR (6)
    Descriptor Index: 0x02
    bDescriptorType: STRING (0x03)
    Language Id: English (United States) (0x0409)
    wLength: 4

12.035019
0000  1c 00 60 26 d2 87 06 99 ff ff 00 00 00 00 0b 00   ..`&............
0010  00 01 00 05 00 80 02 08 00 00 00 00 80 06 02 03   ................
0020  09 04 04 00                                       ....

No.     Time           Source                Destination           Protocol Length Info
    152 12.041919      1.5.0                 host                  USB      32     GET DESCRIPTOR Response STRING

Frame 152: Packet, 32 bytes on wire (256 bits), 32 bytes captured (256 bits) on interface \\.\USBPcap1, id 0
    Section number: 1
    Interface id: 0 (\\.\USBPcap1)
        Interface name: \\.\USBPcap1
        Interface description: USBPcap1
    Encapsulation type: USB packets with USBPcap header (152)
    Arrival Time: Dec  5, 2025 16:53:03.246090000 Финляндия (зима)
    UTC Arrival Time: Dec  5, 2025 14:53:03.246090000 UTC
    Epoch Arrival Time: 1764946383.246090000
    [Time shift for this packet: 0.000000000 seconds]
    [Time delta from previous captured frame: 6.900000 milliseconds]
    [Time delta from previous displayed frame: 6.900000 milliseconds]
    [Time since reference or first frame: 12.041919000 seconds]
    Frame Number: 152
    Frame Length: 32 bytes (256 bits)
    Capture Length: 32 bytes (256 bits)
    [Frame is marked: False]
    [Frame is ignored: False]
    [Protocols in frame: usb]
    Character encoding: ASCII (0)
USB URB
    [Source: 1.5.0]
    [Destination: host]
    USBPcap pseudoheader length: 28
    IRP ID: 0xffff990687d22660
    IRP USBD_STATUS: USBD_STATUS_SUCCESS (0x00000000)
    URB Function: URB_FUNCTION_CONTROL_TRANSFER (0x0008)
    IRP information: 0x01, Direction: PDO -> FDO
        0000 000. = Reserved: 0x00
        .... ...1 = Direction: PDO -> FDO (0x1)
    URB bus id: 1
    Device address: 5
    Endpoint: 0x80, Direction: IN
        1... .... = Direction: IN (1)
        .... 0000 = Endpoint number: 0
    URB transfer type: URB_CONTROL (0x02)
    Packet Data Length: 4
    [Request in: 151]
    [Time from request: 6.900000 milliseconds]
    Control transfer stage: Complete (3)
STRING DESCRIPTOR
    bLength: 54
    bDescriptorType: 0x03 (STRING)
    bString: R

12.041919
0000  1c 00 60 26 d2 87 06 99 ff ff 00 00 00 00 08 00   ..`&............
0010  01 01 00 05 00 80 02 04 00 00 00 03 36 03 52 00   ............6.R.

No.     Time           Source                Destination           Protocol Length Info
    153 12.041990      host                  1.5.0                 USB      36     GET DESCRIPTOR Request STRING

Frame 153: Packet, 36 bytes on wire (288 bits), 36 bytes captured (288 bits) on interface \\.\USBPcap1, id 0
    Section number: 1
    Interface id: 0 (\\.\USBPcap1)
        Interface name: \\.\USBPcap1
        Interface description: USBPcap1
    Encapsulation type: USB packets with USBPcap header (152)
    Arrival Time: Dec  5, 2025 16:53:03.246161000 Финляндия (зима)
    UTC Arrival Time: Dec  5, 2025 14:53:03.246161000 UTC
    Epoch Arrival Time: 1764946383.246161000
    [Time shift for this packet: 0.000000000 seconds]
    [Time delta from previous captured frame: 71.000 microseconds]
    [Time delta from previous displayed frame: 71.000 microseconds]
    [Time since reference or first frame: 12.041990000 seconds]
    Frame Number: 153
    Frame Length: 36 bytes (288 bits)
    Capture Length: 36 bytes (288 bits)
    [Frame is marked: False]
    [Frame is ignored: False]
    [Protocols in frame: usb]
    Character encoding: ASCII (0)
USB URB
    [Source: host]
    [Destination: 1.5.0]
    USBPcap pseudoheader length: 28
    IRP ID: 0xffff9906c20d3010
    IRP USBD_STATUS: USBD_STATUS_SUCCESS (0x00000000)
    URB Function: URB_FUNCTION_GET_DESCRIPTOR_FROM_DEVICE (0x000b)
    IRP information: 0x00, Direction: FDO -> PDO
        0000 000. = Reserved: 0x00
        .... ...0 = Direction: FDO -> PDO (0x0)
    URB bus id: 1
    Device address: 5
    Endpoint: 0x80, Direction: IN
        1... .... = Direction: IN (1)
        .... 0000 = Endpoint number: 0
    URB transfer type: URB_CONTROL (0x02)
    Packet Data Length: 8
    [Response in: 154]
    Control transfer stage: Setup (0)
Setup Data
    bmRequestType: 0x80
        1... .... = Direction: Device-to-host
        .00. .... = Type: Standard (0x0)
        ...0 0000 = Recipient: Device (0x00)
    bRequest: GET DESCRIPTOR (6)
    Descriptor Index: 0x02
    bDescriptorType: STRING (0x03)
    Language Id: English (United States) (0x0409)
    wLength: 54

12.041990
0000  1c 00 10 30 0d c2 06 99 ff ff 00 00 00 00 0b 00   ...0............
0010  00 01 00 05 00 80 02 08 00 00 00 00 80 06 02 03   ................
0020  09 04 36 00                                       ..6.

No.     Time           Source                Destination           Protocol Length Info
    154 12.044910      1.5.0                 host                  USB      82     GET DESCRIPTOR Response STRING

Frame 154: Packet, 82 bytes on wire (656 bits), 82 bytes captured (656 bits) on interface \\.\USBPcap1, id 0
    Section number: 1
    Interface id: 0 (\\.\USBPcap1)
        Interface name: \\.\USBPcap1
        Interface description: USBPcap1
    Encapsulation type: USB packets with USBPcap header (152)
    Arrival Time: Dec  5, 2025 16:53:03.249081000 Финляндия (зима)
    UTC Arrival Time: Dec  5, 2025 14:53:03.249081000 UTC
    Epoch Arrival Time: 1764946383.249081000
    [Time shift for this packet: 0.000000000 seconds]
    [Time delta from previous captured frame: 2.920000 milliseconds]
    [Time delta from previous displayed frame: 2.920000 milliseconds]
    [Time since reference or first frame: 12.044910000 seconds]
    Frame Number: 154
    Frame Length: 82 bytes (656 bits)
    Capture Length: 82 bytes (656 bits)
    [Frame is marked: False]
    [Frame is ignored: False]
    [Protocols in frame: usb]
    Character encoding: ASCII (0)
USB URB
    [Source: 1.5.0]
    [Destination: host]
    USBPcap pseudoheader length: 28
    IRP ID: 0xffff9906c20d3010
    IRP USBD_STATUS: USBD_STATUS_SUCCESS (0x00000000)
    URB Function: URB_FUNCTION_CONTROL_TRANSFER (0x0008)
    IRP information: 0x01, Direction: PDO -> FDO
        0000 000. = Reserved: 0x00
        .... ...1 = Direction: PDO -> FDO (0x1)
    URB bus id: 1
    Device address: 5
    Endpoint: 0x80, Direction: IN
        1... .... = Direction: IN (1)
        .... 0000 = Endpoint number: 0
    URB transfer type: URB_CONTROL (0x02)
    Packet Data Length: 54
    [Request in: 153]
    [Time from request: 2.920000 milliseconds]
    Control transfer stage: Complete (3)
STRING DESCRIPTOR
    bLength: 54
    bDescriptorType: 0x03 (STRING)
    bString: Rapoo 2.4G Wireless Device

12.044910
0000  1c 00 10 30 0d c2 06 99 ff ff 00 00 00 00 08 00   ...0............
0010  01 01 00 05 00 80 02 36 00 00 00 03 36 03 52 00   .......6....6.R.
0020  61 00 70 00 6f 00 6f 00 20 00 32 00 2e 00 34 00   a.p.o.o. .2...4.
0030  47 00 20 00 57 00 69 00 72 00 65 00 6c 00 65 00   G. .W.i.r.e.l.e.
0040  73 00 73 00 20 00 44 00 65 00 76 00 69 00 63 00   s.s. .D.e.v.i.c.
0050  65 00                                             e.

No.     Time           Source                Destination           Protocol Length Info
    155 12.046629      host                  1.5.0                 USB      36     GET DESCRIPTOR Request STRING

Frame 155: Packet, 36 bytes on wire (288 bits), 36 bytes captured (288 bits) on interface \\.\USBPcap1, id 0
    Section number: 1
    Interface id: 0 (\\.\USBPcap1)
        Interface name: \\.\USBPcap1
        Interface description: USBPcap1
    Encapsulation type: USB packets with USBPcap header (152)
    Arrival Time: Dec  5, 2025 16:53:03.250800000 Финляндия (зима)
    UTC Arrival Time: Dec  5, 2025 14:53:03.250800000 UTC
    Epoch Arrival Time: 1764946383.250800000
    [Time shift for this packet: 0.000000000 seconds]
    [Time delta from previous captured frame: 1.719000 milliseconds]
    [Time delta from previous displayed frame: 1.719000 milliseconds]
    [Time since reference or first frame: 12.046629000 seconds]
    Frame Number: 155
    Frame Length: 36 bytes (288 bits)
    Capture Length: 36 bytes (288 bits)
    [Frame is marked: False]
    [Frame is ignored: False]
    [Protocols in frame: usb]
    Character encoding: ASCII (0)
USB URB
    [Source: host]
    [Destination: 1.5.0]
    USBPcap pseudoheader length: 28
    IRP ID: 0xffff9906622559c0
    IRP USBD_STATUS: USBD_STATUS_SUCCESS (0x00000000)
    URB Function: URB_FUNCTION_GET_DESCRIPTOR_FROM_DEVICE (0x000b)
    IRP information: 0x00, Direction: FDO -> PDO
        0000 000. = Reserved: 0x00
        .... ...0 = Direction: FDO -> PDO (0x0)
    URB bus id: 1
    Device address: 5
    Endpoint: 0x80, Direction: IN
        1... .... = Direction: IN (1)
        .... 0000 = Endpoint number: 0
    URB transfer type: URB_CONTROL (0x02)
    Packet Data Length: 8
    [Response in: 156]
    Control transfer stage: Setup (0)
Setup Data
    bmRequestType: 0x80
        1... .... = Direction: Device-to-host
        .00. .... = Type: Standard (0x0)
        ...0 0000 = Recipient: Device (0x00)
    bRequest: GET DESCRIPTOR (6)
    Descriptor Index: 0x02
    bDescriptorType: STRING (0x03)
    Language Id: English (United States) (0x0409)
    wLength: 4

12.046629
0000  1c 00 c0 59 25 62 06 99 ff ff 00 00 00 00 0b 00   ...Y%b..........
0010  00 01 00 05 00 80 02 08 00 00 00 00 80 06 02 03   ................
0020  09 04 04 00                                       ....

No.     Time           Source                Destination           Protocol Length Info
    156 12.047902      1.5.0                 host                  USB      32     GET DESCRIPTOR Response STRING

Frame 156: Packet, 32 bytes on wire (256 bits), 32 bytes captured (256 bits) on interface \\.\USBPcap1, id 0
    Section number: 1
    Interface id: 0 (\\.\USBPcap1)
        Interface name: \\.\USBPcap1
        Interface description: USBPcap1
    Encapsulation type: USB packets with USBPcap header (152)
    Arrival Time: Dec  5, 2025 16:53:03.252073000 Финляндия (зима)
    UTC Arrival Time: Dec  5, 2025 14:53:03.252073000 UTC
    Epoch Arrival Time: 1764946383.252073000
    [Time shift for this packet: 0.000000000 seconds]
    [Time delta from previous captured frame: 1.273000 milliseconds]
    [Time delta from previous displayed frame: 1.273000 milliseconds]
    [Time since reference or first frame: 12.047902000 seconds]
    Frame Number: 156
    Frame Length: 32 bytes (256 bits)
    Capture Length: 32 bytes (256 bits)
    [Frame is marked: False]
    [Frame is ignored: False]
    [Protocols in frame: usb]
    Character encoding: ASCII (0)
USB URB
    [Source: 1.5.0]
    [Destination: host]
    USBPcap pseudoheader length: 28
    IRP ID: 0xffff9906622559c0
    IRP USBD_STATUS: USBD_STATUS_SUCCESS (0x00000000)
    URB Function: URB_FUNCTION_CONTROL_TRANSFER (0x0008)
    IRP information: 0x01, Direction: PDO -> FDO
        0000 000. = Reserved: 0x00
        .... ...1 = Direction: PDO -> FDO (0x1)
    URB bus id: 1
    Device address: 5
    Endpoint: 0x80, Direction: IN
        1... .... = Direction: IN (1)
        .... 0000 = Endpoint number: 0
    URB transfer type: URB_CONTROL (0x02)
    Packet Data Length: 4
    [Request in: 155]
    [Time from request: 1.273000 milliseconds]
    Control transfer stage: Complete (3)
STRING DESCRIPTOR
    bLength: 54
    bDescriptorType: 0x03 (STRING)
    bString: R

12.047902
0000  1c 00 c0 59 25 62 06 99 ff ff 00 00 00 00 08 00   ...Y%b..........
0010  01 01 00 05 00 80 02 04 00 00 00 03 36 03 52 00   ............6.R.

No.     Time           Source                Destination           Protocol Length Info
    157 12.047934      host                  1.5.0                 USB      36     GET DESCRIPTOR Request STRING

Frame 157: Packet, 36 bytes on wire (288 bits), 36 bytes captured (288 bits) on interface \\.\USBPcap1, id 0
    Section number: 1
    Interface id: 0 (\\.\USBPcap1)
        Interface name: \\.\USBPcap1
        Interface description: USBPcap1
    Encapsulation type: USB packets with USBPcap header (152)
    Arrival Time: Dec  5, 2025 16:53:03.252105000 Финляндия (зима)
    UTC Arrival Time: Dec  5, 2025 14:53:03.252105000 UTC
    Epoch Arrival Time: 1764946383.252105000
    [Time shift for this packet: 0.000000000 seconds]
    [Time delta from previous captured frame: 32.000 microseconds]
    [Time delta from previous displayed frame: 32.000 microseconds]
    [Time since reference or first frame: 12.047934000 seconds]
    Frame Number: 157
    Frame Length: 36 bytes (288 bits)
    Capture Length: 36 bytes (288 bits)
    [Frame is marked: False]
    [Frame is ignored: False]
    [Protocols in frame: usb]
    Character encoding: ASCII (0)
USB URB
    [Source: host]
    [Destination: 1.5.0]
    USBPcap pseudoheader length: 28
    IRP ID: 0xffff9906bf549010
    IRP USBD_STATUS: USBD_STATUS_SUCCESS (0x00000000)
    URB Function: URB_FUNCTION_GET_DESCRIPTOR_FROM_DEVICE (0x000b)
    IRP information: 0x00, Direction: FDO -> PDO
        0000 000. = Reserved: 0x00
        .... ...0 = Direction: FDO -> PDO (0x0)
    URB bus id: 1
    Device address: 5
    Endpoint: 0x80, Direction: IN
        1... .... = Direction: IN (1)
        .... 0000 = Endpoint number: 0
    URB transfer type: URB_CONTROL (0x02)
    Packet Data Length: 8
    [Response in: 158]
    Control transfer stage: Setup (0)
Setup Data
    bmRequestType: 0x80
        1... .... = Direction: Device-to-host
        .00. .... = Type: Standard (0x0)
        ...0 0000 = Recipient: Device (0x00)
    bRequest: GET DESCRIPTOR (6)
    Descriptor Index: 0x02
    bDescriptorType: STRING (0x03)
    Language Id: English (United States) (0x0409)
    wLength: 54

12.047934
0000  1c 00 10 90 54 bf 06 99 ff ff 00 00 00 00 0b 00   ....T...........
0010  00 01 00 05 00 80 02 08 00 00 00 00 80 06 02 03   ................
0020  09 04 36 00                                       ..6.

No.     Time           Source                Destination           Protocol Length Info
    158 12.050909      1.5.0                 host                  USB      82     GET DESCRIPTOR Response STRING

Frame 158: Packet, 82 bytes on wire (656 bits), 82 bytes captured (656 bits) on interface \\.\USBPcap1, id 0
    Section number: 1
    Interface id: 0 (\\.\USBPcap1)
        Interface name: \\.\USBPcap1
        Interface description: USBPcap1
    Encapsulation type: USB packets with USBPcap header (152)
    Arrival Time: Dec  5, 2025 16:53:03.255080000 Финляндия (зима)
    UTC Arrival Time: Dec  5, 2025 14:53:03.255080000 UTC
    Epoch Arrival Time: 1764946383.255080000
    [Time shift for this packet: 0.000000000 seconds]
    [Time delta from previous captured frame: 2.975000 milliseconds]
    [Time delta from previous displayed frame: 2.975000 milliseconds]
    [Time since reference or first frame: 12.050909000 seconds]
    Frame Number: 158
    Frame Length: 82 bytes (656 bits)
    Capture Length: 82 bytes (656 bits)
    [Frame is marked: False]
    [Frame is ignored: False]
    [Protocols in frame: usb]
    Character encoding: ASCII (0)
USB URB
    [Source: 1.5.0]
    [Destination: host]
    USBPcap pseudoheader length: 28
    IRP ID: 0xffff9906bf549010
    IRP USBD_STATUS: USBD_STATUS_SUCCESS (0x00000000)
    URB Function: URB_FUNCTION_CONTROL_TRANSFER (0x0008)
    IRP information: 0x01, Direction: PDO -> FDO
        0000 000. = Reserved: 0x00
        .... ...1 = Direction: PDO -> FDO (0x1)
    URB bus id: 1
    Device address: 5
    Endpoint: 0x80, Direction: IN
        1... .... = Direction: IN (1)
        .... 0000 = Endpoint number: 0
    URB transfer type: URB_CONTROL (0x02)
    Packet Data Length: 54
    [Request in: 157]
    [Time from request: 2.975000 milliseconds]
    Control transfer stage: Complete (3)
STRING DESCRIPTOR
    bLength: 54
    bDescriptorType: 0x03 (STRING)
    bString: Rapoo 2.4G Wireless Device

12.050909
0000  1c 00 10 90 54 bf 06 99 ff ff 00 00 00 00 08 00   ....T...........
0010  01 01 00 05 00 80 02 36 00 00 00 03 36 03 52 00   .......6....6.R.
0020  61 00 70 00 6f 00 6f 00 20 00 32 00 2e 00 34 00   a.p.o.o. .2...4.
0030  47 00 20 00 57 00 69 00 72 00 65 00 6c 00 65 00   G. .W.i.r.e.l.e.
0040  73 00 73 00 20 00 44 00 65 00 76 00 69 00 63 00   s.s. .D.e.v.i.c.
0050  65 00                                             e.

No.     Time           Source                Destination           Protocol Length Info
    159 12.053088      host                  1.5.0                 USBHID   36     SET_IDLE Request

Frame 159: Packet, 36 bytes on wire (288 bits), 36 bytes captured (288 bits) on interface \\.\USBPcap1, id 0
    Section number: 1
    Interface id: 0 (\\.\USBPcap1)
        Interface name: \\.\USBPcap1
        Interface description: USBPcap1
    Encapsulation type: USB packets with USBPcap header (152)
    Arrival Time: Dec  5, 2025 16:53:03.257259000 Финляндия (зима)
    UTC Arrival Time: Dec  5, 2025 14:53:03.257259000 UTC
    Epoch Arrival Time: 1764946383.257259000
    [Time shift for this packet: 0.000000000 seconds]
    [Time delta from previous captured frame: 2.179000 milliseconds]
    [Time delta from previous displayed frame: 2.179000 milliseconds]
    [Time since reference or first frame: 12.053088000 seconds]
    Frame Number: 159
    Frame Length: 36 bytes (288 bits)
    Capture Length: 36 bytes (288 bits)
    [Frame is marked: False]
    [Frame is ignored: False]
    [Protocols in frame: usb:usbhid]
    Character encoding: ASCII (0)
USB URB
    [Source: host]
    [Destination: 1.5.0]
    USBPcap pseudoheader length: 28
    IRP ID: 0xffff9906654eba00
    IRP USBD_STATUS: USBD_STATUS_SUCCESS (0x00000000)
    URB Function: URB_FUNCTION_CLASS_INTERFACE (0x001b)
    IRP information: 0x00, Direction: FDO -> PDO
        0000 000. = Reserved: 0x00
        .... ...0 = Direction: FDO -> PDO (0x0)
    URB bus id: 1
    Device address: 5
    Endpoint: 0x00, Direction: OUT
        0... .... = Direction: OUT (0)
        .... 0000 = Endpoint number: 0
    URB transfer type: URB_CONTROL (0x02)
    Packet Data Length: 8
    [Response in: 160]
    Control transfer stage: Setup (0)
    [bInterfaceClass: HID (0x03)]
Setup Data
    bmRequestType: 0x21
        0... .... = Direction: Host-to-device
        .01. .... = Type: Class (0x1)
        ...0 0001 = Recipient: Interface (0x01)
    bRequest: SET_IDLE (0x0a)
    wValue: 0x0000
        ReportID: 0
        Duration: 0
    wIndex: 0
    wLength: 0

12.053088
0000  1c 00 00 ba 4e 65 06 99 ff ff 00 00 00 00 1b 00   ....Ne..........
0010  00 01 00 05 00 00 02 08 00 00 00 00 21 0a 00 00   ............!...
0020  00 00 00 00                                       ....

No.     Time           Source                Destination           Protocol Length Info
    160 12.070917      1.5.0                 host                  USBHID   28     SET_IDLE Response

Frame 160: Packet, 28 bytes on wire (224 bits), 28 bytes captured (224 bits) on interface \\.\USBPcap1, id 0
    Section number: 1
    Interface id: 0 (\\.\USBPcap1)
        Interface name: \\.\USBPcap1
        Interface description: USBPcap1
    Encapsulation type: USB packets with USBPcap header (152)
    Arrival Time: Dec  5, 2025 16:53:03.275088000 Финляндия (зима)
    UTC Arrival Time: Dec  5, 2025 14:53:03.275088000 UTC
    Epoch Arrival Time: 1764946383.275088000
    [Time shift for this packet: 0.000000000 seconds]
    [Time delta from previous captured frame: 17.829000 milliseconds]
    [Time delta from previous displayed frame: 17.829000 milliseconds]
    [Time since reference or first frame: 12.070917000 seconds]
    Frame Number: 160
    Frame Length: 28 bytes (224 bits)
    Capture Length: 28 bytes (224 bits)
    [Frame is marked: False]
    [Frame is ignored: False]
    [Protocols in frame: usb]
    Character encoding: ASCII (0)
USB URB
    [Source: 1.5.0]
    [Destination: host]
    USBPcap pseudoheader length: 28
    IRP ID: 0xffff9906654eba00
    IRP USBD_STATUS: USBD_STATUS_SUCCESS (0x00000000)
    URB Function: URB_FUNCTION_CONTROL_TRANSFER (0x0008)
    IRP information: 0x01, Direction: PDO -> FDO
        0000 000. = Reserved: 0x00
        .... ...1 = Direction: PDO -> FDO (0x1)
    URB bus id: 1
    Device address: 5
    Endpoint: 0x00, Direction: OUT
        0... .... = Direction: OUT (0)
        .... 0000 = Endpoint number: 0
    URB transfer type: URB_CONTROL (0x02)
    Packet Data Length: 0
    [Request in: 159]
    [Time from request: 17.829000 milliseconds]
    Control transfer stage: Complete (3)
    [bInterfaceClass: HID (0x03)]

12.070917
0000  1c 00 00 ba 4e 65 06 99 ff ff 00 00 00 00 08 00   ....Ne..........
0010  01 01 00 05 00 00 02 00 00 00 00 03               ............

No.     Time           Source                Destination           Protocol Length Info
    161 12.071032      host                  1.5.0                 USBHID   36     GET DESCRIPTOR Request HID Report

Frame 161: Packet, 36 bytes on wire (288 bits), 36 bytes captured (288 bits) on interface \\.\USBPcap1, id 0
    Section number: 1
    Interface id: 0 (\\.\USBPcap1)
        Interface name: \\.\USBPcap1
        Interface description: USBPcap1
    Encapsulation type: USB packets with USBPcap header (152)
    Arrival Time: Dec  5, 2025 16:53:03.275203000 Финляндия (зима)
    UTC Arrival Time: Dec  5, 2025 14:53:03.275203000 UTC
    Epoch Arrival Time: 1764946383.275203000
    [Time shift for this packet: 0.000000000 seconds]
    [Time delta from previous captured frame: 115.000 microseconds]
    [Time delta from previous displayed frame: 115.000 microseconds]
    [Time since reference or first frame: 12.071032000 seconds]
    Frame Number: 161
    Frame Length: 36 bytes (288 bits)
    Capture Length: 36 bytes (288 bits)
    [Frame is marked: False]
    [Frame is ignored: False]
    [Protocols in frame: usb:usbhid]
    Character encoding: ASCII (0)
USB URB
    [Source: host]
    [Destination: 1.5.0]
    USBPcap pseudoheader length: 28
    IRP ID: 0xffff990696f766a0
    IRP USBD_STATUS: USBD_STATUS_SUCCESS (0x00000000)
    URB Function: URB_FUNCTION_GET_DESCRIPTOR_FROM_INTERFACE (0x0028)
    IRP information: 0x00, Direction: FDO -> PDO
        0000 000. = Reserved: 0x00
        .... ...0 = Direction: FDO -> PDO (0x0)
    URB bus id: 1
    Device address: 5
    Endpoint: 0x80, Direction: IN
        1... .... = Direction: IN (1)
        .... 0000 = Endpoint number: 0
    URB transfer type: URB_CONTROL (0x02)
    Packet Data Length: 8
    [Response in: 162]
    Control transfer stage: Setup (0)
    [bInterfaceClass: HID (0x03)]
Setup Data
    bmRequestType: 0x81
        1... .... = Direction: Device-to-host
        .00. .... = Type: Standard (0x0)
        ...0 0001 = Recipient: Interface (0x01)
    bDescriptorIndex: 0x00
    bDescriptorType: HID Report (0x22)
    wInterfaceNumber: 0
    wDescriptorLength: 128

12.071032
0000  1c 00 a0 66 f7 96 06 99 ff ff 00 00 00 00 28 00   ...f..........(.
0010  00 01 00 05 00 80 02 08 00 00 00 00 81 06 00 22   ..............."
0020  00 00 80 00                                       ....

No.     Time           Source                Destination           Protocol Length Info
    162 12.088906      1.5.0                 host                  USBHID   92     GET DESCRIPTOR Response HID Report

Frame 162: Packet, 92 bytes on wire (736 bits), 92 bytes captured (736 bits) on interface \\.\USBPcap1, id 0
    Section number: 1
    Interface id: 0 (\\.\USBPcap1)
        Interface name: \\.\USBPcap1
        Interface description: USBPcap1
    Encapsulation type: USB packets with USBPcap header (152)
    Arrival Time: Dec  5, 2025 16:53:03.293077000 Финляндия (зима)
    UTC Arrival Time: Dec  5, 2025 14:53:03.293077000 UTC
    Epoch Arrival Time: 1764946383.293077000
    [Time shift for this packet: 0.000000000 seconds]
    [Time delta from previous captured frame: 17.874000 milliseconds]
    [Time delta from previous displayed frame: 17.874000 milliseconds]
    [Time since reference or first frame: 12.088906000 seconds]
    Frame Number: 162
    Frame Length: 92 bytes (736 bits)
    Capture Length: 92 bytes (736 bits)
    [Frame is marked: False]
    [Frame is ignored: False]
    [Protocols in frame: usb:usbhid]
    Character encoding: ASCII (0)
USB URB
    [Source: 1.5.0]
    [Destination: host]
    USBPcap pseudoheader length: 28
    IRP ID: 0xffff990696f766a0
    IRP USBD_STATUS: USBD_STATUS_SUCCESS (0x00000000)
    URB Function: URB_FUNCTION_CONTROL_TRANSFER (0x0008)
    IRP information: 0x01, Direction: PDO -> FDO
        0000 000. = Reserved: 0x00
        .... ...1 = Direction: PDO -> FDO (0x1)
    URB bus id: 1
    Device address: 5
    Endpoint: 0x80, Direction: IN
        1... .... = Direction: IN (1)
        .... 0000 = Endpoint number: 0
    URB transfer type: URB_CONTROL (0x02)
    Packet Data Length: 64
    [Request in: 161]
    [Time from request: 17.874000 milliseconds]
    Control transfer stage: Complete (3)
    [bInterfaceClass: HID (0x03)]
HID Report
    Usage Page (Generic Desktop Controls)
        Header
            .... ..01 = bSize: 1 byte (1)
            .... 01.. = bType: Global (1)
            0000 .... = bTag: Usage Page (0x0)
        Usage Page: Generic Desktop Controls (0x01)
    Usage (Mouse)
        Header
            .... ..01 = bSize: 1 byte (1)
            .... 10.. = bType: Local (2)
            0000 .... = bTag: Usage (0x0)
        Usage: Mouse (0x02)
    Collection (Application)
        Header
            .... ..01 = bSize: 1 byte (1)
            .... 00.. = bType: Main (0)
            1010 .... = bTag: Collection (0xa)
        Collection type: Application (0x01)
        Usage (Pointer)
            Header
                .... ..01 = bSize: 1 byte (1)
                .... 10.. = bType: Local (2)
                0000 .... = bTag: Usage (0x0)
            Usage: Pointer (0x01)
        Collection (Physical)
            Header
                .... ..01 = bSize: 1 byte (1)
                .... 00.. = bType: Main (0)
                1010 .... = bTag: Collection (0xa)
            Collection type: Physical (0x00)
            Usage Page (Button)
                Header
                    .... ..01 = bSize: 1 byte (1)
                    .... 01.. = bType: Global (1)
                    0000 .... = bTag: Usage Page (0x0)
                Usage Page: Button (0x09)
            Usage Minimum (0x01)
                Header
                    .... ..01 = bSize: 1 byte (1)
                    .... 10.. = bType: Local (2)
                    0001 .... = bTag: Usage Minimum (0x1)
                Usage minimum: 0x01
            Usage Maximum (0x05)
                Header
                    .... ..01 = bSize: 1 byte (1)
                    .... 10.. = bType: Local (2)
                    0010 .... = bTag: Usage Maximum (0x2)
                Usage maximum: 0x05
            Logical Minimum (0)
                Header
                    .... ..01 = bSize: 1 byte (1)
                    .... 01.. = bType: Global (1)
                    0001 .... = bTag: Logical Minimum (0x1)
                Logical minimum: 0
            Logical Maximum (1)
                Header
                    .... ..01 = bSize: 1 byte (1)
                    .... 01.. = bType: Global (1)
                    0010 .... = bTag: Logical Maximum (0x2)
                Logical maximum: 1
            Report Count (5)
                Header
                    .... ..01 = bSize: 1 byte (1)
                    .... 01.. = bType: Global (1)
                    1001 .... = bTag: Report Count (0x9)
                Report count: 5
            Report Size (1)
                Header
                    .... ..01 = bSize: 1 byte (1)
                    .... 01.. = bType: Global (1)
                    0111 .... = bTag: Report Size (0x7)
                Report size: 1
            Input (Data,Var,Abs)
                Header
                    .... ..01 = bSize: 1 byte (1)
                    .... 00.. = bType: Main (0)
                    1000 .... = bTag: Input (0x8)
                .... .... 0 = Data/constant: Data
                .... ...1 . = Data type: Variable
                .... ..0. . = Coordinates: Absolute
                .... .0.. . = Min/max wraparound: No Wrap
                .... 0... . = Physical relationship to data: Linear
                ...0 .... . = Preferred state: Preferred State
                ..0. .... . = Has null position: No Null position
                .0.. .... . = [Reserved]: False
                0... .... . = Bits or bytes: Buffered bytes (default, no second byte present)
            Report Count (1)
                Header
                    .... ..01 = bSize: 1 byte (1)
                    .... 01.. = bType: Global (1)
                    1001 .... = bTag: Report Count (0x9)
                Report count: 1
            Report Size (3)
                Header
                    .... ..01 = bSize: 1 byte (1)
                    .... 01.. = bType: Global (1)
                    0111 .... = bTag: Report Size (0x7)
                Report size: 3
            Input (Const,Var,Abs)
                Header
                    .... ..01 = bSize: 1 byte (1)
                    .... 00.. = bType: Main (0)
                    1000 .... = bTag: Input (0x8)
                .... .... 1 = Data/constant: Constant
                .... ...1 . = Data type: Variable
                .... ..0. . = Coordinates: Absolute
                .... .0.. . = Min/max wraparound: No Wrap
                .... 0... . = Physical relationship to data: Linear
                ...0 .... . = Preferred state: Preferred State
                ..0. .... . = Has null position: No Null position
                .0.. .... . = [Reserved]: False
                0... .... . = Bits or bytes: Buffered bytes (default, no second byte present)
            Usage Page (Generic Desktop Controls)
                Header
                    .... ..01 = bSize: 1 byte (1)
                    .... 01.. = bType: Global (1)
                    0000 .... = bTag: Usage Page (0x0)
                Usage Page: Generic Desktop Controls (0x01)
            Usage (X)
                Header
                    .... ..01 = bSize: 1 byte (1)
                    .... 10.. = bType: Local (2)
                    0000 .... = bTag: Usage (0x0)
                Usage: X (0x30)
            Usage (Y)
                Header
                    .... ..01 = bSize: 1 byte (1)
                    .... 10.. = bType: Local (2)
                    0000 .... = bTag: Usage (0x0)
                Usage: Y (0x31)
            Logical Minimum (-32767)
                Header
                    .... ..10 = bSize: 2 bytes (2)
                    .... 01.. = bType: Global (1)
                    0001 .... = bTag: Logical Minimum (0x1)
                Logical minimum: -32767
            Logical Maximum (32767)
                Header
                    .... ..10 = bSize: 2 bytes (2)
                    .... 01.. = bType: Global (1)
                    0010 .... = bTag: Logical Maximum (0x2)
                Logical maximum: 32767
            Report Size (16)
                Header
                    .... ..01 = bSize: 1 byte (1)
                    .... 01.. = bType: Global (1)
                    0111 .... = bTag: Report Size (0x7)
                Report size: 16
            Report Count (2)
                Header
                    .... ..01 = bSize: 1 byte (1)
                    .... 01.. = bType: Global (1)
                    1001 .... = bTag: Report Count (0x9)
                Report count: 2
            Input (Data,Var,Rel)
                Header
                    .... ..01 = bSize: 1 byte (1)
                    .... 00.. = bType: Main (0)
                    1000 .... = bTag: Input (0x8)
                .... .... 0 = Data/constant: Data
                .... ...1 . = Data type: Variable
                .... ..1. . = Coordinates: Relative
                .... .0.. . = Min/max wraparound: No Wrap
                .... 0... . = Physical relationship to data: Linear
                ...0 .... . = Preferred state: Preferred State
                ..0. .... . = Has null position: No Null position
                .0.. .... . = [Reserved]: False
                0... .... . = Bits or bytes: Buffered bytes (default, no second byte present)
            Usage (Wheel)
                Header
                    .... ..01 = bSize: 1 byte (1)
                    .... 10.. = bType: Local (2)
                    0000 .... = bTag: Usage (0x0)
                Usage: Wheel (0x38)
            Logical Minimum (-127)
                Header
                    .... ..01 = bSize: 1 byte (1)
                    .... 01.. = bType: Global (1)
                    0001 .... = bTag: Logical Minimum (0x1)
                Logical minimum: -127
            Logical Maximum (127)
                Header
                    .... ..01 = bSize: 1 byte (1)
                    .... 01.. = bType: Global (1)
                    0010 .... = bTag: Logical Maximum (0x2)
                Logical maximum: 127
            Report Size (8)
                Header
                    .... ..01 = bSize: 1 byte (1)
                    .... 01.. = bType: Global (1)
                    0111 .... = bTag: Report Size (0x7)
                Report size: 8
            Report Count (1)
                Header
                    .... ..01 = bSize: 1 byte (1)
                    .... 01.. = bType: Global (1)
                    1001 .... = bTag: Report Count (0x9)
                Report count: 1
            Input (Data,Var,Rel)
                Header
                    .... ..01 = bSize: 1 byte (1)
                    .... 00.. = bType: Main (0)
                    1000 .... = bTag: Input (0x8)
                .... .... 0 = Data/constant: Data
                .... ...1 . = Data type: Variable
                .... ..1. . = Coordinates: Relative
                .... .0.. . = Min/max wraparound: No Wrap
                .... 0... . = Physical relationship to data: Linear
                ...0 .... . = Preferred state: Preferred State
                ..0. .... . = Has null position: No Null position
                .0.. .... . = [Reserved]: False
                0... .... . = Bits or bytes: Buffered bytes (default, no second byte present)
            End Collection
                Header
                    .... ..00 = bSize: 0 bytes (0)
                    .... 00.. = bType: Main (0)
                    1100 .... = bTag: End Collection (0xc)
        End Collection
            Header
                .... ..00 = bSize: 0 bytes (0)
                .... 00.. = bType: Main (0)
                1100 .... = bTag: End Collection (0xc)

12.088906
0000  1c 00 a0 66 f7 96 06 99 ff ff 00 00 00 00 08 00   ...f............
0010  01 01 00 05 00 80 02 40 00 00 00 03 05 01 09 02   .......@........
0020  a1 01 09 01 a1 00 05 09 19 01 29 05 15 00 25 01   ..........)...%.
0030  95 05 75 01 81 02 95 01 75 03 81 03 05 01 09 30   ..u.....u......0
0040  09 31 16 01 80 26 ff 7f 75 10 95 02 81 06 09 38   .1...&..u......8
0050  15 81 25 7f 75 08 95 01 81 06 c0 c0               ..%.u.......

No.     Time           Source                Destination           Protocol Length Info
    163 12.090744      host                  1.5.1                 USB      27     URB_INTERRUPT in

Frame 163: Packet, 27 bytes on wire (216 bits), 27 bytes captured (216 bits) on interface \\.\USBPcap1, id 0
    Section number: 1
    Interface id: 0 (\\.\USBPcap1)
        Interface name: \\.\USBPcap1
        Interface description: USBPcap1
    Encapsulation type: USB packets with USBPcap header (152)
    Arrival Time: Dec  5, 2025 16:53:03.294915000 Финляндия (зима)
    UTC Arrival Time: Dec  5, 2025 14:53:03.294915000 UTC
    Epoch Arrival Time: 1764946383.294915000
    [Time shift for this packet: 0.000000000 seconds]
    [Time delta from previous captured frame: 1.838000 milliseconds]
    [Time delta from previous displayed frame: 1.838000 milliseconds]
    [Time since reference or first frame: 12.090744000 seconds]
    Frame Number: 163
    Frame Length: 27 bytes (216 bits)
    Capture Length: 27 bytes (216 bits)
    [Frame is marked: False]
    [Frame is ignored: False]
    [Protocols in frame: usb]
    Character encoding: ASCII (0)
USB URB
    [Source: host]
    [Destination: 1.5.1]
    USBPcap pseudoheader length: 27
    IRP ID: 0xffff99069bdaa8f0
    IRP USBD_STATUS: USBD_STATUS_SUCCESS (0x00000000)
    URB Function: URB_FUNCTION_BULK_OR_INTERRUPT_TRANSFER (0x0009)
    IRP information: 0x00, Direction: FDO -> PDO
        0000 000. = Reserved: 0x00
        .... ...0 = Direction: FDO -> PDO (0x0)
    URB bus id: 1
    Device address: 5
    Endpoint: 0x81, Direction: IN
        1... .... = Direction: IN (1)
        .... 0001 = Endpoint number: 1
    URB transfer type: URB_INTERRUPT (0x01)
    Packet Data Length: 0
    [Response in: 331]
    [bInterfaceClass: HID (0x03)]

12.090744
0000  1b 00 f0 a8 da 9b 06 99 ff ff 00 00 00 00 09 00   ................
0010  00 01 00 05 00 81 01 00 00 00 00                  ...........

No.     Time           Source                Destination           Protocol Length Info
    164 12.090785      host                  1.5.1                 USB      27     URB_INTERRUPT in

Frame 164: Packet, 27 bytes on wire (216 bits), 27 bytes captured (216 bits) on interface \\.\USBPcap1, id 0
    Section number: 1
    Interface id: 0 (\\.\USBPcap1)
        Interface name: \\.\USBPcap1
        Interface description: USBPcap1
    Encapsulation type: USB packets with USBPcap header (152)
    Arrival Time: Dec  5, 2025 16:53:03.294956000 Финляндия (зима)
    UTC Arrival Time: Dec  5, 2025 14:53:03.294956000 UTC
    Epoch Arrival Time: 1764946383.294956000
    [Time shift for this packet: 0.000000000 seconds]
    [Time delta from previous captured frame: 41.000 microseconds]
    [Time delta from previous displayed frame: 41.000 microseconds]
    [Time since reference or first frame: 12.090785000 seconds]
    Frame Number: 164
    Frame Length: 27 bytes (216 bits)
    Capture Length: 27 bytes (216 bits)
    [Frame is marked: False]
    [Frame is ignored: False]
    [Protocols in frame: usb]
    Character encoding: ASCII (0)
USB URB
    [Source: host]
    [Destination: 1.5.1]
    USBPcap pseudoheader length: 27
    IRP ID: 0xffff99069bed2660
    IRP USBD_STATUS: USBD_STATUS_SUCCESS (0x00000000)
    URB Function: URB_FUNCTION_BULK_OR_INTERRUPT_TRANSFER (0x0009)
    IRP information: 0x00, Direction: FDO -> PDO
        0000 000. = Reserved: 0x00
        .... ...0 = Direction: FDO -> PDO (0x0)
    URB bus id: 1
    Device address: 5
    Endpoint: 0x81, Direction: IN
        1... .... = Direction: IN (1)
        .... 0001 = Endpoint number: 1
    URB transfer type: URB_INTERRUPT (0x01)
    Packet Data Length: 0
    [Response in: 333]
    [bInterfaceClass: HID (0x03)]

12.090785
0000  1b 00 60 26 ed 9b 06 99 ff ff 00 00 00 00 09 00   ..`&............
0010  00 01 00 05 00 81 01 00 00 00 00                  ...........

No.     Time           Source                Destination           Protocol Length Info
    165 12.093590      host                  1.5.0                 USBHID   36     SET_IDLE Request

Frame 165: Packet, 36 bytes on wire (288 bits), 36 bytes captured (288 bits) on interface \\.\USBPcap1, id 0
    Section number: 1
    Interface id: 0 (\\.\USBPcap1)
        Interface name: \\.\USBPcap1
        Interface description: USBPcap1
    Encapsulation type: USB packets with USBPcap header (152)
    Arrival Time: Dec  5, 2025 16:53:03.297761000 Финляндия (зима)
    UTC Arrival Time: Dec  5, 2025 14:53:03.297761000 UTC
    Epoch Arrival Time: 1764946383.297761000
    [Time shift for this packet: 0.000000000 seconds]
    [Time delta from previous captured frame: 2.805000 milliseconds]
    [Time delta from previous displayed frame: 2.805000 milliseconds]
    [Time since reference or first frame: 12.093590000 seconds]
    Frame Number: 165
    Frame Length: 36 bytes (288 bits)
    Capture Length: 36 bytes (288 bits)
    [Frame is marked: False]
    [Frame is ignored: False]
    [Protocols in frame: usb:usbhid]
    Character encoding: ASCII (0)
USB URB
    [Source: host]
    [Destination: 1.5.0]
    USBPcap pseudoheader length: 28
    IRP ID: 0xffff9906c7f6a010
    IRP USBD_STATUS: USBD_STATUS_SUCCESS (0x00000000)
    URB Function: URB_FUNCTION_CLASS_INTERFACE (0x001b)
    IRP information: 0x00, Direction: FDO -> PDO
        0000 000. = Reserved: 0x00
        .... ...0 = Direction: FDO -> PDO (0x0)
    URB bus id: 1
    Device address: 5
    Endpoint: 0x00, Direction: OUT
        0... .... = Direction: OUT (0)
        .... 0000 = Endpoint number: 0
    URB transfer type: URB_CONTROL (0x02)
    Packet Data Length: 8
    [Response in: 166]
    Control transfer stage: Setup (0)
    [bInterfaceClass: HID (0x03)]
Setup Data
    bmRequestType: 0x21
        0... .... = Direction: Host-to-device
        .01. .... = Type: Class (0x1)
        ...0 0001 = Recipient: Interface (0x01)
    bRequest: SET_IDLE (0x0a)
    wValue: 0x0000
        ReportID: 0
        Duration: 0
    wIndex: 1
    wLength: 0

12.093590
0000  1c 00 10 a0 f6 c7 06 99 ff ff 00 00 00 00 1b 00   ................
0010  00 01 00 05 00 00 02 08 00 00 00 00 21 0a 00 00   ............!...
0020  01 00 00 00                                       ....

No.     Time           Source                Destination           Protocol Length Info
    166 12.110917      1.5.0                 host                  USBHID   28     SET_IDLE Response

Frame 166: Packet, 28 bytes on wire (224 bits), 28 bytes captured (224 bits) on interface \\.\USBPcap1, id 0
    Section number: 1
    Interface id: 0 (\\.\USBPcap1)
        Interface name: \\.\USBPcap1
        Interface description: USBPcap1
    Encapsulation type: USB packets with USBPcap header (152)
    Arrival Time: Dec  5, 2025 16:53:03.315088000 Финляндия (зима)
    UTC Arrival Time: Dec  5, 2025 14:53:03.315088000 UTC
    Epoch Arrival Time: 1764946383.315088000
    [Time shift for this packet: 0.000000000 seconds]
    [Time delta from previous captured frame: 17.327000 milliseconds]
    [Time delta from previous displayed frame: 17.327000 milliseconds]
    [Time since reference or first frame: 12.110917000 seconds]
    Frame Number: 166
    Frame Length: 28 bytes (224 bits)
    Capture Length: 28 bytes (224 bits)
    [Frame is marked: False]
    [Frame is ignored: False]
    [Protocols in frame: usb]
    Character encoding: ASCII (0)
USB URB
    [Source: 1.5.0]
    [Destination: host]
    USBPcap pseudoheader length: 28
    IRP ID: 0xffff9906c7f6a010
    IRP USBD_STATUS: USBD_STATUS_SUCCESS (0x00000000)
    URB Function: URB_FUNCTION_CONTROL_TRANSFER (0x0008)
    IRP information: 0x01, Direction: PDO -> FDO
        0000 000. = Reserved: 0x00
        .... ...1 = Direction: PDO -> FDO (0x1)
    URB bus id: 1
    Device address: 5
    Endpoint: 0x00, Direction: OUT
        0... .... = Direction: OUT (0)
        .... 0000 = Endpoint number: 0
    URB transfer type: URB_CONTROL (0x02)
    Packet Data Length: 0
    [Request in: 165]
    [Time from request: 17.327000 milliseconds]
    Control transfer stage: Complete (3)
    [bInterfaceClass: HID (0x03)]

12.110917
0000  1c 00 10 a0 f6 c7 06 99 ff ff 00 00 00 00 08 00   ................
0010  01 01 00 05 00 00 02 00 00 00 00 03               ............

No.     Time           Source                Destination           Protocol Length Info
    167 12.111042      host                  1.5.0                 USBHID   36     GET DESCRIPTOR Request HID Report

Frame 167: Packet, 36 bytes on wire (288 bits), 36 bytes captured (288 bits) on interface \\.\USBPcap1, id 0
    Section number: 1
    Interface id: 0 (\\.\USBPcap1)
        Interface name: \\.\USBPcap1
        Interface description: USBPcap1
    Encapsulation type: USB packets with USBPcap header (152)
    Arrival Time: Dec  5, 2025 16:53:03.315213000 Финляндия (зима)
    UTC Arrival Time: Dec  5, 2025 14:53:03.315213000 UTC
    Epoch Arrival Time: 1764946383.315213000
    [Time shift for this packet: 0.000000000 seconds]
    [Time delta from previous captured frame: 125.000 microseconds]
    [Time delta from previous displayed frame: 125.000 microseconds]
    [Time since reference or first frame: 12.111042000 seconds]
    Frame Number: 167
    Frame Length: 36 bytes (288 bits)
    Capture Length: 36 bytes (288 bits)
    [Frame is marked: False]
    [Frame is ignored: False]
    [Protocols in frame: usb:usbhid]
    Character encoding: ASCII (0)
USB URB
    [Source: host]
    [Destination: 1.5.0]
    USBPcap pseudoheader length: 28
    IRP ID: 0xffff9906bf549010
    IRP USBD_STATUS: USBD_STATUS_SUCCESS (0x00000000)
    URB Function: URB_FUNCTION_GET_DESCRIPTOR_FROM_INTERFACE (0x0028)
    IRP information: 0x00, Direction: FDO -> PDO
        0000 000. = Reserved: 0x00
        .... ...0 = Direction: FDO -> PDO (0x0)
    URB bus id: 1
    Device address: 5
    Endpoint: 0x80, Direction: IN
        1... .... = Direction: IN (1)
        .... 0000 = Endpoint number: 0
    URB transfer type: URB_CONTROL (0x02)
    Packet Data Length: 8
    [Response in: 168]
    Control transfer stage: Setup (0)
    [bInterfaceClass: HID (0x03)]
Setup Data
    bmRequestType: 0x81
        1... .... = Direction: Device-to-host
        .00. .... = Type: Standard (0x0)
        ...0 0001 = Recipient: Interface (0x01)
    bDescriptorIndex: 0x00
    bDescriptorType: HID Report (0x22)
    wInterfaceNumber: 1
    wDescriptorLength: 158

12.111042
0000  1c 00 10 90 54 bf 06 99 ff ff 00 00 00 00 28 00   ....T.........(.
0010  00 01 00 05 00 80 02 08 00 00 00 00 81 06 00 22   ..............."
0020  01 00 9e 00                                       ....

No.     Time           Source                Destination           Protocol Length Info
    168 12.128910      1.5.0                 host                  USBHID   122    GET DESCRIPTOR Response HID Report

Frame 168: Packet, 122 bytes on wire (976 bits), 122 bytes captured (976 bits) on interface \\.\USBPcap1, id 0
    Section number: 1
    Interface id: 0 (\\.\USBPcap1)
        Interface name: \\.\USBPcap1
        Interface description: USBPcap1
    Encapsulation type: USB packets with USBPcap header (152)
    Arrival Time: Dec  5, 2025 16:53:03.333081000 Финляндия (зима)
    UTC Arrival Time: Dec  5, 2025 14:53:03.333081000 UTC
    Epoch Arrival Time: 1764946383.333081000
    [Time shift for this packet: 0.000000000 seconds]
    [Time delta from previous captured frame: 17.868000 milliseconds]
    [Time delta from previous displayed frame: 17.868000 milliseconds]
    [Time since reference or first frame: 12.128910000 seconds]
    Frame Number: 168
    Frame Length: 122 bytes (976 bits)
    Capture Length: 122 bytes (976 bits)
    [Frame is marked: False]
    [Frame is ignored: False]
    [Protocols in frame: usb:usbhid]
    Character encoding: ASCII (0)
USB URB
    [Source: 1.5.0]
    [Destination: host]
    USBPcap pseudoheader length: 28
    IRP ID: 0xffff9906bf549010
    IRP USBD_STATUS: USBD_STATUS_SUCCESS (0x00000000)
    URB Function: URB_FUNCTION_CONTROL_TRANSFER (0x0008)
    IRP information: 0x01, Direction: PDO -> FDO
        0000 000. = Reserved: 0x00
        .... ...1 = Direction: PDO -> FDO (0x1)
    URB bus id: 1
    Device address: 5
    Endpoint: 0x80, Direction: IN
        1... .... = Direction: IN (1)
        .... 0000 = Endpoint number: 0
    URB transfer type: URB_CONTROL (0x02)
    Packet Data Length: 94
    [Request in: 167]
    [Time from request: 17.868000 milliseconds]
    Control transfer stage: Complete (3)
    [bInterfaceClass: HID (0x03)]
HID Report
    Usage Page (Vendor)
        Header
            .... ..10 = bSize: 2 bytes (2)
            .... 01.. = bType: Global (1)
            0000 .... = bTag: Usage Page (0x0)
        Usage Page: Vendor (0xff00)
    Usage (Vendor)
        Header
            .... ..01 = bSize: 1 byte (1)
            .... 10.. = bType: Local (2)
            0000 .... = bTag: Usage (0x0)
        Usage: Vendor (0x0e)
    Collection (Application)
        Header
            .... ..01 = bSize: 1 byte (1)
            .... 00.. = bType: Main (0)
            1010 .... = bTag: Collection (0xa)
        Collection type: Application (0x01)
        Report ID (0xba)
            Header
                .... ..01 = bSize: 1 byte (1)
                .... 01.. = bType: Global (1)
                1000 .... = bTag: Report ID (0x8)
            Report ID: 0xba
        Report Count (31)
            Header
                .... ..01 = bSize: 1 byte (1)
                .... 01.. = bType: Global (1)
                1001 .... = bTag: Report Count (0x9)
            Report count: 31
        Report Size (8)
            Header
                .... ..01 = bSize: 1 byte (1)
                .... 01.. = bType: Global (1)
                0111 .... = bTag: Report Size (0x7)
            Report size: 8
        Logical Maximum (255)
            Header
                .... ..10 = bSize: 2 bytes (2)
                .... 01.. = bType: Global (1)
                0010 .... = bTag: Logical Maximum (0x2)
            Logical maximum: 255
        Logical Minimum (0)
            Header
                .... ..01 = bSize: 1 byte (1)
                .... 01.. = bType: Global (1)
                0001 .... = bTag: Logical Minimum (0x1)
            Logical minimum: 0
        Usage (Vendor)
            Header
                .... ..01 = bSize: 1 byte (1)
                .... 10.. = bType: Local (2)
                0000 .... = bTag: Usage (0x0)
            Usage: Vendor (0x01)
        Output (Data,Var,Abs)
            Header
                .... ..01 = bSize: 1 byte (1)
                .... 00.. = bType: Main (0)
                1001 .... = bTag: Output (0x9)
            .... .... 0 = Data/constant: Data
            .... ...1 . = Data type: Variable
            .... ..0. . = Coordinates: Absolute
            .... .0.. . = Min/max wraparound: No Wrap
            .... 0... . = Physical relationship to data: Linear
            ...0 .... . = Preferred state: Preferred State
            ..0. .... . = Has null position: No Null position
            .0.. .... . = (Non)-volatile: Non Volatile
            0... .... . = Bits or bytes: Buffered bytes (default, no second byte present)
        Report ID (0xba)
            Header
                .... ..01 = bSize: 1 byte (1)
                .... 01.. = bType: Global (1)
                1000 .... = bTag: Report ID (0x8)
            Report ID: 0xba
        Report Count (31)
            Header
                .... ..01 = bSize: 1 byte (1)
                .... 01.. = bType: Global (1)
                1001 .... = bTag: Report Count (0x9)
            Report count: 31
        Report Size (8)
            Header
                .... ..01 = bSize: 1 byte (1)
                .... 01.. = bType: Global (1)
                0111 .... = bTag: Report Size (0x7)
            Report size: 8
        Logical Maximum (255)
            Header
                .... ..10 = bSize: 2 bytes (2)
                .... 01.. = bType: Global (1)
                0010 .... = bTag: Logical Maximum (0x2)
            Logical maximum: 255
        Logical Minimum (0)
            Header
                .... ..01 = bSize: 1 byte (1)
                .... 01.. = bType: Global (1)
                0001 .... = bTag: Logical Minimum (0x1)
            Logical minimum: 0
        Usage (Vendor)
            Header
                .... ..01 = bSize: 1 byte (1)
                .... 10.. = bType: Local (2)
                0000 .... = bTag: Usage (0x0)
            Usage: Vendor (0x01)
        Input (Data,Var,Abs)
            Header
                .... ..01 = bSize: 1 byte (1)
                .... 00.. = bType: Main (0)
                1000 .... = bTag: Input (0x8)
            .... .... 0 = Data/constant: Data
            .... ...1 . = Data type: Variable
            .... ..0. . = Coordinates: Absolute
            .... .0.. . = Min/max wraparound: No Wrap
            .... 0... . = Physical relationship to data: Linear
            ...0 .... . = Preferred state: Preferred State
            ..0. .... . = Has null position: No Null position
            .0.. .... . = [Reserved]: False
            0... .... . = Bits or bytes: Buffered bytes (default, no second byte present)
        End Collection
            Header
                .... ..00 = bSize: 0 bytes (0)
                .... 00.. = bType: Main (0)
                1100 .... = bTag: End Collection (0xc)
    Usage Page (Generic Desktop Controls)
        Header
            .... ..01 = bSize: 1 byte (1)
            .... 01.. = bType: Global (1)
            0000 .... = bTag: Usage Page (0x0)
        Usage Page: Generic Desktop Controls (0x01)
    Usage (System Control)
        Header
            .... ..01 = bSize: 1 byte (1)
            .... 10.. = bType: Local (2)
            0000 .... = bTag: Usage (0x0)
        Usage: System Control (0x80)
    Collection (Application)
        Header
            .... ..01 = bSize: 1 byte (1)
            .... 00.. = bType: Main (0)
            1010 .... = bTag: Collection (0xa)
        Collection type: Application (0x01)
        Report ID (0x02)
            Header
                .... ..01 = bSize: 1 byte (1)
                .... 01.. = bType: Global (1)
                1000 .... = bTag: Report ID (0x8)
            Report ID: 0x02
        Usage Page (Generic Desktop Controls)
            Header
                .... ..01 = bSize: 1 byte (1)
                .... 01.. = bType: Global (1)
                0000 .... = bTag: Usage Page (0x0)
            Usage Page: Generic Desktop Controls (0x01)
        Usage Minimum (0x81)
            Header
                .... ..01 = bSize: 1 byte (1)
                .... 10.. = bType: Local (2)
                0001 .... = bTag: Usage Minimum (0x1)
            Usage minimum: 0x81
        Usage Maximum (0x83)
            Header
                .... ..01 = bSize: 1 byte (1)
                .... 10.. = bType: Local (2)
                0010 .... = bTag: Usage Maximum (0x2)
            Usage maximum: 0x83
        Logical Minimum (0)
            Header
                .... ..01 = bSize: 1 byte (1)
                .... 01.. = bType: Global (1)
                0001 .... = bTag: Logical Minimum (0x1)
            Logical minimum: 0
        Logical Maximum (1)
            Header
                .... ..01 = bSize: 1 byte (1)
                .... 01.. = bType: Global (1)
                0010 .... = bTag: Logical Maximum (0x2)
            Logical maximum: 1
        Report Count (3)
            Header
                .... ..01 = bSize: 1 byte (1)
                .... 01.. = bType: Global (1)
                1001 .... = bTag: Report Count (0x9)
            Report count: 3
        Report Size (1)
            Header
                .... ..01 = bSize: 1 byte (1)
                .... 01.. = bType: Global (1)
                0111 .... = bTag: Report Size (0x7)
            Report size: 1
        Input (Data,Var,Rel)
            Header
                .... ..01 = bSize: 1 byte (1)
                .... 00.. = bType: Main (0)
                1000 .... = bTag: Input (0x8)
            .... .... 0 = Data/constant: Data
            .... ...1 . = Data type: Variable
            .... ..1. . = Coordinates: Relative
            .... .0.. . = Min/max wraparound: No Wrap
            .... 0... . = Physical relationship to data: Linear
            ...0 .... . = Preferred state: Preferred State
            ..0. .... . = Has null position: No Null position
