No.     Time           Source                Destination           Protocol Length Info
    171 11.187878      host                  1.5.0                 USB      36     GET DESCRIPTOR Request DEVICE

Frame 171: Packet, 36 bytes on wire (288 bits), 36 bytes captured (288 bits) on interface \\.\USBPcap1, id 0
    Section number: 1
    Interface id: 0 (\\.\USBPcap1)
        Interface name: \\.\USBPcap1
        Interface description: USBPcap1
    Encapsulation type: USB packets with USBPcap header (152)
    Arrival Time: Dec  5, 2025 18:14:22.488661000 Финляндия (зима)
    UTC Arrival Time: Dec  5, 2025 16:14:22.488661000 UTC
    Epoch Arrival Time: 1764951262.488661000
    [Time shift for this packet: 0.000000000 seconds]
    [Time delta from previous captured frame: 973.000 microseconds]
    [Time since reference or first frame: 11.187878000 seconds]
    Frame Number: 171
    Frame Length: 36 bytes (288 bits)
    Capture Length: 36 bytes (288 bits)
    [Frame is marked: False]
    [Frame is ignored: False]
    [Protocols in frame: usb]
    Character encoding: ASCII (0)
USB URB
    [Source: host]
    [Destination: 1.5.0]
    USBPcap pseudoheader length: 28
    IRP ID: 0xffff990677b2b9e0
    IRP USBD_STATUS: USBD_STATUS_SUCCESS (0x00000000)
    URB Function: URB_FUNCTION_GET_DESCRIPTOR_FROM_DEVICE (0x000b)
    IRP information: 0x00, Direction: FDO -> PDO
        0000 000. = Reserved: 0x00
        .... ...0 = Direction: FDO -> PDO (0x0)
    URB bus id: 1
    Device address: 5
    Endpoint: 0x80, Direction: IN
        1... .... = Direction: IN (1)
        .... 0000 = Endpoint number: 0
    URB transfer type: URB_CONTROL (0x02)
    Packet Data Length: 8
    [Response in: 172]
    Control transfer stage: Setup (0)
Setup Data
    bmRequestType: 0x80
        1... .... = Direction: Device-to-host
        .00. .... = Type: Standard (0x0)
        ...0 0000 = Recipient: Device (0x00)
    bRequest: GET DESCRIPTOR (6)
    Descriptor Index: 0x00
    bDescriptorType: DEVICE (0x01)
    Language Id: no language specified (0x0000)
    wLength: 18

11.187878
0000  1c 00 e0 b9 b2 77 06 99 ff ff 00 00 00 00 0b 00   .....w..........
0010  00 01 00 05 00 80 02 08 00 00 00 00 80 06 00 01   ................
0020  00 00 12 00                                       ....

No.     Time           Source                Destination           Protocol Length Info
    172 11.189919      1.5.0                 host                  USB      46     GET DESCRIPTOR Response DEVICE

Frame 172: Packet, 46 bytes on wire (368 bits), 46 bytes captured (368 bits) on interface \\.\USBPcap1, id 0
    Section number: 1
    Interface id: 0 (\\.\USBPcap1)
        Interface name: \\.\USBPcap1
        Interface description: USBPcap1
    Encapsulation type: USB packets with USBPcap header (152)
    Arrival Time: Dec  5, 2025 18:14:22.490702000 Финляндия (зима)
    UTC Arrival Time: Dec  5, 2025 16:14:22.490702000 UTC
    Epoch Arrival Time: 1764951262.490702000
    [Time shift for this packet: 0.000000000 seconds]
    [Time delta from previous captured frame: 2.041000 milliseconds]
    [Time delta from previous displayed frame: 2.041000 milliseconds]
    [Time since reference or first frame: 11.189919000 seconds]
    Frame Number: 172
    Frame Length: 46 bytes (368 bits)
    Capture Length: 46 bytes (368 bits)
    [Frame is marked: False]
    [Frame is ignored: False]
    [Protocols in frame: usb]
    Character encoding: ASCII (0)
USB URB
    [Source: 1.5.0]
    [Destination: host]
    USBPcap pseudoheader length: 28
    IRP ID: 0xffff990677b2b9e0
    IRP USBD_STATUS: USBD_STATUS_SUCCESS (0x00000000)
    URB Function: URB_FUNCTION_CONTROL_TRANSFER (0x0008)
    IRP information: 0x01, Direction: PDO -> FDO
        0000 000. = Reserved: 0x00
        .... ...1 = Direction: PDO -> FDO (0x1)
    URB bus id: 1
    Device address: 5
    Endpoint: 0x80, Direction: IN
        1... .... = Direction: IN (1)
        .... 0000 = Endpoint number: 0
    URB transfer type: URB_CONTROL (0x02)
    Packet Data Length: 18
    [Request in: 171]
    [Time from request: 2.041000 milliseconds]
    Control transfer stage: Complete (3)
DEVICE DESCRIPTOR
    bLength: 18
    bDescriptorType: 0x01 (DEVICE)
    bcdUSB: 0x0200
    bDeviceClass: Device (0x00)
    bDeviceSubClass: 0
    bDeviceProtocol: 0 (Use class code info from Interface Descriptors)
    bMaxPacketSize0: 64
    idVendor: Shenzhen Rapoo Technology Co., Ltd. (0x24ae)
    idProduct: Unknown (0x2013)
    bcdDevice: 0x0110
    iManufacturer: 1
    iProduct: 2
    iSerialNumber: 0
    bNumConfigurations: 1

11.189919
0000  1c 00 e0 b9 b2 77 06 99 ff ff 00 00 00 00 08 00   .....w..........
0010  01 01 00 05 00 80 02 12 00 00 00 03 12 01 00 02   ................
0020  00 00 00 40 ae 24 13 20 10 01 01 02 00 01         ...@.$. ......

No.     Time           Source                Destination           Protocol Length Info
    173 11.189966      host                  1.5.0                 USB      36     GET DESCRIPTOR Request CONFIGURATION

Frame 173: Packet, 36 bytes on wire (288 bits), 36 bytes captured (288 bits) on interface \\.\USBPcap1, id 0
    Section number: 1
    Interface id: 0 (\\.\USBPcap1)
        Interface name: \\.\USBPcap1
        Interface description: USBPcap1
    Encapsulation type: USB packets with USBPcap header (152)
    Arrival Time: Dec  5, 2025 18:14:22.490749000 Финляндия (зима)
    UTC Arrival Time: Dec  5, 2025 16:14:22.490749000 UTC
    Epoch Arrival Time: 1764951262.490749000
    [Time shift for this packet: 0.000000000 seconds]
    [Time delta from previous captured frame: 47.000 microseconds]
    [Time delta from previous displayed frame: 47.000 microseconds]
    [Time since reference or first frame: 11.189966000 seconds]
    Frame Number: 173
    Frame Length: 36 bytes (288 bits)
    Capture Length: 36 bytes (288 bits)
    [Frame is marked: False]
    [Frame is ignored: False]
    [Protocols in frame: usb]
    Character encoding: ASCII (0)
USB URB
    [Source: host]
    [Destination: 1.5.0]
    USBPcap pseudoheader length: 28
    IRP ID: 0xffff9906bd509050
    IRP USBD_STATUS: USBD_STATUS_SUCCESS (0x00000000)
    URB Function: URB_FUNCTION_GET_DESCRIPTOR_FROM_DEVICE (0x000b)
    IRP information: 0x00, Direction: FDO -> PDO
        0000 000. = Reserved: 0x00
        .... ...0 = Direction: FDO -> PDO (0x0)
    URB bus id: 1
    Device address: 5
    Endpoint: 0x80, Direction: IN
        1... .... = Direction: IN (1)
        .... 0000 = Endpoint number: 0
    URB transfer type: URB_CONTROL (0x02)
    Packet Data Length: 8
    [Response in: 174]
    Control transfer stage: Setup (0)
Setup Data
    bmRequestType: 0x80
        1... .... = Direction: Device-to-host
        .00. .... = Type: Standard (0x0)
        ...0 0000 = Recipient: Device (0x00)
    bRequest: GET DESCRIPTOR (6)
    Descriptor Index: 0x00
    bDescriptorType: CONFIGURATION (0x02)
    Language Id: no language specified (0x0000)
    wLength: 9

11.189966
0000  1c 00 50 90 50 bd 06 99 ff ff 00 00 00 00 0b 00   ..P.P...........
0010  00 01 00 05 00 80 02 08 00 00 00 00 80 06 00 02   ................
0020  00 00 09 00                                       ....

No.     Time           Source                Destination           Protocol Length Info
    174 11.192909      1.5.0                 host                  USB      37     GET DESCRIPTOR Response CONFIGURATION

Frame 174: Packet, 37 bytes on wire (296 bits), 37 bytes captured (296 bits) on interface \\.\USBPcap1, id 0
    Section number: 1
    Interface id: 0 (\\.\USBPcap1)
        Interface name: \\.\USBPcap1
        Interface description: USBPcap1
    Encapsulation type: USB packets with USBPcap header (152)
    Arrival Time: Dec  5, 2025 18:14:22.493692000 Финляндия (зима)
    UTC Arrival Time: Dec  5, 2025 16:14:22.493692000 UTC
    Epoch Arrival Time: 1764951262.493692000
    [Time shift for this packet: 0.000000000 seconds]
    [Time delta from previous captured frame: 2.943000 milliseconds]
    [Time delta from previous displayed frame: 2.943000 milliseconds]
    [Time since reference or first frame: 11.192909000 seconds]
    Frame Number: 174
    Frame Length: 37 bytes (296 bits)
    Capture Length: 37 bytes (296 bits)
    [Frame is marked: False]
    [Frame is ignored: False]
    [Protocols in frame: usb]
    Character encoding: ASCII (0)
USB URB
    [Source: 1.5.0]
    [Destination: host]
    USBPcap pseudoheader length: 28
    IRP ID: 0xffff9906bd509050
    IRP USBD_STATUS: USBD_STATUS_SUCCESS (0x00000000)
    URB Function: URB_FUNCTION_CONTROL_TRANSFER (0x0008)
    IRP information: 0x01, Direction: PDO -> FDO
        0000 000. = Reserved: 0x00
        .... ...1 = Direction: PDO -> FDO (0x1)
    URB bus id: 1
    Device address: 5
    Endpoint: 0x80, Direction: IN
        1... .... = Direction: IN (1)
        .... 0000 = Endpoint number: 0
    URB transfer type: URB_CONTROL (0x02)
    Packet Data Length: 9
    [Request in: 173]
    [Time from request: 2.943000 milliseconds]
    Control transfer stage: Complete (3)
CONFIGURATION DESCRIPTOR
    bLength: 9
    bDescriptorType: 0x02 (CONFIGURATION)
    wTotalLength: 84
    bNumInterfaces: 3
    bConfigurationValue: 1
    iConfiguration: 0
    Configuration bmAttributes: 0xa0  NOT SELF-POWERED  REMOTE-WAKEUP
        1... .... = Must be 1: Must be 1 for USB 1.1 and higher
        .0.. .... = Self-Powered: This device is powered from the USB bus
        ..1. .... = Remote Wakeup: This device supports REMOTE WAKEUP
    bMaxPower: 50  (100mA)

11.192909
0000  1c 00 50 90 50 bd 06 99 ff ff 00 00 00 00 08 00   ..P.P...........
0010  01 01 00 05 00 80 02 09 00 00 00 03 09 02 54 00   ..............T.
0020  03 01 00 a0 32                                    ....2

No.     Time           Source                Destination           Protocol Length Info
    175 11.192938      host                  1.5.0                 USB      36     GET DESCRIPTOR Request CONFIGURATION

Frame 175: Packet, 36 bytes on wire (288 bits), 36 bytes captured (288 bits) on interface \\.\USBPcap1, id 0
    Section number: 1
    Interface id: 0 (\\.\USBPcap1)
        Interface name: \\.\USBPcap1
        Interface description: USBPcap1
    Encapsulation type: USB packets with USBPcap header (152)
    Arrival Time: Dec  5, 2025 18:14:22.493721000 Финляндия (зима)
    UTC Arrival Time: Dec  5, 2025 16:14:22.493721000 UTC
    Epoch Arrival Time: 1764951262.493721000
    [Time shift for this packet: 0.000000000 seconds]
    [Time delta from previous captured frame: 29.000 microseconds]
    [Time delta from previous displayed frame: 29.000 microseconds]
    [Time since reference or first frame: 11.192938000 seconds]
    Frame Number: 175
    Frame Length: 36 bytes (288 bits)
    Capture Length: 36 bytes (288 bits)
    [Frame is marked: False]
    [Frame is ignored: False]
    [Protocols in frame: usb]
    Character encoding: ASCII (0)
USB URB
    [Source: host]
    [Destination: 1.5.0]
    USBPcap pseudoheader length: 28
    IRP ID: 0xffff99067ae779e0
    IRP USBD_STATUS: USBD_STATUS_SUCCESS (0x00000000)
    URB Function: URB_FUNCTION_GET_DESCRIPTOR_FROM_DEVICE (0x000b)
    IRP information: 0x00, Direction: FDO -> PDO
        0000 000. = Reserved: 0x00
        .... ...0 = Direction: FDO -> PDO (0x0)
    URB bus id: 1
    Device address: 5
    Endpoint: 0x80, Direction: IN
        1... .... = Direction: IN (1)
        .... 0000 = Endpoint number: 0
    URB transfer type: URB_CONTROL (0x02)
    Packet Data Length: 8
    [Response in: 176]
    Control transfer stage: Setup (0)
Setup Data
    bmRequestType: 0x80
        1... .... = Direction: Device-to-host
        .00. .... = Type: Standard (0x0)
        ...0 0000 = Recipient: Device (0x00)
    bRequest: GET DESCRIPTOR (6)
    Descriptor Index: 0x00
    bDescriptorType: CONFIGURATION (0x02)
    Language Id: no language specified (0x0000)
    wLength: 84

11.192938
0000  1c 00 e0 79 e7 7a 06 99 ff ff 00 00 00 00 0b 00   ...y.z..........
0010  00 01 00 05 00 80 02 08 00 00 00 00 80 06 00 02   ................
0020  00 00 54 00                                       ..T.

No.     Time           Source                Destination           Protocol Length Info
    176 11.195904      1.5.0                 host                  USB      112    GET DESCRIPTOR Response CONFIGURATION

Frame 176: Packet, 112 bytes on wire (896 bits), 112 bytes captured (896 bits) on interface \\.\USBPcap1, id 0
    Section number: 1
    Interface id: 0 (\\.\USBPcap1)
        Interface name: \\.\USBPcap1
        Interface description: USBPcap1
    Encapsulation type: USB packets with USBPcap header (152)
    Arrival Time: Dec  5, 2025 18:14:22.496687000 Финляндия (зима)
    UTC Arrival Time: Dec  5, 2025 16:14:22.496687000 UTC
    Epoch Arrival Time: 1764951262.496687000
    [Time shift for this packet: 0.000000000 seconds]
    [Time delta from previous captured frame: 2.966000 milliseconds]
    [Time delta from previous displayed frame: 2.966000 milliseconds]
    [Time since reference or first frame: 11.195904000 seconds]
    Frame Number: 176
    Frame Length: 112 bytes (896 bits)
    Capture Length: 112 bytes (896 bits)
    [Frame is marked: False]
    [Frame is ignored: False]
    [Protocols in frame: usb:usbhid:usbhid:usbhid]
    Character encoding: ASCII (0)
USB URB
    [Source: 1.5.0]
    [Destination: host]
    USBPcap pseudoheader length: 28
    IRP ID: 0xffff99067ae779e0
    IRP USBD_STATUS: USBD_STATUS_SUCCESS (0x00000000)
    URB Function: URB_FUNCTION_CONTROL_TRANSFER (0x0008)
    IRP information: 0x01, Direction: PDO -> FDO
        0000 000. = Reserved: 0x00
        .... ...1 = Direction: PDO -> FDO (0x1)
    URB bus id: 1
    Device address: 5
    Endpoint: 0x80, Direction: IN
        1... .... = Direction: IN (1)
        .... 0000 = Endpoint number: 0
    URB transfer type: URB_CONTROL (0x02)
    Packet Data Length: 84
    [Request in: 175]
    [Time from request: 2.966000 milliseconds]
    Control transfer stage: Complete (3)
CONFIGURATION DESCRIPTOR
    bLength: 9
    bDescriptorType: 0x02 (CONFIGURATION)
    wTotalLength: 84
    bNumInterfaces: 3
    bConfigurationValue: 1
    iConfiguration: 0
    Configuration bmAttributes: 0xa0  NOT SELF-POWERED  REMOTE-WAKEUP
        1... .... = Must be 1: Must be 1 for USB 1.1 and higher
        .0.. .... = Self-Powered: This device is powered from the USB bus
        ..1. .... = Remote Wakeup: This device supports REMOTE WAKEUP
    bMaxPower: 50  (100mA)
INTERFACE DESCRIPTOR (0.0): class HID
    bLength: 9
    bDescriptorType: 0x04 (INTERFACE)
    bInterfaceNumber: 0
    bAlternateSetting: 0
    bNumEndpoints: 1
    bInterfaceClass: HID (0x03)
    bInterfaceSubClass: Boot Interface (0x01)
    bInterfaceProtocol: Mouse (0x02)
    iInterface: 0
HID DESCRIPTOR
    bLength: 9
    bDescriptorType: 0x21 (HID)
    bcdHID: 0x0110
    bCountryCode: Not Supported (0x00)
    bNumDescriptors: 1
    bDescriptorType: HID Report (0x22)
    wDescriptorLength: 64
ENDPOINT DESCRIPTOR
    bLength: 7
    bDescriptorType: 0x05 (ENDPOINT)
    bEndpointAddress: 0x81  IN  Endpoint:1
        1... .... = Direction: IN Endpoint
        .... 0001 = Endpoint Number: 0x1
    bmAttributes: 0x03
        .... ..11 = Transfertype: Interrupt-Transfer (0x3)
    wMaxPacketSize: 64
        ...0 0... .... .... = Transactions per microframe: 1 (0)
        .... .000 0100 0000 = Maximum Packet Size: 64
    bInterval: 10
INTERFACE DESCRIPTOR (1.0): class HID
    bLength: 9
    bDescriptorType: 0x04 (INTERFACE)
    bInterfaceNumber: 1
    bAlternateSetting: 0
    bNumEndpoints: 1
    bInterfaceClass: HID (0x03)
    bInterfaceSubClass: Boot Interface (0x01)
    bInterfaceProtocol: Keyboard (0x01)
    iInterface: 0
HID DESCRIPTOR
    bLength: 9
    bDescriptorType: 0x21 (HID)
    bcdHID: 0x0110
    bCountryCode: Not Supported (0x00)
    bNumDescriptors: 1
    bDescriptorType: HID Report (0x22)
    wDescriptorLength: 94
ENDPOINT DESCRIPTOR
    bLength: 7
    bDescriptorType: 0x05 (ENDPOINT)
    bEndpointAddress: 0x82  IN  Endpoint:2
        1... .... = Direction: IN Endpoint
        .... 0010 = Endpoint Number: 0x2
    bmAttributes: 0x03
        .... ..11 = Transfertype: Interrupt-Transfer (0x3)
    wMaxPacketSize: 64
        ...0 0... .... .... = Transactions per microframe: 1 (0)
        .... .000 0100 0000 = Maximum Packet Size: 64
    bInterval: 10
INTERFACE DESCRIPTOR (2.0): class HID
    bLength: 9
    bDescriptorType: 0x04 (INTERFACE)
    bInterfaceNumber: 2
    bAlternateSetting: 0
    bNumEndpoints: 1
    bInterfaceClass: HID (0x03)
    bInterfaceSubClass: Boot Interface (0x01)
    bInterfaceProtocol: Keyboard (0x01)
    iInterface: 0
HID DESCRIPTOR
    bLength: 9
    bDescriptorType: 0x21 (HID)
    bcdHID: 0x0110
    bCountryCode: Not Supported (0x00)
    bNumDescriptors: 1
    bDescriptorType: HID Report (0x22)
    wDescriptorLength: 64
ENDPOINT DESCRIPTOR
    bLength: 7
    bDescriptorType: 0x05 (ENDPOINT)
    bEndpointAddress: 0x83  IN  Endpoint:3
        1... .... = Direction: IN Endpoint
        .... 0011 = Endpoint Number: 0x3
    bmAttributes: 0x03
        .... ..11 = Transfertype: Interrupt-Transfer (0x3)
    wMaxPacketSize: 64
        ...0 0... .... .... = Transactions per microframe: 1 (0)
        .... .000 0100 0000 = Maximum Packet Size: 64
    bInterval: 10

11.195904
0000  1c 00 e0 79 e7 7a 06 99 ff ff 00 00 00 00 08 00   ...y.z..........
0010  01 01 00 05 00 80 02 54 00 00 00 03 09 02 54 00   .......T......T.
0020  03 01 00 a0 32 09 04 00 00 01 03 01 02 00 09 21   ....2..........!
0030  10 01 00 01 22 40 00 07 05 81 03 40 00 0a 09 04   ...."@.....@....
0040  01 00 01 03 01 01 00 09 21 10 01 00 01 22 5e 00   ........!...."^.
0050  07 05 82 03 40 00 0a 09 04 02 00 01 03 01 01 00   ....@...........
0060  09 21 10 01 00 01 22 40 00 07 05 83 03 40 00 0a   .!...."@.....@..

No.     Time           Source                Destination           Protocol Length Info
    177 11.197214      host                  1.5.0                 USB      36     SET CONFIGURATION Request

Frame 177: Packet, 36 bytes on wire (288 bits), 36 bytes captured (288 bits) on interface \\.\USBPcap1, id 0
    Section number: 1
    Interface id: 0 (\\.\USBPcap1)
        Interface name: \\.\USBPcap1
        Interface description: USBPcap1
    Encapsulation type: USB packets with USBPcap header (152)
    Arrival Time: Dec  5, 2025 18:14:22.497997000 Финляндия (зима)
    UTC Arrival Time: Dec  5, 2025 16:14:22.497997000 UTC
    Epoch Arrival Time: 1764951262.497997000
    [Time shift for this packet: 0.000000000 seconds]
    [Time delta from previous captured frame: 1.310000 milliseconds]
    [Time delta from previous displayed frame: 1.310000 milliseconds]
    [Time since reference or first frame: 11.197214000 seconds]
    Frame Number: 177
    Frame Length: 36 bytes (288 bits)
    Capture Length: 36 bytes (288 bits)
    [Frame is marked: False]
    [Frame is ignored: False]
    [Protocols in frame: usb]
    Character encoding: ASCII (0)
USB URB
    [Source: host]
    [Destination: 1.5.0]
    USBPcap pseudoheader length: 28
    IRP ID: 0xffff99069c3a3050
    IRP USBD_STATUS: USBD_STATUS_SUCCESS (0x00000000)
    URB Function: URB_FUNCTION_SELECT_CONFIGURATION (0x0000)
    IRP information: 0x00, Direction: FDO -> PDO
        0000 000. = Reserved: 0x00
        .... ...0 = Direction: FDO -> PDO (0x0)
    URB bus id: 1
    Device address: 5
    Endpoint: 0x00, Direction: OUT
        0... .... = Direction: OUT (0)
        .... 0000 = Endpoint number: 0
    URB transfer type: URB_CONTROL (0x02)
    Packet Data Length: 8
    [Response in: 178]
    Control transfer stage: Setup (0)
Setup Data
    bmRequestType: 0x00
        0... .... = Direction: Host-to-device
        .00. .... = Type: Standard (0x0)
        ...0 0000 = Recipient: Device (0x00)
    bRequest: SET CONFIGURATION (9)
    bConfigurationValue: 1
    wIndex: 0 (0x0000)
    wLength: 0

11.197214
0000  1c 00 50 30 3a 9c 06 99 ff ff 00 00 00 00 00 00   ..P0:...........
0010  00 01 00 05 00 00 02 08 00 00 00 00 00 09 01 00   ................
0020  00 00 00 00                                       ....

No.     Time           Source                Destination           Protocol Length Info
    178 11.210914      1.5.0                 host                  USB      28     SET CONFIGURATION Response

Frame 178: Packet, 28 bytes on wire (224 bits), 28 bytes captured (224 bits) on interface \\.\USBPcap1, id 0
    Section number: 1
    Interface id: 0 (\\.\USBPcap1)
        Interface name: \\.\USBPcap1
        Interface description: USBPcap1
    Encapsulation type: USB packets with USBPcap header (152)
    Arrival Time: Dec  5, 2025 18:14:22.511697000 Финляндия (зима)
    UTC Arrival Time: Dec  5, 2025 16:14:22.511697000 UTC
    Epoch Arrival Time: 1764951262.511697000
    [Time shift for this packet: 0.000000000 seconds]
    [Time delta from previous captured frame: 13.700000 milliseconds]
    [Time delta from previous displayed frame: 13.700000 milliseconds]
    [Time since reference or first frame: 11.210914000 seconds]
    Frame Number: 178
    Frame Length: 28 bytes (224 bits)
    Capture Length: 28 bytes (224 bits)
    [Frame is marked: False]
    [Frame is ignored: False]
    [Protocols in frame: usb]
    Character encoding: ASCII (0)
USB URB
    [Source: 1.5.0]
    [Destination: host]
    USBPcap pseudoheader length: 28
    IRP ID: 0xffff99069c3a3050
    IRP USBD_STATUS: USBD_STATUS_SUCCESS (0x00000000)
    URB Function: URB_FUNCTION_SELECT_CONFIGURATION (0x0000)
    IRP information: 0x01, Direction: PDO -> FDO
        0000 000. = Reserved: 0x00
        .... ...1 = Direction: PDO -> FDO (0x1)
    URB bus id: 1
    Device address: 5
    Endpoint: 0x00, Direction: OUT
        0... .... = Direction: OUT (0)
        .... 0000 = Endpoint number: 0
    URB transfer type: URB_CONTROL (0x02)
    Packet Data Length: 0
    [Request in: 177]
    [Time from request: 13.700000 milliseconds]
    Control transfer stage: Complete (3)

11.210914
0000  1c 00 50 30 3a 9c 06 99 ff ff 00 00 00 00 00 00   ..P0:...........
0010  01 01 00 05 00 00 02 00 00 00 00 03               ............

No.     Time           Source                Destination           Protocol Length Info
    179 11.211007      host                  1.5.0                 USB      27     Unknown type 7f

Frame 179: Packet, 27 bytes on wire (216 bits), 27 bytes captured (216 bits) on interface \\.\USBPcap1, id 0
    Section number: 1
    Interface id: 0 (\\.\USBPcap1)
        Interface name: \\.\USBPcap1
        Interface description: USBPcap1
    Encapsulation type: USB packets with USBPcap header (152)
    Arrival Time: Dec  5, 2025 18:14:22.511790000 Финляндия (зима)
    UTC Arrival Time: Dec  5, 2025 16:14:22.511790000 UTC
    Epoch Arrival Time: 1764951262.511790000
    [Time shift for this packet: 0.000000000 seconds]
    [Time delta from previous captured frame: 93.000 microseconds]
    [Time delta from previous displayed frame: 93.000 microseconds]
    [Time since reference or first frame: 11.211007000 seconds]
    Frame Number: 179
    Frame Length: 27 bytes (216 bits)
    Capture Length: 27 bytes (216 bits)
    [Frame is marked: False]
    [Frame is ignored: False]
    [Protocols in frame: usb]
    Character encoding: ASCII (0)
USB URB
    [Source: host]
    [Destination: 1.5.0]
    USBPcap pseudoheader length: 27
    IRP ID: 0xffff9906add8e010
    IRP USBD_STATUS: USBD_STATUS_SUCCESS (0x00000000)
    URB Function: URB_FUNCTION_GET_MS_FEATURE_DESCRIPTOR (0x002a)
    IRP information: 0x00, Direction: FDO -> PDO
        0000 000. = Reserved: 0x00
        .... ...0 = Direction: FDO -> PDO (0x0)
    URB bus id: 1
    Device address: 5
    Endpoint: 0x00, Direction: OUT
        0... .... = Direction: OUT (0)
        .... 0000 = Endpoint number: 0
    URB transfer type: Unknown (0xff)
        [Expert Info (Error/Malformed): USBPcap did not recognize URB Function code (report to desowin.org/USBPcap)]
            [USBPcap did not recognize URB Function code (report to desowin.org/USBPcap)]
            [Severity level: Error]
            [Group: Malformed]
    Packet Data Length: 0
    [Response in: 180]

11.211007
0000  1b 00 10 e0 d8 ad 06 99 ff ff 00 00 00 00 2a 00   ..............*.
0010  00 01 00 05 00 00 ff 00 00 00 00                  ...........

No.     Time           Source                Destination           Protocol Length Info
    180 11.211012      1.5.0                 host                  USB      27     Unknown type 7f

Frame 180: Packet, 27 bytes on wire (216 bits), 27 bytes captured (216 bits) on interface \\.\USBPcap1, id 0
    Section number: 1
    Interface id: 0 (\\.\USBPcap1)
        Interface name: \\.\USBPcap1
        Interface description: USBPcap1
    Encapsulation type: USB packets with USBPcap header (152)
    Arrival Time: Dec  5, 2025 18:14:22.511795000 Финляндия (зима)
    UTC Arrival Time: Dec  5, 2025 16:14:22.511795000 UTC
    Epoch Arrival Time: 1764951262.511795000
    [Time shift for this packet: 0.000000000 seconds]
    [Time delta from previous captured frame: 5.000 microseconds]
    [Time delta from previous displayed frame: 5.000 microseconds]
    [Time since reference or first frame: 11.211012000 seconds]
    Frame Number: 180
    Frame Length: 27 bytes (216 bits)
    Capture Length: 27 bytes (216 bits)
    [Frame is marked: False]
    [Frame is ignored: False]
    [Protocols in frame: usb]
    Character encoding: ASCII (0)
USB URB
    [Source: 1.5.0]
    [Destination: host]
    USBPcap pseudoheader length: 27
    IRP ID: 0xffff9906add8e010
    IRP USBD_STATUS: USBD_STATUS_SUCCESS (0x00000000)
    URB Function: URB_FUNCTION_GET_MS_FEATURE_DESCRIPTOR (0x002a)
    IRP information: 0x01, Direction: PDO -> FDO
        0000 000. = Reserved: 0x00
        .... ...1 = Direction: PDO -> FDO (0x1)
    URB bus id: 1
    Device address: 5
    Endpoint: 0x00, Direction: OUT
        0... .... = Direction: OUT (0)
        .... 0000 = Endpoint number: 0
    URB transfer type: Unknown (0xff)
        [Expert Info (Error/Malformed): USBPcap did not recognize URB Function code (report to desowin.org/USBPcap)]
            [USBPcap did not recognize URB Function code (report to desowin.org/USBPcap)]
            [Severity level: Error]
            [Group: Malformed]
    Packet Data Length: 0
    [Request in: 179]
    [Time from request: 5.000 microseconds]

11.211012
0000  1b 00 10 e0 d8 ad 06 99 ff ff 00 00 00 00 2a 00   ..............*.
0010  01 01 00 05 00 00 ff 00 00 00 00                  ...........

No.     Time           Source                Destination           Protocol Length Info
    181 11.211021      host                  1.5.0                 USB      27     Unknown type 7f

Frame 181: Packet, 27 bytes on wire (216 bits), 27 bytes captured (216 bits) on interface \\.\USBPcap1, id 0
    Section number: 1
    Interface id: 0 (\\.\USBPcap1)
        Interface name: \\.\USBPcap1
        Interface description: USBPcap1
    Encapsulation type: USB packets with USBPcap header (152)
    Arrival Time: Dec  5, 2025 18:14:22.511804000 Финляндия (зима)
    UTC Arrival Time: Dec  5, 2025 16:14:22.511804000 UTC
    Epoch Arrival Time: 1764951262.511804000
    [Time shift for this packet: 0.000000000 seconds]
    [Time delta from previous captured frame: 9.000 microseconds]
    [Time delta from previous displayed frame: 9.000 microseconds]
    [Time since reference or first frame: 11.211021000 seconds]
    Frame Number: 181
    Frame Length: 27 bytes (216 bits)
    Capture Length: 27 bytes (216 bits)
    [Frame is marked: False]
    [Frame is ignored: False]
    [Protocols in frame: usb]
    Character encoding: ASCII (0)
USB URB
    [Source: host]
    [Destination: 1.5.0]
    USBPcap pseudoheader length: 27
    IRP ID: 0xffff9906add8e010
    IRP USBD_STATUS: USBD_STATUS_SUCCESS (0x00000000)
    URB Function: URB_FUNCTION_GET_MS_FEATURE_DESCRIPTOR (0x002a)
    IRP information: 0x00, Direction: FDO -> PDO
        0000 000. = Reserved: 0x00
        .... ...0 = Direction: FDO -> PDO (0x0)
    URB bus id: 1
    Device address: 5
    Endpoint: 0x00, Direction: OUT
        0... .... = Direction: OUT (0)
        .... 0000 = Endpoint number: 0
    URB transfer type: Unknown (0xff)
        [Expert Info (Error/Malformed): USBPcap did not recognize URB Function code (report to desowin.org/USBPcap)]
            [USBPcap did not recognize URB Function code (report to desowin.org/USBPcap)]
            [Severity level: Error]
            [Group: Malformed]
    Packet Data Length: 0
    [Response in: 182]

11.211021
0000  1b 00 10 e0 d8 ad 06 99 ff ff 00 00 00 00 2a 00   ..............*.
0010  00 01 00 05 00 00 ff 00 00 00 00                  ...........

No.     Time           Source                Destination           Protocol Length Info
    182 11.211023      1.5.0                 host                  USB      27     Unknown type 7f

Frame 182: Packet, 27 bytes on wire (216 bits), 27 bytes captured (216 bits) on interface \\.\USBPcap1, id 0
    Section number: 1
    Interface id: 0 (\\.\USBPcap1)
        Interface name: \\.\USBPcap1
        Interface description: USBPcap1
    Encapsulation type: USB packets with USBPcap header (152)
    Arrival Time: Dec  5, 2025 18:14:22.511806000 Финляндия (зима)
    UTC Arrival Time: Dec  5, 2025 16:14:22.511806000 UTC
    Epoch Arrival Time: 1764951262.511806000
    [Time shift for this packet: 0.000000000 seconds]
    [Time delta from previous captured frame: 2.000 microseconds]
    [Time delta from previous displayed frame: 2.000 microseconds]
    [Time since reference or first frame: 11.211023000 seconds]
    Frame Number: 182
    Frame Length: 27 bytes (216 bits)
    Capture Length: 27 bytes (216 bits)
    [Frame is marked: False]
    [Frame is ignored: False]
    [Protocols in frame: usb]
    Character encoding: ASCII (0)
USB URB
    [Source: 1.5.0]
    [Destination: host]
    USBPcap pseudoheader length: 27
    IRP ID: 0xffff9906add8e010
    IRP USBD_STATUS: USBD_STATUS_SUCCESS (0x00000000)
    URB Function: URB_FUNCTION_GET_MS_FEATURE_DESCRIPTOR (0x002a)
    IRP information: 0x01, Direction: PDO -> FDO
        0000 000. = Reserved: 0x00
        .... ...1 = Direction: PDO -> FDO (0x1)
    URB bus id: 1
    Device address: 5
    Endpoint: 0x00, Direction: OUT
        0... .... = Direction: OUT (0)
        .... 0000 = Endpoint number: 0
    URB transfer type: Unknown (0xff)
        [Expert Info (Error/Malformed): USBPcap did not recognize URB Function code (report to desowin.org/USBPcap)]
            [USBPcap did not recognize URB Function code (report to desowin.org/USBPcap)]
            [Severity level: Error]
            [Group: Malformed]
    Packet Data Length: 0
    [Request in: 181]
    [Time from request: 2.000 microseconds]

11.211023
0000  1b 00 10 e0 d8 ad 06 99 ff ff 00 00 00 00 2a 00   ..............*.
0010  01 01 00 05 00 00 ff 00 00 00 00                  ...........

No.     Time           Source                Destination           Protocol Length Info
    183 11.212102      host                  1.5.0                 USB      36     GET DESCRIPTOR Request STRING

Frame 183: Packet, 36 bytes on wire (288 bits), 36 bytes captured (288 bits) on interface \\.\USBPcap1, id 0
    Section number: 1
    Interface id: 0 (\\.\USBPcap1)
        Interface name: \\.\USBPcap1
        Interface description: USBPcap1
    Encapsulation type: USB packets with USBPcap header (152)
    Arrival Time: Dec  5, 2025 18:14:22.512885000 Финляндия (зима)
    UTC Arrival Time: Dec  5, 2025 16:14:22.512885000 UTC
    Epoch Arrival Time: 1764951262.512885000
    [Time shift for this packet: 0.000000000 seconds]
    [Time delta from previous captured frame: 1.079000 milliseconds]
    [Time delta from previous displayed frame: 1.079000 milliseconds]
    [Time since reference or first frame: 11.212102000 seconds]
    Frame Number: 183
    Frame Length: 36 bytes (288 bits)
    Capture Length: 36 bytes (288 bits)
    [Frame is marked: False]
    [Frame is ignored: False]
    [Protocols in frame: usb]
    Character encoding: ASCII (0)
USB URB
    [Source: host]
    [Destination: 1.5.0]
    USBPcap pseudoheader length: 28
    IRP ID: 0xffff990681989660
    IRP USBD_STATUS: USBD_STATUS_SUCCESS (0x00000000)
    URB Function: URB_FUNCTION_GET_DESCRIPTOR_FROM_DEVICE (0x000b)
    IRP information: 0x00, Direction: FDO -> PDO
        0000 000. = Reserved: 0x00
        .... ...0 = Direction: FDO -> PDO (0x0)
    URB bus id: 1
    Device address: 5
    Endpoint: 0x80, Direction: IN
        1... .... = Direction: IN (1)
        .... 0000 = Endpoint number: 0
    URB transfer type: URB_CONTROL (0x02)
    Packet Data Length: 8
    [Response in: 184]
    Control transfer stage: Setup (0)
Setup Data
    bmRequestType: 0x80
        1... .... = Direction: Device-to-host
        .00. .... = Type: Standard (0x0)
        ...0 0000 = Recipient: Device (0x00)
    bRequest: GET DESCRIPTOR (6)
    Descriptor Index: 0x02
    bDescriptorType: STRING (0x03)
    Language Id: English (United States) (0x0409)
    wLength: 4

11.212102
0000  1c 00 60 96 98 81 06 99 ff ff 00 00 00 00 0b 00   ..`.............
0010  00 01 00 05 00 80 02 08 00 00 00 00 80 06 02 03   ................
0020  09 04 04 00                                       ....

No.     Time           Source                Destination           Protocol Length Info
    184 11.213950      1.5.0                 host                  USB      32     GET DESCRIPTOR Response STRING

Frame 184: Packet, 32 bytes on wire (256 bits), 32 bytes captured (256 bits) on interface \\.\USBPcap1, id 0
    Section number: 1
    Interface id: 0 (\\.\USBPcap1)
        Interface name: \\.\USBPcap1
        Interface description: USBPcap1
    Encapsulation type: USB packets with USBPcap header (152)
    Arrival Time: Dec  5, 2025 18:14:22.514733000 Финляндия (зима)
    UTC Arrival Time: Dec  5, 2025 16:14:22.514733000 UTC
    Epoch Arrival Time: 1764951262.514733000
    [Time shift for this packet: 0.000000000 seconds]
    [Time delta from previous captured frame: 1.848000 milliseconds]
    [Time delta from previous displayed frame: 1.848000 milliseconds]
    [Time since reference or first frame: 11.213950000 seconds]
    Frame Number: 184
    Frame Length: 32 bytes (256 bits)
    Capture Length: 32 bytes (256 bits)
    [Frame is marked: False]
    [Frame is ignored: False]
    [Protocols in frame: usb]
    Character encoding: ASCII (0)
USB URB
    [Source: 1.5.0]
    [Destination: host]
    USBPcap pseudoheader length: 28
    IRP ID: 0xffff990681989660
    IRP USBD_STATUS: USBD_STATUS_SUCCESS (0x00000000)
    URB Function: URB_FUNCTION_CONTROL_TRANSFER (0x0008)
    IRP information: 0x01, Direction: PDO -> FDO
        0000 000. = Reserved: 0x00
        .... ...1 = Direction: PDO -> FDO (0x1)
    URB bus id: 1
    Device address: 5
    Endpoint: 0x80, Direction: IN
        1... .... = Direction: IN (1)
        .... 0000 = Endpoint number: 0
    URB transfer type: URB_CONTROL (0x02)
    Packet Data Length: 4
    [Request in: 183]
    [Time from request: 1.848000 milliseconds]
    Control transfer stage: Complete (3)
STRING DESCRIPTOR
    bLength: 54
    bDescriptorType: 0x03 (STRING)
    bString: R

11.213950
0000  1c 00 60 96 98 81 06 99 ff ff 00 00 00 00 08 00   ..`.............
0010  01 01 00 05 00 80 02 04 00 00 00 03 36 03 52 00   ............6.R.

No.     Time           Source                Destination           Protocol Length Info
    185 11.213994      host                  1.5.0                 USB      36     GET DESCRIPTOR Request STRING

Frame 185: Packet, 36 bytes on wire (288 bits), 36 bytes captured (288 bits) on interface \\.\USBPcap1, id 0
    Section number: 1
    Interface id: 0 (\\.\USBPcap1)
        Interface name: \\.\USBPcap1
        Interface description: USBPcap1
    Encapsulation type: USB packets with USBPcap header (152)
    Arrival Time: Dec  5, 2025 18:14:22.514777000 Финляндия (зима)
    UTC Arrival Time: Dec  5, 2025 16:14:22.514777000 UTC
    Epoch Arrival Time: 1764951262.514777000
    [Time shift for this packet: 0.000000000 seconds]
    [Time delta from previous captured frame: 44.000 microseconds]
    [Time delta from previous displayed frame: 44.000 microseconds]
    [Time since reference or first frame: 11.213994000 seconds]
    Frame Number: 185
    Frame Length: 36 bytes (288 bits)
    Capture Length: 36 bytes (288 bits)
    [Frame is marked: False]
    [Frame is ignored: False]
    [Protocols in frame: usb]
    Character encoding: ASCII (0)
USB URB
    [Source: host]
    [Destination: 1.5.0]
    USBPcap pseudoheader length: 28
    IRP ID: 0xffff990681989660
    IRP USBD_STATUS: USBD_STATUS_SUCCESS (0x00000000)
    URB Function: URB_FUNCTION_GET_DESCRIPTOR_FROM_DEVICE (0x000b)
    IRP information: 0x00, Direction: FDO -> PDO
        0000 000. = Reserved: 0x00
        .... ...0 = Direction: FDO -> PDO (0x0)
    URB bus id: 1
    Device address: 5
    Endpoint: 0x80, Direction: IN
        1... .... = Direction: IN (1)
        .... 0000 = Endpoint number: 0
    URB transfer type: URB_CONTROL (0x02)
    Packet Data Length: 8
    [Response in: 186]
    Control transfer stage: Setup (0)
Setup Data
    bmRequestType: 0x80
        1... .... = Direction: Device-to-host
        .00. .... = Type: Standard (0x0)
        ...0 0000 = Recipient: Device (0x00)
    bRequest: GET DESCRIPTOR (6)
    Descriptor Index: 0x02
    bDescriptorType: STRING (0x03)
    Language Id: English (United States) (0x0409)
    wLength: 54

11.213994
0000  1c 00 60 96 98 81 06 99 ff ff 00 00 00 00 0b 00   ..`.............
0010  00 01 00 05 00 80 02 08 00 00 00 00 80 06 02 03   ................
0020  09 04 36 00                                       ..6.

No.     Time           Source                Destination           Protocol Length Info
    186 11.216914      1.5.0                 host                  USB      82     GET DESCRIPTOR Response STRING

Frame 186: Packet, 82 bytes on wire (656 bits), 82 bytes captured (656 bits) on interface \\.\USBPcap1, id 0
    Section number: 1
    Interface id: 0 (\\.\USBPcap1)
        Interface name: \\.\USBPcap1
        Interface description: USBPcap1
    Encapsulation type: USB packets with USBPcap header (152)
    Arrival Time: Dec  5, 2025 18:14:22.517697000 Финляндия (зима)
    UTC Arrival Time: Dec  5, 2025 16:14:22.517697000 UTC
    Epoch Arrival Time: 1764951262.517697000
    [Time shift for this packet: 0.000000000 seconds]
    [Time delta from previous captured frame: 2.920000 milliseconds]
    [Time delta from previous displayed frame: 2.920000 milliseconds]
    [Time since reference or first frame: 11.216914000 seconds]
    Frame Number: 186
    Frame Length: 82 bytes (656 bits)
    Capture Length: 82 bytes (656 bits)
    [Frame is marked: False]
    [Frame is ignored: False]
    [Protocols in frame: usb]
    Character encoding: ASCII (0)
USB URB
    [Source: 1.5.0]
    [Destination: host]
    USBPcap pseudoheader length: 28
    IRP ID: 0xffff990681989660
    IRP USBD_STATUS: USBD_STATUS_SUCCESS (0x00000000)
    URB Function: URB_FUNCTION_CONTROL_TRANSFER (0x0008)
    IRP information: 0x01, Direction: PDO -> FDO
        0000 000. = Reserved: 0x00
        .... ...1 = Direction: PDO -> FDO (0x1)
    URB bus id: 1
    Device address: 5
    Endpoint: 0x80, Direction: IN
        1... .... = Direction: IN (1)
        .... 0000 = Endpoint number: 0
    URB transfer type: URB_CONTROL (0x02)
    Packet Data Length: 54
    [Request in: 185]
    [Time from request: 2.920000 milliseconds]
    Control transfer stage: Complete (3)
STRING DESCRIPTOR
    bLength: 54
    bDescriptorType: 0x03 (STRING)
    bString: Rapoo 2.4G Wireless Device

11.216914
0000  1c 00 60 96 98 81 06 99 ff ff 00 00 00 00 08 00   ..`.............
0010  01 01 00 05 00 80 02 36 00 00 00 03 36 03 52 00   .......6....6.R.
0020  61 00 70 00 6f 00 6f 00 20 00 32 00 2e 00 34 00   a.p.o.o. .2...4.
0030  47 00 20 00 57 00 69 00 72 00 65 00 6c 00 65 00   G. .W.i.r.e.l.e.
0040  73 00 73 00 20 00 44 00 65 00 76 00 69 00 63 00   s.s. .D.e.v.i.c.
0050  65 00                                             e.

No.     Time           Source                Destination           Protocol Length Info
    187 11.218545      host                  1.5.0                 USB      36     GET DESCRIPTOR Request STRING

Frame 187: Packet, 36 bytes on wire (288 bits), 36 bytes captured (288 bits) on interface \\.\USBPcap1, id 0
    Section number: 1
    Interface id: 0 (\\.\USBPcap1)
        Interface name: \\.\USBPcap1
        Interface description: USBPcap1
    Encapsulation type: USB packets with USBPcap header (152)
    Arrival Time: Dec  5, 2025 18:14:22.519328000 Финляндия (зима)
    UTC Arrival Time: Dec  5, 2025 16:14:22.519328000 UTC
    Epoch Arrival Time: 1764951262.519328000
    [Time shift for this packet: 0.000000000 seconds]
    [Time delta from previous captured frame: 1.631000 milliseconds]
    [Time delta from previous displayed frame: 1.631000 milliseconds]
    [Time since reference or first frame: 11.218545000 seconds]
    Frame Number: 187
    Frame Length: 36 bytes (288 bits)
    Capture Length: 36 bytes (288 bits)
    [Frame is marked: False]
    [Frame is ignored: False]
    [Protocols in frame: usb]
    Character encoding: ASCII (0)
USB URB
    [Source: host]
    [Destination: 1.5.0]
    USBPcap pseudoheader length: 28
    IRP ID: 0xffff9906706fc010
    IRP USBD_STATUS: USBD_STATUS_SUCCESS (0x00000000)
    URB Function: URB_FUNCTION_GET_DESCRIPTOR_FROM_DEVICE (0x000b)
    IRP information: 0x00, Direction: FDO -> PDO
        0000 000. = Reserved: 0x00
        .... ...0 = Direction: FDO -> PDO (0x0)
    URB bus id: 1
    Device address: 5
    Endpoint: 0x80, Direction: IN
        1... .... = Direction: IN (1)
        .... 0000 = Endpoint number: 0
    URB transfer type: URB_CONTROL (0x02)
    Packet Data Length: 8
    [Response in: 188]
    Control transfer stage: Setup (0)
Setup Data
    bmRequestType: 0x80
        1... .... = Direction: Device-to-host
        .00. .... = Type: Standard (0x0)
        ...0 0000 = Recipient: Device (0x00)
    bRequest: GET DESCRIPTOR (6)
    Descriptor Index: 0x02
    bDescriptorType: STRING (0x03)
    Language Id: English (United States) (0x0409)
    wLength: 4

11.218545
0000  1c 00 10 c0 6f 70 06 99 ff ff 00 00 00 00 0b 00   ....op..........
0010  00 01 00 05 00 80 02 08 00 00 00 00 80 06 02 03   ................
0020  09 04 04 00                                       ....

No.     Time           Source                Destination           Protocol Length Info
    188 11.219909      1.5.0                 host                  USB      32     GET DESCRIPTOR Response STRING

Frame 188: Packet, 32 bytes on wire (256 bits), 32 bytes captured (256 bits) on interface \\.\USBPcap1, id 0
    Section number: 1
    Interface id: 0 (\\.\USBPcap1)
        Interface name: \\.\USBPcap1
        Interface description: USBPcap1
    Encapsulation type: USB packets with USBPcap header (152)
    Arrival Time: Dec  5, 2025 18:14:22.520692000 Финляндия (зима)
    UTC Arrival Time: Dec  5, 2025 16:14:22.520692000 UTC
    Epoch Arrival Time: 1764951262.520692000
    [Time shift for this packet: 0.000000000 seconds]
    [Time delta from previous captured frame: 1.364000 milliseconds]
    [Time delta from previous displayed frame: 1.364000 milliseconds]
    [Time since reference or first frame: 11.219909000 seconds]
    Frame Number: 188
    Frame Length: 32 bytes (256 bits)
    Capture Length: 32 bytes (256 bits)
    [Frame is marked: False]
    [Frame is ignored: False]
    [Protocols in frame: usb]
    Character encoding: ASCII (0)
USB URB
    [Source: 1.5.0]
    [Destination: host]
    USBPcap pseudoheader length: 28
    IRP ID: 0xffff9906706fc010
    IRP USBD_STATUS: USBD_STATUS_SUCCESS (0x00000000)
    URB Function: URB_FUNCTION_CONTROL_TRANSFER (0x0008)
    IRP information: 0x01, Direction: PDO -> FDO
        0000 000. = Reserved: 0x00
        .... ...1 = Direction: PDO -> FDO (0x1)
    URB bus id: 1
    Device address: 5
    Endpoint: 0x80, Direction: IN
        1... .... = Direction: IN (1)
        .... 0000 = Endpoint number: 0
    URB transfer type: URB_CONTROL (0x02)
    Packet Data Length: 4
    [Request in: 187]
    [Time from request: 1.364000 milliseconds]
    Control transfer stage: Complete (3)
STRING DESCRIPTOR
    bLength: 54
    bDescriptorType: 0x03 (STRING)
    bString: R

11.219909
0000  1c 00 10 c0 6f 70 06 99 ff ff 00 00 00 00 08 00   ....op..........
0010  01 01 00 05 00 80 02 04 00 00 00 03 36 03 52 00   ............6.R.

No.     Time           Source                Destination           Protocol Length Info
    189 11.219939      host                  1.5.0                 USB      36     GET DESCRIPTOR Request STRING

Frame 189: Packet, 36 bytes on wire (288 bits), 36 bytes captured (288 bits) on interface \\.\USBPcap1, id 0
    Section number: 1
    Interface id: 0 (\\.\USBPcap1)
        Interface name: \\.\USBPcap1
        Interface description: USBPcap1
    Encapsulation type: USB packets with USBPcap header (152)
    Arrival Time: Dec  5, 2025 18:14:22.520722000 Финляндия (зима)
    UTC Arrival Time: Dec  5, 2025 16:14:22.520722000 UTC
    Epoch Arrival Time: 1764951262.520722000
    [Time shift for this packet: 0.000000000 seconds]
    [Time delta from previous captured frame: 30.000 microseconds]
    [Time delta from previous displayed frame: 30.000 microseconds]
    [Time since reference or first frame: 11.219939000 seconds]
    Frame Number: 189
    Frame Length: 36 bytes (288 bits)
    Capture Length: 36 bytes (288 bits)
    [Frame is marked: False]
    [Frame is ignored: False]
    [Protocols in frame: usb]
    Character encoding: ASCII (0)
USB URB
    [Source: host]
    [Destination: 1.5.0]
    USBPcap pseudoheader length: 28
    IRP ID: 0xffff99067ae779e0
    IRP USBD_STATUS: USBD_STATUS_SUCCESS (0x00000000)
    URB Function: URB_FUNCTION_GET_DESCRIPTOR_FROM_DEVICE (0x000b)
    IRP information: 0x00, Direction: FDO -> PDO
        0000 000. = Reserved: 0x00
        .... ...0 = Direction: FDO -> PDO (0x0)
    URB bus id: 1
    Device address: 5
    Endpoint: 0x80, Direction: IN
        1... .... = Direction: IN (1)
        .... 0000 = Endpoint number: 0
    URB transfer type: URB_CONTROL (0x02)
    Packet Data Length: 8
    [Response in: 190]
    Control transfer stage: Setup (0)
Setup Data
    bmRequestType: 0x80
        1... .... = Direction: Device-to-host
        .00. .... = Type: Standard (0x0)
        ...0 0000 = Recipient: Device (0x00)
    bRequest: GET DESCRIPTOR (6)
    Descriptor Index: 0x02
    bDescriptorType: STRING (0x03)
    Language Id: English (United States) (0x0409)
    wLength: 54

11.219939
0000  1c 00 e0 79 e7 7a 06 99 ff ff 00 00 00 00 0b 00   ...y.z..........
0010  00 01 00 05 00 80 02 08 00 00 00 00 80 06 02 03   ................
0020  09 04 36 00                                       ..6.

No.     Time           Source                Destination           Protocol Length Info
    190 11.227909      1.5.0                 host                  USB      82     GET DESCRIPTOR Response STRING

Frame 190: Packet, 82 bytes on wire (656 bits), 82 bytes captured (656 bits) on interface \\.\USBPcap1, id 0
    Section number: 1
    Interface id: 0 (\\.\USBPcap1)
        Interface name: \\.\USBPcap1
        Interface description: USBPcap1
    Encapsulation type: USB packets with USBPcap header (152)
    Arrival Time: Dec  5, 2025 18:14:22.528692000 Финляндия (зима)
    UTC Arrival Time: Dec  5, 2025 16:14:22.528692000 UTC
    Epoch Arrival Time: 1764951262.528692000
    [Time shift for this packet: 0.000000000 seconds]
    [Time delta from previous captured frame: 7.970000 milliseconds]
    [Time delta from previous displayed frame: 7.970000 milliseconds]
    [Time since reference or first frame: 11.227909000 seconds]
    Frame Number: 190
    Frame Length: 82 bytes (656 bits)
    Capture Length: 82 bytes (656 bits)
    [Frame is marked: False]
    [Frame is ignored: False]
    [Protocols in frame: usb]
    Character encoding: ASCII (0)
USB URB
    [Source: 1.5.0]
    [Destination: host]
    USBPcap pseudoheader length: 28
    IRP ID: 0xffff99067ae779e0
    IRP USBD_STATUS: USBD_STATUS_SUCCESS (0x00000000)
    URB Function: URB_FUNCTION_CONTROL_TRANSFER (0x0008)
    IRP information: 0x01, Direction: PDO -> FDO
        0000 000. = Reserved: 0x00
        .... ...1 = Direction: PDO -> FDO (0x1)
    URB bus id: 1
    Device address: 5
    Endpoint: 0x80, Direction: IN
        1... .... = Direction: IN (1)
        .... 0000 = Endpoint number: 0
    URB transfer type: URB_CONTROL (0x02)
    Packet Data Length: 54
    [Request in: 189]
    [Time from request: 7.970000 milliseconds]
    Control transfer stage: Complete (3)
STRING DESCRIPTOR
    bLength: 54
    bDescriptorType: 0x03 (STRING)
    bString: Rapoo 2.4G Wireless Device

11.227909
0000  1c 00 e0 79 e7 7a 06 99 ff ff 00 00 00 00 08 00   ...y.z..........
0010  01 01 00 05 00 80 02 36 00 00 00 03 36 03 52 00   .......6....6.R.
0020  61 00 70 00 6f 00 6f 00 20 00 32 00 2e 00 34 00   a.p.o.o. .2...4.
0030  47 00 20 00 57 00 69 00 72 00 65 00 6c 00 65 00   G. .W.i.r.e.l.e.
0040  73 00 73 00 20 00 44 00 65 00 76 00 69 00 63 00   s.s. .D.e.v.i.c.
0050  65 00                                             e.

No.     Time           Source                Destination           Protocol Length Info
    191 11.229468      host                  1.5.0                 USB      36     GET DESCRIPTOR Request STRING

Frame 191: Packet, 36 bytes on wire (288 bits), 36 bytes captured (288 bits) on interface \\.\USBPcap1, id 0
    Section number: 1
    Interface id: 0 (\\.\USBPcap1)
        Interface name: \\.\USBPcap1
        Interface description: USBPcap1
    Encapsulation type: USB packets with USBPcap header (152)
    Arrival Time: Dec  5, 2025 18:14:22.530251000 Финляндия (зима)
    UTC Arrival Time: Dec  5, 2025 16:14:22.530251000 UTC
    Epoch Arrival Time: 1764951262.530251000
    [Time shift for this packet: 0.000000000 seconds]
    [Time delta from previous captured frame: 1.559000 milliseconds]
    [Time delta from previous displayed frame: 1.559000 milliseconds]
    [Time since reference or first frame: 11.229468000 seconds]
    Frame Number: 191
    Frame Length: 36 bytes (288 bits)
    Capture Length: 36 bytes (288 bits)
    [Frame is marked: False]
    [Frame is ignored: False]
    [Protocols in frame: usb]
    Character encoding: ASCII (0)
USB URB
    [Source: host]
    [Destination: 1.5.0]
    USBPcap pseudoheader length: 28
    IRP ID: 0xffff9906a9085010
    IRP USBD_STATUS: USBD_STATUS_SUCCESS (0x00000000)
    URB Function: URB_FUNCTION_GET_DESCRIPTOR_FROM_DEVICE (0x000b)
    IRP information: 0x00, Direction: FDO -> PDO
        0000 000. = Reserved: 0x00
        .... ...0 = Direction: FDO -> PDO (0x0)
    URB bus id: 1
    Device address: 5
    Endpoint: 0x80, Direction: IN
        1... .... = Direction: IN (1)
        .... 0000 = Endpoint number: 0
    URB transfer type: URB_CONTROL (0x02)
    Packet Data Length: 8
    [Response in: 192]
    Control transfer stage: Setup (0)
Setup Data
    bmRequestType: 0x80
        1... .... = Direction: Device-to-host
        .00. .... = Type: Standard (0x0)
        ...0 0000 = Recipient: Device (0x00)
    bRequest: GET DESCRIPTOR (6)
    Descriptor Index: 0x02
    bDescriptorType: STRING (0x03)
    Language Id: English (United States) (0x0409)
    wLength: 4

11.229468
0000  1c 00 10 50 08 a9 06 99 ff ff 00 00 00 00 0b 00   ...P............
0010  00 01 00 05 00 80 02 08 00 00 00 00 80 06 02 03   ................
0020  09 04 04 00                                       ....

No.     Time           Source                Destination           Protocol Length Info
    192 11.230908      1.5.0                 host                  USB      32     GET DESCRIPTOR Response STRING

Frame 192: Packet, 32 bytes on wire (256 bits), 32 bytes captured (256 bits) on interface \\.\USBPcap1, id 0
    Section number: 1
    Interface id: 0 (\\.\USBPcap1)
        Interface name: \\.\USBPcap1
        Interface description: USBPcap1
    Encapsulation type: USB packets with USBPcap header (152)
    Arrival Time: Dec  5, 2025 18:14:22.531691000 Финляндия (зима)
    UTC Arrival Time: Dec  5, 2025 16:14:22.531691000 UTC
    Epoch Arrival Time: 1764951262.531691000
    [Time shift for this packet: 0.000000000 seconds]
    [Time delta from previous captured frame: 1.440000 milliseconds]
    [Time delta from previous displayed frame: 1.440000 milliseconds]
    [Time since reference or first frame: 11.230908000 seconds]
    Frame Number: 192
    Frame Length: 32 bytes (256 bits)
    Capture Length: 32 bytes (256 bits)
    [Frame is marked: False]
    [Frame is ignored: False]
    [Protocols in frame: usb]
    Character encoding: ASCII (0)
USB URB
    [Source: 1.5.0]
    [Destination: host]
    USBPcap pseudoheader length: 28
    IRP ID: 0xffff9906a9085010
    IRP USBD_STATUS: USBD_STATUS_SUCCESS (0x00000000)
    URB Function: URB_FUNCTION_CONTROL_TRANSFER (0x0008)
    IRP information: 0x01, Direction: PDO -> FDO
        0000 000. = Reserved: 0x00
        .... ...1 = Direction: PDO -> FDO (0x1)
    URB bus id: 1
    Device address: 5
    Endpoint: 0x80, Direction: IN
        1... .... = Direction: IN (1)
        .... 0000 = Endpoint number: 0
    URB transfer type: URB_CONTROL (0x02)
    Packet Data Length: 4
    [Request in: 191]
    [Time from request: 1.440000 milliseconds]
    Control transfer stage: Complete (3)
STRING DESCRIPTOR
    bLength: 54
    bDescriptorType: 0x03 (STRING)
    bString: R

11.230908
0000  1c 00 10 50 08 a9 06 99 ff ff 00 00 00 00 08 00   ...P............
0010  01 01 00 05 00 80 02 04 00 00 00 03 36 03 52 00   ............6.R.

No.     Time           Source                Destination           Protocol Length Info
    193 11.230940      host                  1.5.0                 USB      36     GET DESCRIPTOR Request STRING

Frame 193: Packet, 36 bytes on wire (288 bits), 36 bytes captured (288 bits) on interface \\.\USBPcap1, id 0
    Section number: 1
    Interface id: 0 (\\.\USBPcap1)
        Interface name: \\.\USBPcap1
        Interface description: USBPcap1
    Encapsulation type: USB packets with USBPcap header (152)
    Arrival Time: Dec  5, 2025 18:14:22.531723000 Финляндия (зима)
    UTC Arrival Time: Dec  5, 2025 16:14:22.531723000 UTC
    Epoch Arrival Time: 1764951262.531723000
    [Time shift for this packet: 0.000000000 seconds]
    [Time delta from previous captured frame: 32.000 microseconds]
    [Time delta from previous displayed frame: 32.000 microseconds]
    [Time since reference or first frame: 11.230940000 seconds]
    Frame Number: 193
    Frame Length: 36 bytes (288 bits)
    Capture Length: 36 bytes (288 bits)
    [Frame is marked: False]
    [Frame is ignored: False]
    [Protocols in frame: usb]
    Character encoding: ASCII (0)
USB URB
    [Source: host]
    [Destination: 1.5.0]
    USBPcap pseudoheader length: 28
    IRP ID: 0xffff9906add8e010
    IRP USBD_STATUS: USBD_STATUS_SUCCESS (0x00000000)
    URB Function: URB_FUNCTION_GET_DESCRIPTOR_FROM_DEVICE (0x000b)
    IRP information: 0x00, Direction: FDO -> PDO
        0000 000. = Reserved: 0x00
        .... ...0 = Direction: FDO -> PDO (0x0)
    URB bus id: 1
    Device address: 5
    Endpoint: 0x80, Direction: IN
        1... .... = Direction: IN (1)
        .... 0000 = Endpoint number: 0
    URB transfer type: URB_CONTROL (0x02)
    Packet Data Length: 8
    [Response in: 194]
    Control transfer stage: Setup (0)
Setup Data
    bmRequestType: 0x80
        1... .... = Direction: Device-to-host
        .00. .... = Type: Standard (0x0)
        ...0 0000 = Recipient: Device (0x00)
    bRequest: GET DESCRIPTOR (6)
    Descriptor Index: 0x02
    bDescriptorType: STRING (0x03)
    Language Id: English (United States) (0x0409)
    wLength: 54

11.230940
0000  1c 00 10 e0 d8 ad 06 99 ff ff 00 00 00 00 0b 00   ................
0010  00 01 00 05 00 80 02 08 00 00 00 00 80 06 02 03   ................
0020  09 04 36 00                                       ..6.

No.     Time           Source                Destination           Protocol Length Info
    194 11.233910      1.5.0                 host                  USB      82     GET DESCRIPTOR Response STRING

Frame 194: Packet, 82 bytes on wire (656 bits), 82 bytes captured (656 bits) on interface \\.\USBPcap1, id 0
    Section number: 1
    Interface id: 0 (\\.\USBPcap1)
        Interface name: \\.\USBPcap1
        Interface description: USBPcap1
    Encapsulation type: USB packets with USBPcap header (152)
    Arrival Time: Dec  5, 2025 18:14:22.534693000 Финляндия (зима)
    UTC Arrival Time: Dec  5, 2025 16:14:22.534693000 UTC
    Epoch Arrival Time: 1764951262.534693000
    [Time shift for this packet: 0.000000000 seconds]
    [Time delta from previous captured frame: 2.970000 milliseconds]
    [Time delta from previous displayed frame: 2.970000 milliseconds]
    [Time since reference or first frame: 11.233910000 seconds]
    Frame Number: 194
    Frame Length: 82 bytes (656 bits)
    Capture Length: 82 bytes (656 bits)
    [Frame is marked: False]
    [Frame is ignored: False]
    [Protocols in frame: usb]
    Character encoding: ASCII (0)
USB URB
    [Source: 1.5.0]
    [Destination: host]
    USBPcap pseudoheader length: 28
    IRP ID: 0xffff9906add8e010
    IRP USBD_STATUS: USBD_STATUS_SUCCESS (0x00000000)
    URB Function: URB_FUNCTION_CONTROL_TRANSFER (0x0008)
    IRP information: 0x01, Direction: PDO -> FDO
        0000 000. = Reserved: 0x00
        .... ...1 = Direction: PDO -> FDO (0x1)
    URB bus id: 1
    Device address: 5
    Endpoint: 0x80, Direction: IN
        1... .... = Direction: IN (1)
        .... 0000 = Endpoint number: 0
    URB transfer type: URB_CONTROL (0x02)
    Packet Data Length: 54
    [Request in: 193]
    [Time from request: 2.970000 milliseconds]
    Control transfer stage: Complete (3)
STRING DESCRIPTOR
    bLength: 54
    bDescriptorType: 0x03 (STRING)
    bString: Rapoo 2.4G Wireless Device

11.233910
0000  1c 00 10 e0 d8 ad 06 99 ff ff 00 00 00 00 08 00   ................
0010  01 01 00 05 00 80 02 36 00 00 00 03 36 03 52 00   .......6....6.R.
0020  61 00 70 00 6f 00 6f 00 20 00 32 00 2e 00 34 00   a.p.o.o. .2...4.
0030  47 00 20 00 57 00 69 00 72 00 65 00 6c 00 65 00   G. .W.i.r.e.l.e.
0040  73 00 73 00 20 00 44 00 65 00 76 00 69 00 63 00   s.s. .D.e.v.i.c.
0050  65 00                                             e.

No.     Time           Source                Destination           Protocol Length Info
    195 11.235865      host                  1.5.0                 USBHID   36     SET_IDLE Request

Frame 195: Packet, 36 bytes on wire (288 bits), 36 bytes captured (288 bits) on interface \\.\USBPcap1, id 0
    Section number: 1
    Interface id: 0 (\\.\USBPcap1)
        Interface name: \\.\USBPcap1
        Interface description: USBPcap1
    Encapsulation type: USB packets with USBPcap header (152)
    Arrival Time: Dec  5, 2025 18:14:22.536648000 Финляндия (зима)
    UTC Arrival Time: Dec  5, 2025 16:14:22.536648000 UTC
    Epoch Arrival Time: 1764951262.536648000
    [Time shift for this packet: 0.000000000 seconds]
    [Time delta from previous captured frame: 1.955000 milliseconds]
    [Time delta from previous displayed frame: 1.955000 milliseconds]
    [Time since reference or first frame: 11.235865000 seconds]
    Frame Number: 195
    Frame Length: 36 bytes (288 bits)
    Capture Length: 36 bytes (288 bits)
    [Frame is marked: False]
    [Frame is ignored: False]
    [Protocols in frame: usb:usbhid]
    Character encoding: ASCII (0)
USB URB
    [Source: host]
    [Destination: 1.5.0]
    USBPcap pseudoheader length: 28
    IRP ID: 0xffff990677b2b9e0
    IRP USBD_STATUS: USBD_STATUS_SUCCESS (0x00000000)
    URB Function: URB_FUNCTION_CLASS_INTERFACE (0x001b)
    IRP information: 0x00, Direction: FDO -> PDO
        0000 000. = Reserved: 0x00
        .... ...0 = Direction: FDO -> PDO (0x0)
    URB bus id: 1
    Device address: 5
    Endpoint: 0x00, Direction: OUT
        0... .... = Direction: OUT (0)
        .... 0000 = Endpoint number: 0
    URB transfer type: URB_CONTROL (0x02)
    Packet Data Length: 8
    [Response in: 196]
    Control transfer stage: Setup (0)
    [bInterfaceClass: HID (0x03)]
Setup Data
    bmRequestType: 0x21
        0... .... = Direction: Host-to-device
        .01. .... = Type: Class (0x1)
        ...0 0001 = Recipient: Interface (0x01)
    bRequest: SET_IDLE (0x0a)
    wValue: 0x0000
        ReportID: 0
        Duration: 0
    wIndex: 0
    wLength: 0

11.235865
0000  1c 00 e0 b9 b2 77 06 99 ff ff 00 00 00 00 1b 00   .....w..........
0010  00 01 00 05 00 00 02 08 00 00 00 00 21 0a 00 00   ............!...
0020  00 00 00 00                                       ....

No.     Time           Source                Destination           Protocol Length Info
    196 11.252911      1.5.0                 host                  USBHID   28     SET_IDLE Response

Frame 196: Packet, 28 bytes on wire (224 bits), 28 bytes captured (224 bits) on interface \\.\USBPcap1, id 0
    Section number: 1
    Interface id: 0 (\\.\USBPcap1)
        Interface name: \\.\USBPcap1
        Interface description: USBPcap1
    Encapsulation type: USB packets with USBPcap header (152)
    Arrival Time: Dec  5, 2025 18:14:22.553694000 Финляндия (зима)
    UTC Arrival Time: Dec  5, 2025 16:14:22.553694000 UTC
    Epoch Arrival Time: 1764951262.553694000
    [Time shift for this packet: 0.000000000 seconds]
    [Time delta from previous captured frame: 17.046000 milliseconds]
    [Time delta from previous displayed frame: 17.046000 milliseconds]
    [Time since reference or first frame: 11.252911000 seconds]
    Frame Number: 196
    Frame Length: 28 bytes (224 bits)
    Capture Length: 28 bytes (224 bits)
    [Frame is marked: False]
    [Frame is ignored: False]
    [Protocols in frame: usb]
    Character encoding: ASCII (0)
USB URB
    [Source: 1.5.0]
    [Destination: host]
    USBPcap pseudoheader length: 28
    IRP ID: 0xffff990677b2b9e0
    IRP USBD_STATUS: USBD_STATUS_SUCCESS (0x00000000)
    URB Function: URB_FUNCTION_CONTROL_TRANSFER (0x0008)
    IRP information: 0x01, Direction: PDO -> FDO
        0000 000. = Reserved: 0x00
        .... ...1 = Direction: PDO -> FDO (0x1)
    URB bus id: 1
    Device address: 5
    Endpoint: 0x00, Direction: OUT
        0... .... = Direction: OUT (0)
        .... 0000 = Endpoint number: 0
    URB transfer type: URB_CONTROL (0x02)
    Packet Data Length: 0
    [Request in: 195]
    [Time from request: 17.046000 milliseconds]
    Control transfer stage: Complete (3)
    [bInterfaceClass: HID (0x03)]

11.252911
0000  1c 00 e0 b9 b2 77 06 99 ff ff 00 00 00 00 08 00   .....w..........
0010  01 01 00 05 00 00 02 00 00 00 00 03               ............

No.     Time           Source                Destination           Protocol Length Info
    197 11.253020      host                  1.5.0                 USBHID   36     GET DESCRIPTOR Request HID Report

Frame 197: Packet, 36 bytes on wire (288 bits), 36 bytes captured (288 bits) on interface \\.\USBPcap1, id 0
    Section number: 1
    Interface id: 0 (\\.\USBPcap1)
        Interface name: \\.\USBPcap1
        Interface description: USBPcap1
    Encapsulation type: USB packets with USBPcap header (152)
    Arrival Time: Dec  5, 2025 18:14:22.553803000 Финляндия (зима)
    UTC Arrival Time: Dec  5, 2025 16:14:22.553803000 UTC
    Epoch Arrival Time: 1764951262.553803000
    [Time shift for this packet: 0.000000000 seconds]
    [Time delta from previous captured frame: 109.000 microseconds]
    [Time delta from previous displayed frame: 109.000 microseconds]
    [Time since reference or first frame: 11.253020000 seconds]
    Frame Number: 197
    Frame Length: 36 bytes (288 bits)
    Capture Length: 36 bytes (288 bits)
    [Frame is marked: False]
    [Frame is ignored: False]
    [Protocols in frame: usb:usbhid]
    Character encoding: ASCII (0)
USB URB
    [Source: host]
    [Destination: 1.5.0]
    USBPcap pseudoheader length: 28
    IRP ID: 0xffff9906bd509050
    IRP USBD_STATUS: USBD_STATUS_SUCCESS (0x00000000)
    URB Function: URB_FUNCTION_GET_DESCRIPTOR_FROM_INTERFACE (0x0028)
    IRP information: 0x00, Direction: FDO -> PDO
        0000 000. = Reserved: 0x00
        .... ...0 = Direction: FDO -> PDO (0x0)
    URB bus id: 1
    Device address: 5
    Endpoint: 0x80, Direction: IN
        1... .... = Direction: IN (1)
        .... 0000 = Endpoint number: 0
    URB transfer type: URB_CONTROL (0x02)
    Packet Data Length: 8
    [Response in: 198]
    Control transfer stage: Setup (0)
    [bInterfaceClass: HID (0x03)]
Setup Data
    bmRequestType: 0x81
        1... .... = Direction: Device-to-host
        .00. .... = Type: Standard (0x0)
        ...0 0001 = Recipient: Interface (0x01)
    bDescriptorIndex: 0x00
    bDescriptorType: HID Report (0x22)
    wInterfaceNumber: 0
    wDescriptorLength: 128

11.253020
0000  1c 00 50 90 50 bd 06 99 ff ff 00 00 00 00 28 00   ..P.P.........(.
0010  00 01 00 05 00 80 02 08 00 00 00 00 81 06 00 22   ..............."
0020  00 00 80 00                                       ....

No.     Time           Source                Destination           Protocol Length Info
    198 11.270908      1.5.0                 host                  USBHID   92     GET DESCRIPTOR Response HID Report

Frame 198: Packet, 92 bytes on wire (736 bits), 92 bytes captured (736 bits) on interface \\.\USBPcap1, id 0
    Section number: 1
    Interface id: 0 (\\.\USBPcap1)
        Interface name: \\.\USBPcap1
        Interface description: USBPcap1
    Encapsulation type: USB packets with USBPcap header (152)
    Arrival Time: Dec  5, 2025 18:14:22.571691000 Финляндия (зима)
    UTC Arrival Time: Dec  5, 2025 16:14:22.571691000 UTC
    Epoch Arrival Time: 1764951262.571691000
    [Time shift for this packet: 0.000000000 seconds]
    [Time delta from previous captured frame: 17.888000 milliseconds]
    [Time delta from previous displayed frame: 17.888000 milliseconds]
    [Time since reference or first frame: 11.270908000 seconds]
    Frame Number: 198
    Frame Length: 92 bytes (736 bits)
    Capture Length: 92 bytes (736 bits)
    [Frame is marked: False]
    [Frame is ignored: False]
    [Protocols in frame: usb:usbhid]
    Character encoding: ASCII (0)
USB URB
    [Source: 1.5.0]
    [Destination: host]
    USBPcap pseudoheader length: 28
    IRP ID: 0xffff9906bd509050
    IRP USBD_STATUS: USBD_STATUS_SUCCESS (0x00000000)
    URB Function: URB_FUNCTION_CONTROL_TRANSFER (0x0008)
    IRP information: 0x01, Direction: PDO -> FDO
        0000 000. = Reserved: 0x00
        .... ...1 = Direction: PDO -> FDO (0x1)
    URB bus id: 1
    Device address: 5
    Endpoint: 0x80, Direction: IN
        1... .... = Direction: IN (1)
        .... 0000 = Endpoint number: 0
    URB transfer type: URB_CONTROL (0x02)
    Packet Data Length: 64
    [Request in: 197]
    [Time from request: 17.888000 milliseconds]
    Control transfer stage: Complete (3)
    [bInterfaceClass: HID (0x03)]
HID Report
    Usage Page (Generic Desktop Controls)
        Header
            .... ..01 = bSize: 1 byte (1)
            .... 01.. = bType: Global (1)
            0000 .... = bTag: Usage Page (0x0)
        Usage Page: Generic Desktop Controls (0x01)
    Usage (Mouse)
        Header
            .... ..01 = bSize: 1 byte (1)
            .... 10.. = bType: Local (2)
            0000 .... = bTag: Usage (0x0)
        Usage: Mouse (0x02)
    Collection (Application)
        Header
            .... ..01 = bSize: 1 byte (1)
            .... 00.. = bType: Main (0)
            1010 .... = bTag: Collection (0xa)
        Collection type: Application (0x01)
        Usage (Pointer)
            Header
                .... ..01 = bSize: 1 byte (1)
                .... 10.. = bType: Local (2)
                0000 .... = bTag: Usage (0x0)
            Usage: Pointer (0x01)
        Collection (Physical)
            Header
                .... ..01 = bSize: 1 byte (1)
                .... 00.. = bType: Main (0)
                1010 .... = bTag: Collection (0xa)
            Collection type: Physical (0x00)
            Usage Page (Button)
                Header
                    .... ..01 = bSize: 1 byte (1)
                    .... 01.. = bType: Global (1)
                    0000 .... = bTag: Usage Page (0x0)
                Usage Page: Button (0x09)
            Usage Minimum (0x01)
                Header
                    .... ..01 = bSize: 1 byte (1)
                    .... 10.. = bType: Local (2)
                    0001 .... = bTag: Usage Minimum (0x1)
                Usage minimum: 0x01
            Usage Maximum (0x05)
                Header
                    .... ..01 = bSize: 1 byte (1)
                    .... 10.. = bType: Local (2)
                    0010 .... = bTag: Usage Maximum (0x2)
                Usage maximum: 0x05
            Logical Minimum (0)
                Header
                    .... ..01 = bSize: 1 byte (1)
                    .... 01.. = bType: Global (1)
                    0001 .... = bTag: Logical Minimum (0x1)
                Logical minimum: 0
            Logical Maximum (1)
                Header
                    .... ..01 = bSize: 1 byte (1)
                    .... 01.. = bType: Global (1)
                    0010 .... = bTag: Logical Maximum (0x2)
                Logical maximum: 1
            Report Count (5)
                Header
                    .... ..01 = bSize: 1 byte (1)
                    .... 01.. = bType: Global (1)
                    1001 .... = bTag: Report Count (0x9)
                Report count: 5
            Report Size (1)
                Header
                    .... ..01 = bSize: 1 byte (1)
                    .... 01.. = bType: Global (1)
                    0111 .... = bTag: Report Size (0x7)
                Report size: 1
            Input (Data,Var,Abs)
                Header
                    .... ..01 = bSize: 1 byte (1)
                    .... 00.. = bType: Main (0)
                    1000 .... = bTag: Input (0x8)
                .... .... 0 = Data/constant: Data
                .... ...1 . = Data type: Variable
                .... ..0. . = Coordinates: Absolute
                .... .0.. . = Min/max wraparound: No Wrap
                .... 0... . = Physical relationship to data: Linear
                ...0 .... . = Preferred state: Preferred State
                ..0. .... . = Has null position: No Null position
                .0.. .... . = [Reserved]: False
                0... .... . = Bits or bytes: Buffered bytes (default, no second byte present)
            Report Count (1)
                Header
                    .... ..01 = bSize: 1 byte (1)
                    .... 01.. = bType: Global (1)
                    1001 .... = bTag: Report Count (0x9)
                Report count: 1
            Report Size (3)
                Header
                    .... ..01 = bSize: 1 byte (1)
                    .... 01.. = bType: Global (1)
                    0111 .... = bTag: Report Size (0x7)
                Report size: 3
            Input (Const,Var,Abs)
                Header
                    .... ..01 = bSize: 1 byte (1)
                    .... 00.. = bType: Main (0)
                    1000 .... = bTag: Input (0x8)
                .... .... 1 = Data/constant: Constant
                .... ...1 . = Data type: Variable
                .... ..0. . = Coordinates: Absolute
                .... .0.. . = Min/max wraparound: No Wrap
                .... 0... . = Physical relationship to data: Linear
                ...0 .... . = Preferred state: Preferred State
                ..0. .... . = Has null position: No Null position
                .0.. .... . = [Reserved]: False
                0... .... . = Bits or bytes: Buffered bytes (default, no second byte present)
            Usage Page (Generic Desktop Controls)
                Header
                    .... ..01 = bSize: 1 byte (1)
                    .... 01.. = bType: Global (1)
                    0000 .... = bTag: Usage Page (0x0)
                Usage Page: Generic Desktop Controls (0x01)
            Usage (X)
                Header
                    .... ..01 = bSize: 1 byte (1)
                    .... 10.. = bType: Local (2)
                    0000 .... = bTag: Usage (0x0)
                Usage: X (0x30)
            Usage (Y)
                Header
                    .... ..01 = bSize: 1 byte (1)
                    .... 10.. = bType: Local (2)
                    0000 .... = bTag: Usage (0x0)
                Usage: Y (0x31)
            Logical Minimum (-32767)
                Header
                    .... ..10 = bSize: 2 bytes (2)
                    .... 01.. = bType: Global (1)
                    0001 .... = bTag: Logical Minimum (0x1)
                Logical minimum: -32767
            Logical Maximum (32767)
                Header
                    .... ..10 = bSize: 2 bytes (2)
                    .... 01.. = bType: Global (1)
                    0010 .... = bTag: Logical Maximum (0x2)
                Logical maximum: 32767
            Report Size (16)
                Header
                    .... ..01 = bSize: 1 byte (1)
                    .... 01.. = bType: Global (1)
                    0111 .... = bTag: Report Size (0x7)
                Report size: 16
            Report Count (2)
                Header
                    .... ..01 = bSize: 1 byte (1)
                    .... 01.. = bType: Global (1)
                    1001 .... = bTag: Report Count (0x9)
                Report count: 2
            Input (Data,Var,Rel)
                Header
                    .... ..01 = bSize: 1 byte (1)
                    .... 00.. = bType: Main (0)
                    1000 .... = bTag: Input (0x8)
                .... .... 0 = Data/constant: Data
                .... ...1 . = Data type: Variable
                .... ..1. . = Coordinates: Relative
                .... .0.. . = Min/max wraparound: No Wrap
                .... 0... . = Physical relationship to data: Linear
                ...0 .... . = Preferred state: Preferred State
                ..0. .... . = Has null position: No Null position
                .0.. .... . = [Reserved]: False
                0... .... . = Bits or bytes: Buffered bytes (default, no second byte present)
            Usage (Wheel)
                Header
                    .... ..01 = bSize: 1 byte (1)
                    .... 10.. = bType: Local (2)
                    0000 .... = bTag: Usage (0x0)
                Usage: Wheel (0x38)
            Logical Minimum (-127)
                Header
                    .... ..01 = bSize: 1 byte (1)
                    .... 01.. = bType: Global (1)
                    0001 .... = bTag: Logical Minimum (0x1)
                Logical minimum: -127
            Logical Maximum (127)
                Header
                    .... ..01 = bSize: 1 byte (1)
                    .... 01.. = bType: Global (1)
                    0010 .... = bTag: Logical Maximum (0x2)
                Logical maximum: 127
            Report Size (8)
                Header
                    .... ..01 = bSize: 1 byte (1)
                    .... 01.. = bType: Global (1)
                    0111 .... = bTag: Report Size (0x7)
                Report size: 8
            Report Count (1)
                Header
                    .... ..01 = bSize: 1 byte (1)
                    .... 01.. = bType: Global (1)
                    1001 .... = bTag: Report Count (0x9)
                Report count: 1
            Input (Data,Var,Rel)
                Header
                    .... ..01 = bSize: 1 byte (1)
                    .... 00.. = bType: Main (0)
                    1000 .... = bTag: Input (0x8)
                .... .... 0 = Data/constant: Data
                .... ...1 . = Data type: Variable
                .... ..1. . = Coordinates: Relative
                .... .0.. . = Min/max wraparound: No Wrap
                .... 0... . = Physical relationship to data: Linear
                ...0 .... . = Preferred state: Preferred State
                ..0. .... . = Has null position: No Null position
                .0.. .... . = [Reserved]: False
                0... .... . = Bits or bytes: Buffered bytes (default, no second byte present)
            End Collection
                Header
                    .... ..00 = bSize: 0 bytes (0)
                    .... 00.. = bType: Main (0)
                    1100 .... = bTag: End Collection (0xc)
        End Collection
            Header
                .... ..00 = bSize: 0 bytes (0)
                .... 00.. = bType: Main (0)
                1100 .... = bTag: End Collection (0xc)

11.270908
0000  1c 00 50 90 50 bd 06 99 ff ff 00 00 00 00 08 00   ..P.P...........
0010  01 01 00 05 00 80 02 40 00 00 00 03 05 01 09 02   .......@........
0020  a1 01 09 01 a1 00 05 09 19 01 29 05 15 00 25 01   ..........)...%.
0030  95 05 75 01 81 02 95 01 75 03 81 03 05 01 09 30   ..u.....u......0
0040  09 31 16 01 80 26 ff 7f 75 10 95 02 81 06 09 38   .1...&..u......8
0050  15 81 25 7f 75 08 95 01 81 06 c0 c0               ..%.u.......

No.     Time           Source                Destination           Protocol Length Info
    199 11.272562      host                  1.5.1                 USB      27     URB_INTERRUPT in

Frame 199: Packet, 27 bytes on wire (216 bits), 27 bytes captured (216 bits) on interface \\.\USBPcap1, id 0
    Section number: 1
    Interface id: 0 (\\.\USBPcap1)
        Interface name: \\.\USBPcap1
        Interface description: USBPcap1
    Encapsulation type: USB packets with USBPcap header (152)
    Arrival Time: Dec  5, 2025 18:14:22.573345000 Финляндия (зима)
    UTC Arrival Time: Dec  5, 2025 16:14:22.573345000 UTC
    Epoch Arrival Time: 1764951262.573345000
    [Time shift for this packet: 0.000000000 seconds]
    [Time delta from previous captured frame: 1.654000 milliseconds]
    [Time delta from previous displayed frame: 1.654000 milliseconds]
    [Time since reference or first frame: 11.272562000 seconds]
    Frame Number: 199
    Frame Length: 27 bytes (216 bits)
    Capture Length: 27 bytes (216 bits)
    [Frame is marked: False]
    [Frame is ignored: False]
    [Protocols in frame: usb]
    Character encoding: ASCII (0)
USB URB
    [Source: host]
    [Destination: 1.5.1]
    USBPcap pseudoheader length: 27
    IRP ID: 0xffff990697085050
    IRP USBD_STATUS: USBD_STATUS_SUCCESS (0x00000000)
    URB Function: URB_FUNCTION_BULK_OR_INTERRUPT_TRANSFER (0x0009)
    IRP information: 0x00, Direction: FDO -> PDO
        0000 000. = Reserved: 0x00
        .... ...0 = Direction: FDO -> PDO (0x0)
    URB bus id: 1
    Device address: 5
    Endpoint: 0x81, Direction: IN
        1... .... = Direction: IN (1)
        .... 0001 = Endpoint number: 1
    URB transfer type: URB_INTERRUPT (0x01)
    Packet Data Length: 0
    [Response in: 381]
    [bInterfaceClass: HID (0x03)]

11.272562
0000  1b 00 50 50 08 97 06 99 ff ff 00 00 00 00 09 00   ..PP............
0010  00 01 00 05 00 81 01 00 00 00 00                  ...........

No.     Time           Source                Destination           Protocol Length Info
    200 11.272593      host                  1.5.1                 USB      27     URB_INTERRUPT in

Frame 200: Packet, 27 bytes on wire (216 bits), 27 bytes captured (216 bits) on interface \\.\USBPcap1, id 0
    Section number: 1
    Interface id: 0 (\\.\USBPcap1)
        Interface name: \\.\USBPcap1
        Interface description: USBPcap1
    Encapsulation type: USB packets with USBPcap header (152)
    Arrival Time: Dec  5, 2025 18:14:22.573376000 Финляндия (зима)
    UTC Arrival Time: Dec  5, 2025 16:14:22.573376000 UTC
    Epoch Arrival Time: 1764951262.573376000
    [Time shift for this packet: 0.000000000 seconds]
    [Time delta from previous captured frame: 31.000 microseconds]
    [Time delta from previous displayed frame: 31.000 microseconds]
    [Time since reference or first frame: 11.272593000 seconds]
    Frame Number: 200
    Frame Length: 27 bytes (216 bits)
    Capture Length: 27 bytes (216 bits)
    [Frame is marked: False]
    [Frame is ignored: False]
    [Protocols in frame: usb]
    Character encoding: ASCII (0)
USB URB
    [Source: host]
    [Destination: 1.5.1]
    USBPcap pseudoheader length: 27
    IRP ID: 0xffff99069922e0d0
    IRP USBD_STATUS: USBD_STATUS_SUCCESS (0x00000000)
    URB Function: URB_FUNCTION_BULK_OR_INTERRUPT_TRANSFER (0x0009)
    IRP information: 0x00, Direction: FDO -> PDO
        0000 000. = Reserved: 0x00
        .... ...0 = Direction: FDO -> PDO (0x0)
    URB bus id: 1
    Device address: 5
    Endpoint: 0x81, Direction: IN
        1... .... = Direction: IN (1)
        .... 0001 = Endpoint number: 1
    URB transfer type: URB_INTERRUPT (0x01)
    Packet Data Length: 0
    [Response in: 383]
    [bInterfaceClass: HID (0x03)]

11.272593
0000  1b 00 d0 e0 22 99 06 99 ff ff 00 00 00 00 09 00   ...."...........
0010  00 01 00 05 00 81 01 00 00 00 00                  ...........

No.     Time           Source                Destination           Protocol Length Info
    201 11.274602      host                  1.5.0                 USBHID   36     SET_IDLE Request

Frame 201: Packet, 36 bytes on wire (288 bits), 36 bytes captured (288 bits) on interface \\.\USBPcap1, id 0
    Section number: 1
    Interface id: 0 (\\.\USBPcap1)
        Interface name: \\.\USBPcap1
        Interface description: USBPcap1
    Encapsulation type: USB packets with USBPcap header (152)
    Arrival Time: Dec  5, 2025 18:14:22.575385000 Финляндия (зима)
    UTC Arrival Time: Dec  5, 2025 16:14:22.575385000 UTC
    Epoch Arrival Time: 1764951262.575385000
    [Time shift for this packet: 0.000000000 seconds]
    [Time delta from previous captured frame: 2.009000 milliseconds]
    [Time delta from previous displayed frame: 2.009000 milliseconds]
    [Time since reference or first frame: 11.274602000 seconds]
    Frame Number: 201
    Frame Length: 36 bytes (288 bits)
    Capture Length: 36 bytes (288 bits)
    [Frame is marked: False]
    [Frame is ignored: False]
    [Protocols in frame: usb:usbhid]
    Character encoding: ASCII (0)
USB URB
    [Source: host]
    [Destination: 1.5.0]
    USBPcap pseudoheader length: 28
    IRP ID: 0xffff99069c809010
    IRP USBD_STATUS: USBD_STATUS_SUCCESS (0x00000000)
    URB Function: URB_FUNCTION_CLASS_INTERFACE (0x001b)
    IRP information: 0x00, Direction: FDO -> PDO
        0000 000. = Reserved: 0x00
        .... ...0 = Direction: FDO -> PDO (0x0)
    URB bus id: 1
    Device address: 5
    Endpoint: 0x00, Direction: OUT
        0... .... = Direction: OUT (0)
        .... 0000 = Endpoint number: 0
    URB transfer type: URB_CONTROL (0x02)
    Packet Data Length: 8
    [Response in: 202]
    Control transfer stage: Setup (0)
    [bInterfaceClass: HID (0x03)]
Setup Data
    bmRequestType: 0x21
        0... .... = Direction: Host-to-device
        .01. .... = Type: Class (0x1)
        ...0 0001 = Recipient: Interface (0x01)
    bRequest: SET_IDLE (0x0a)
    wValue: 0x0000
        ReportID: 0
        Duration: 0
    wIndex: 1
    wLength: 0

11.274602
0000  1c 00 10 90 80 9c 06 99 ff ff 00 00 00 00 1b 00   ................
0010  00 01 00 05 00 00 02 08 00 00 00 00 21 0a 00 00   ............!...
0020  01 00 00 00                                       ....

No.     Time           Source                Destination           Protocol Length Info
    202 11.291914      1.5.0                 host                  USBHID   28     SET_IDLE Response

Frame 202: Packet, 28 bytes on wire (224 bits), 28 bytes captured (224 bits) on interface \\.\USBPcap1, id 0
    Section number: 1
    Interface id: 0 (\\.\USBPcap1)
        Interface name: \\.\USBPcap1
        Interface description: USBPcap1
    Encapsulation type: USB packets with USBPcap header (152)
    Arrival Time: Dec  5, 2025 18:14:22.592697000 Финляндия (зима)
    UTC Arrival Time: Dec  5, 2025 16:14:22.592697000 UTC
    Epoch Arrival Time: 1764951262.592697000
    [Time shift for this packet: 0.000000000 seconds]
    [Time delta from previous captured frame: 17.312000 milliseconds]
    [Time delta from previous displayed frame: 17.312000 milliseconds]
    [Time since reference or first frame: 11.291914000 seconds]
    Frame Number: 202
    Frame Length: 28 bytes (224 bits)
    Capture Length: 28 bytes (224 bits)
    [Frame is marked: False]
    [Frame is ignored: False]
    [Protocols in frame: usb]
    Character encoding: ASCII (0)
USB URB
    [Source: 1.5.0]
    [Destination: host]
    USBPcap pseudoheader length: 28
    IRP ID: 0xffff99069c809010
    IRP USBD_STATUS: USBD_STATUS_SUCCESS (0x00000000)
    URB Function: URB_FUNCTION_CONTROL_TRANSFER (0x0008)
    IRP information: 0x01, Direction: PDO -> FDO
        0000 000. = Reserved: 0x00
        .... ...1 = Direction: PDO -> FDO (0x1)
    URB bus id: 1
    Device address: 5
    Endpoint: 0x00, Direction: OUT
        0... .... = Direction: OUT (0)
        .... 0000 = Endpoint number: 0
    URB transfer type: URB_CONTROL (0x02)
    Packet Data Length: 0
    [Request in: 201]
    [Time from request: 17.312000 milliseconds]
    Control transfer stage: Complete (3)
    [bInterfaceClass: HID (0x03)]

11.291914
0000  1c 00 10 90 80 9c 06 99 ff ff 00 00 00 00 08 00   ................
0010  01 01 00 05 00 00 02 00 00 00 00 03               ............

No.     Time           Source                Destination           Protocol Length Info
    203 11.292034      host                  1.5.0                 USBHID   36     GET DESCRIPTOR Request HID Report

Frame 203: Packet, 36 bytes on wire (288 bits), 36 bytes captured (288 bits) on interface \\.\USBPcap1, id 0
    Section number: 1
    Interface id: 0 (\\.\USBPcap1)
        Interface name: \\.\USBPcap1
        Interface description: USBPcap1
    Encapsulation type: USB packets with USBPcap header (152)
    Arrival Time: Dec  5, 2025 18:14:22.592817000 Финляндия (зима)
    UTC Arrival Time: Dec  5, 2025 16:14:22.592817000 UTC
    Epoch Arrival Time: 1764951262.592817000
    [Time shift for this packet: 0.000000000 seconds]
    [Time delta from previous captured frame: 120.000 microseconds]
    [Time delta from previous displayed frame: 120.000 microseconds]
    [Time since reference or first frame: 11.292034000 seconds]
    Frame Number: 203
    Frame Length: 36 bytes (288 bits)
    Capture Length: 36 bytes (288 bits)
    [Frame is marked: False]
    [Frame is ignored: False]
    [Protocols in frame: usb:usbhid]
    Character encoding: ASCII (0)
USB URB
    [Source: host]
    [Destination: 1.5.0]
    USBPcap pseudoheader length: 28
    IRP ID: 0xffff9906bd509050
    IRP USBD_STATUS: USBD_STATUS_SUCCESS (0x00000000)
    URB Function: URB_FUNCTION_GET_DESCRIPTOR_FROM_INTERFACE (0x0028)
    IRP information: 0x00, Direction: FDO -> PDO
        0000 000. = Reserved: 0x00
        .... ...0 = Direction: FDO -> PDO (0x0)
    URB bus id: 1
    Device address: 5
    Endpoint: 0x80, Direction: IN
        1... .... = Direction: IN (1)
        .... 0000 = Endpoint number: 0
    URB transfer type: URB_CONTROL (0x02)
    Packet Data Length: 8
    [Response in: 204]
    Control transfer stage: Setup (0)
    [bInterfaceClass: HID (0x03)]
Setup Data
    bmRequestType: 0x81
        1... .... = Direction: Device-to-host
        .00. .... = Type: Standard (0x0)
        ...0 0001 = Recipient: Interface (0x01)
    bDescriptorIndex: 0x00
    bDescriptorType: HID Report (0x22)
    wInterfaceNumber: 1
    wDescriptorLength: 158

11.292034
0000  1c 00 50 90 50 bd 06 99 ff ff 00 00 00 00 28 00   ..P.P.........(.
0010  00 01 00 05 00 80 02 08 00 00 00 00 81 06 00 22   ..............."
0020  01 00 9e 00                                       ....

No.     Time           Source                Destination           Protocol Length Info
    204 11.312917      1.5.0                 host                  USBHID   122    GET DESCRIPTOR Response HID Report

Frame 204: Packet, 122 bytes on wire (976 bits), 122 bytes captured (976 bits) on interface \\.\USBPcap1, id 0
    Section number: 1
    Interface id: 0 (\\.\USBPcap1)
        Interface name: \\.\USBPcap1
        Interface description: USBPcap1
    Encapsulation type: USB packets with USBPcap header (152)
    Arrival Time: Dec  5, 2025 18:14:22.613700000 Финляндия (зима)
    UTC Arrival Time: Dec  5, 2025 16:14:22.613700000 UTC
    Epoch Arrival Time: 1764951262.613700000
    [Time shift for this packet: 0.000000000 seconds]
    [Time delta from previous captured frame: 20.883000 milliseconds]
    [Time delta from previous displayed frame: 20.883000 milliseconds]
    [Time since reference or first frame: 11.312917000 seconds]
    Frame Number: 204
    Frame Length: 122 bytes (976 bits)
    Capture Length: 122 bytes (976 bits)
    [Frame is marked: False]
    [Frame is ignored: False]
    [Protocols in frame: usb:usbhid]
    Character encoding: ASCII (0)
USB URB
    [Source: 1.5.0]
    [Destination: host]
    USBPcap pseudoheader length: 28
    IRP ID: 0xffff9906bd509050
    IRP USBD_STATUS: USBD_STATUS_SUCCESS (0x00000000)
    URB Function: URB_FUNCTION_CONTROL_TRANSFER (0x0008)
    IRP information: 0x01, Direction: PDO -> FDO
        0000 000. = Reserved: 0x00
        .... ...1 = Direction: PDO -> FDO (0x1)
    URB bus id: 1
    Device address: 5
    Endpoint: 0x80, Direction: IN
        1... .... = Direction: IN (1)
        .... 0000 = Endpoint number: 0
    URB transfer type: URB_CONTROL (0x02)
    Packet Data Length: 94
    [Request in: 203]
    [Time from request: 20.883000 milliseconds]
    Control transfer stage: Complete (3)
    [bInterfaceClass: HID (0x03)]
HID Report
    Usage Page (Vendor)
        Header
            .... ..10 = bSize: 2 bytes (2)
            .... 01.. = bType: Global (1)
            0000 .... = bTag: Usage Page (0x0)
        Usage Page: Vendor (0xff00)
    Usage (Vendor)
        Header
            .... ..01 = bSize: 1 byte (1)
            .... 10.. = bType: Local (2)
            0000 .... = bTag: Usage (0x0)
        Usage: Vendor (0x0e)
    Collection (Application)
        Header
            .... ..01 = bSize: 1 byte (1)
            .... 00.. = bType: Main (0)
            1010 .... = bTag: Collection (0xa)
        Collection type: Application (0x01)
        Report ID (0xba)
            Header
                .... ..01 = bSize: 1 byte (1)
                .... 01.. = bType: Global (1)
                1000 .... = bTag: Report ID (0x8)
            Report ID: 0xba
        Report Count (31)
            Header
                .... ..01 = bSize: 1 byte (1)
                .... 01.. = bType: Global (1)
                1001 .... = bTag: Report Count (0x9)
            Report count: 31
        Report Size (8)
            Header
                .... ..01 = bSize: 1 byte (1)
                .... 01.. = bType: Global (1)
                0111 .... = bTag: Report Size (0x7)
            Report size: 8
        Logical Maximum (255)
            Header
                .... ..10 = bSize: 2 bytes (2)
                .... 01.. = bType: Global (1)
                0010 .... = bTag: Logical Maximum (0x2)
            Logical maximum: 255
        Logical Minimum (0)
            Header
                .... ..01 = bSize: 1 byte (1)
                .... 01.. = bType: Global (1)
                0001 .... = bTag: Logical Minimum (0x1)
            Logical minimum: 0
        Usage (Vendor)
            Header
                .... ..01 = bSize: 1 byte (1)
                .... 10.. = bType: Local (2)
                0000 .... = bTag: Usage (0x0)
            Usage: Vendor (0x01)
        Output (Data,Var,Abs)
            Header
                .... ..01 = bSize: 1 byte (1)
                .... 00.. = bType: Main (0)
                1001 .... = bTag: Output (0x9)
            .... .... 0 = Data/constant: Data
            .... ...1 . = Data type: Variable
            .... ..0. . = Coordinates: Absolute
            .... .0.. . = Min/max wraparound: No Wrap
            .... 0... . = Physical relationship to data: Linear
            ...0 .... . = Preferred state: Preferred State
            ..0. .... . = Has null position: No Null position
            .0.. .... . = (Non)-volatile: Non Volatile
            0... .... . = Bits or bytes: Buffered bytes (default, no second byte present)
        Report ID (0xba)
            Header
                .... ..01 = bSize: 1 byte (1)
                .... 01.. = bType: Global (1)
                1000 .... = bTag: Report ID (0x8)
            Report ID: 0xba
        Report Count (31)
            Header
                .... ..01 = bSize: 1 byte (1)
                .... 01.. = bType: Global (1)
                1001 .... = bTag: Report Count (0x9)
            Report count: 31
        Report Size (8)
            Header
                .... ..01 = bSize: 1 byte (1)
                .... 01.. = bType: Global (1)
                0111 .... = bTag: Report Size (0x7)
            Report size: 8
        Logical Maximum (255)
            Header
                .... ..10 = bSize: 2 bytes (2)
                .... 01.. = bType: Global (1)
                0010 .... = bTag: Logical Maximum (0x2)
            Logical maximum: 255
        Logical Minimum (0)
            Header
                .... ..01 = bSize: 1 byte (1)
                .... 01.. = bType: Global (1)
                0001 .... = bTag: Logical Minimum (0x1)
            Logical minimum: 0
        Usage (Vendor)
            Header
                .... ..01 = bSize: 1 byte (1)
                .... 10.. = bType: Local (2)
                0000 .... = bTag: Usage (0x0)
            Usage: Vendor (0x01)
        Input (Data,Var,Abs)
            Header
                .... ..01 = bSize: 1 byte (1)
                .... 00.. = bType: Main (0)
                1000 .... = bTag: Input (0x8)
            .... .... 0 = Data/constant: Data
            .... ...1 . = Data type: Variable
            .... ..0. . = Coordinates: Absolute
            .... .0.. . = Min/max wraparound: No Wrap
            .... 0... . = Physical relationship to data: Linear
            ...0 .... . = Preferred state: Preferred State
            ..0. .... . = Has null position: No Null position
            .0.. .... . = [Reserved]: False
            0... .... . = Bits or bytes: Buffered bytes (default, no second byte present)
        End Collection
            Header
                .... ..00 = bSize: 0 bytes (0)
                .... 00.. = bType: Main (0)
                1100 .... = bTag: End Collection (0xc)
    Usage Page (Generic Desktop Controls)
        Header
            .... ..01 = bSize: 1 byte (1)
            .... 01.. = bType: Global (1)
            0000 .... = bTag: Usage Page (0x0)
        Usage Page: Generic Desktop Controls (0x01)
    Usage (System Control)
        Header
            .... ..01 = bSize: 1 byte (1)
            .... 10.. = bType: Local (2)
            0000 .... = bTag: Usage (0x0)
        Usage: System Control (0x80)
    Collection (Application)
        Header
            .... ..01 = bSize: 1 byte (1)
            .... 00.. = bType: Main (0)
            1010 .... = bTag: Collection (0xa)
        Collection type: Application (0x01)
        Report ID (0x02)
            Header
                .... ..01 = bSize: 1 byte (1)
                .... 01.. = bType: Global (1)
                1000 .... = bTag: Report ID (0x8)
            Report ID: 0x02
        Usage Page (Generic Desktop Controls)
            Header
                .... ..01 = bSize: 1 byte (1)
                .... 01.. = bType: Global (1)
                0000 .... = bTag: Usage Page (0x0)
            Usage Page: Generic Desktop Controls (0x01)
        Usage Minimum (0x81)
            Header
                .... ..01 = bSize: 1 byte (1)
                .... 10.. = bType: Local (2)
                0001 .... = bTag: Usage Minimum (0x1)
            Usage minimum: 0x81
        Usage Maximum (0x83)
            Header
                .... ..01 = bSize: 1 byte (1)
                .... 10.. = bType: Local (2)
                0010 .... = bTag: Usage Maximum (0x2)
            Usage maximum: 0x83
        Logical Minimum (0)
            Header
                .... ..01 = bSize: 1 byte (1)
                .... 01.. = bType: Global (1)
                0001 .... = bTag: Logical Minimum (0x1)
            Logical minimum: 0
        Logical Maximum (1)
            Header
                .... ..01 = bSize: 1 byte (1)
                .... 01.. = bType: Global (1)
                0010 .... = bTag: Logical Maximum (0x2)
            Logical maximum: 1
        Report Count (3)
            Header
                .... ..01 = bSize: 1 byte (1)
                .... 01.. = bType: Global (1)
                1001 .... = bTag: Report Count (0x9)
            Report count: 3
        Report Size (1)
            Header
                .... ..01 = bSize: 1 byte (1)
                .... 01.. = bType: Global (1)
                0111 .... = bTag: Report Size (0x7)
            Report size: 1
        Input (Data,Var,Rel)
            Header
                .... ..01 = bSize: 1 byte (1)
                .... 00.. = bType: Main (0)
                1000 .... = bTag: Input (0x8)
            .... .... 0 = Data/constant: Data
            .... ...1 . = Data type: Variable
            .... ..1. . = Coordinates: Relative
            .... .0.. . = Min/max wraparound: No Wrap
            .... 0... . = Physical relationship to data: Linear
            ...0 .... . = Preferred state: Preferred State
            ..0. .... . = Has null position: No Null position
