No.     Time           Source                Destination           Protocol Length Info
   1979 27.711271      host                  1.5.0                 USB      36     GET DESCRIPTOR Request DEVICE

Frame 1979: Packet, 36 bytes on wire (288 bits), 36 bytes captured (288 bits) on interface \\.\USBPcap1, id 0
    Section number: 1
    Interface id: 0 (\\.\USBPcap1)
        Interface name: \\.\USBPcap1
        Interface description: USBPcap1
    Encapsulation type: USB packets with USBPcap header (152)
    Arrival Time: Dec  5, 2025 17:48:44.927449000 Финляндия (зима)
    UTC Arrival Time: Dec  5, 2025 15:48:44.927449000 UTC
    Epoch Arrival Time: 1764949724.927449000
    [Time shift for this packet: 0.000000000 seconds]
    [Time delta from previous captured frame: 551.000 microseconds]
    [Time since reference or first frame: 27.711271000 seconds]
    Frame Number: 1979
    Frame Length: 36 bytes (288 bits)
    Capture Length: 36 bytes (288 bits)
    [Frame is marked: False]
    [Frame is ignored: False]
    [Protocols in frame: usb]
    Character encoding: ASCII (0)
USB URB
    [Source: host]
    [Destination: 1.5.0]
    USBPcap pseudoheader length: 28
    IRP ID: 0xffff99065b6d6010
    IRP USBD_STATUS: USBD_STATUS_SUCCESS (0x00000000)
    URB Function: URB_FUNCTION_GET_DESCRIPTOR_FROM_DEVICE (0x000b)
    IRP information: 0x00, Direction: FDO -> PDO
        0000 000. = Reserved: 0x00
        .... ...0 = Direction: FDO -> PDO (0x0)
    URB bus id: 1
    Device address: 5
    Endpoint: 0x80, Direction: IN
        1... .... = Direction: IN (1)
        .... 0000 = Endpoint number: 0
    URB transfer type: URB_CONTROL (0x02)
    Packet Data Length: 8
    [Response in: 1980]
    Control transfer stage: Setup (0)
Setup Data
    bmRequestType: 0x80
        1... .... = Direction: Device-to-host
        .00. .... = Type: Standard (0x0)
        ...0 0000 = Recipient: Device (0x00)
    bRequest: GET DESCRIPTOR (6)
    Descriptor Index: 0x00
    bDescriptorType: DEVICE (0x01)
    Language Id: no language specified (0x0000)
    wLength: 18

27.711271
0000  1c 00 10 60 6d 5b 06 99 ff ff 00 00 00 00 0b 00   ...`m[..........
0010  00 01 00 05 00 80 02 08 00 00 00 00 80 06 00 01   ................
0020  00 00 12 00                                       ....

No.     Time           Source                Destination           Protocol Length Info
   1980 27.712777      1.5.0                 host                  USB      46     GET DESCRIPTOR Response DEVICE

Frame 1980: Packet, 46 bytes on wire (368 bits), 46 bytes captured (368 bits) on interface \\.\USBPcap1, id 0
    Section number: 1
    Interface id: 0 (\\.\USBPcap1)
        Interface name: \\.\USBPcap1
        Interface description: USBPcap1
    Encapsulation type: USB packets with USBPcap header (152)
    Arrival Time: Dec  5, 2025 17:48:44.928955000 Финляндия (зима)
    UTC Arrival Time: Dec  5, 2025 15:48:44.928955000 UTC
    Epoch Arrival Time: 1764949724.928955000
    [Time shift for this packet: 0.000000000 seconds]
    [Time delta from previous captured frame: 1.506000 milliseconds]
    [Time delta from previous displayed frame: 1.506000 milliseconds]
    [Time since reference or first frame: 27.712777000 seconds]
    Frame Number: 1980
    Frame Length: 46 bytes (368 bits)
    Capture Length: 46 bytes (368 bits)
    [Frame is marked: False]
    [Frame is ignored: False]
    [Protocols in frame: usb]
    Character encoding: ASCII (0)
USB URB
    [Source: 1.5.0]
    [Destination: host]
    USBPcap pseudoheader length: 28
    IRP ID: 0xffff99065b6d6010
    IRP USBD_STATUS: USBD_STATUS_SUCCESS (0x00000000)
    URB Function: URB_FUNCTION_CONTROL_TRANSFER (0x0008)
    IRP information: 0x01, Direction: PDO -> FDO
        0000 000. = Reserved: 0x00
        .... ...1 = Direction: PDO -> FDO (0x1)
    URB bus id: 1
    Device address: 5
    Endpoint: 0x80, Direction: IN
        1... .... = Direction: IN (1)
        .... 0000 = Endpoint number: 0
    URB transfer type: URB_CONTROL (0x02)
    Packet Data Length: 18
    [Request in: 1979]
    [Time from request: 1.506000 milliseconds]
    Control transfer stage: Complete (3)
DEVICE DESCRIPTOR
    bLength: 18
    bDescriptorType: 0x01 (DEVICE)
    bcdUSB: 0x0200
    bDeviceClass: Device (0x00)
    bDeviceSubClass: 0
    bDeviceProtocol: 0 (Use class code info from Interface Descriptors)
    bMaxPacketSize0: 64
    idVendor: Shenzhen Rapoo Technology Co., Ltd. (0x24ae)
    idProduct: Unknown (0x2013)
    bcdDevice: 0x0110
    iManufacturer: 1
    iProduct: 2
    iSerialNumber: 0
    bNumConfigurations: 1

27.712777
0000  1c 00 10 60 6d 5b 06 99 ff ff 00 00 00 00 08 00   ...`m[..........
0010  01 01 00 05 00 80 02 12 00 00 00 03 12 01 00 02   ................
0020  00 00 00 40 ae 24 13 20 10 01 01 02 00 01         ...@.$. ......

No.     Time           Source                Destination           Protocol Length Info
   1981 27.712808      host                  1.5.0                 USB      36     GET DESCRIPTOR Request CONFIGURATION

Frame 1981: Packet, 36 bytes on wire (288 bits), 36 bytes captured (288 bits) on interface \\.\USBPcap1, id 0
    Section number: 1
    Interface id: 0 (\\.\USBPcap1)
        Interface name: \\.\USBPcap1
        Interface description: USBPcap1
    Encapsulation type: USB packets with USBPcap header (152)
    Arrival Time: Dec  5, 2025 17:48:44.928986000 Финляндия (зима)
    UTC Arrival Time: Dec  5, 2025 15:48:44.928986000 UTC
    Epoch Arrival Time: 1764949724.928986000
    [Time shift for this packet: 0.000000000 seconds]
    [Time delta from previous captured frame: 31.000 microseconds]
    [Time delta from previous displayed frame: 31.000 microseconds]
    [Time since reference or first frame: 27.712808000 seconds]
    Frame Number: 1981
    Frame Length: 36 bytes (288 bits)
    Capture Length: 36 bytes (288 bits)
    [Frame is marked: False]
    [Frame is ignored: False]
    [Protocols in frame: usb]
    Character encoding: ASCII (0)
USB URB
    [Source: host]
    [Destination: 1.5.0]
    USBPcap pseudoheader length: 28
    IRP ID: 0xffff99065b6d6010
    IRP USBD_STATUS: USBD_STATUS_SUCCESS (0x00000000)
    URB Function: URB_FUNCTION_GET_DESCRIPTOR_FROM_DEVICE (0x000b)
    IRP information: 0x00, Direction: FDO -> PDO
        0000 000. = Reserved: 0x00
        .... ...0 = Direction: FDO -> PDO (0x0)
    URB bus id: 1
    Device address: 5
    Endpoint: 0x80, Direction: IN
        1... .... = Direction: IN (1)
        .... 0000 = Endpoint number: 0
    URB transfer type: URB_CONTROL (0x02)
    Packet Data Length: 8
    [Response in: 1982]
    Control transfer stage: Setup (0)
Setup Data
    bmRequestType: 0x80
        1... .... = Direction: Device-to-host
        .00. .... = Type: Standard (0x0)
        ...0 0000 = Recipient: Device (0x00)
    bRequest: GET DESCRIPTOR (6)
    Descriptor Index: 0x00
    bDescriptorType: CONFIGURATION (0x02)
    Language Id: no language specified (0x0000)
    wLength: 9

27.712808
0000  1c 00 10 60 6d 5b 06 99 ff ff 00 00 00 00 0b 00   ...`m[..........
0010  00 01 00 05 00 80 02 08 00 00 00 00 80 06 00 02   ................
0020  00 00 09 00                                       ....

No.     Time           Source                Destination           Protocol Length Info
   1982 27.714779      1.5.0                 host                  USB      37     GET DESCRIPTOR Response CONFIGURATION

Frame 1982: Packet, 37 bytes on wire (296 bits), 37 bytes captured (296 bits) on interface \\.\USBPcap1, id 0
    Section number: 1
    Interface id: 0 (\\.\USBPcap1)
        Interface name: \\.\USBPcap1
        Interface description: USBPcap1
    Encapsulation type: USB packets with USBPcap header (152)
    Arrival Time: Dec  5, 2025 17:48:44.930957000 Финляндия (зима)
    UTC Arrival Time: Dec  5, 2025 15:48:44.930957000 UTC
    Epoch Arrival Time: 1764949724.930957000
    [Time shift for this packet: 0.000000000 seconds]
    [Time delta from previous captured frame: 1.971000 milliseconds]
    [Time delta from previous displayed frame: 1.971000 milliseconds]
    [Time since reference or first frame: 27.714779000 seconds]
    Frame Number: 1982
    Frame Length: 37 bytes (296 bits)
    Capture Length: 37 bytes (296 bits)
    [Frame is marked: False]
    [Frame is ignored: False]
    [Protocols in frame: usb]
    Character encoding: ASCII (0)
USB URB
    [Source: 1.5.0]
    [Destination: host]
    USBPcap pseudoheader length: 28
    IRP ID: 0xffff99065b6d6010
    IRP USBD_STATUS: USBD_STATUS_SUCCESS (0x00000000)
    URB Function: URB_FUNCTION_CONTROL_TRANSFER (0x0008)
    IRP information: 0x01, Direction: PDO -> FDO
        0000 000. = Reserved: 0x00
        .... ...1 = Direction: PDO -> FDO (0x1)
    URB bus id: 1
    Device address: 5
    Endpoint: 0x80, Direction: IN
        1... .... = Direction: IN (1)
        .... 0000 = Endpoint number: 0
    URB transfer type: URB_CONTROL (0x02)
    Packet Data Length: 9
    [Request in: 1981]
    [Time from request: 1.971000 milliseconds]
    Control transfer stage: Complete (3)
CONFIGURATION DESCRIPTOR
    bLength: 9
    bDescriptorType: 0x02 (CONFIGURATION)
    wTotalLength: 84
    bNumInterfaces: 3
    bConfigurationValue: 1
    iConfiguration: 0
    Configuration bmAttributes: 0xa0  NOT SELF-POWERED  REMOTE-WAKEUP
        1... .... = Must be 1: Must be 1 for USB 1.1 and higher
        .0.. .... = Self-Powered: This device is powered from the USB bus
        ..1. .... = Remote Wakeup: This device supports REMOTE WAKEUP
    bMaxPower: 50  (100mA)

27.714779
0000  1c 00 10 60 6d 5b 06 99 ff ff 00 00 00 00 08 00   ...`m[..........
0010  01 01 00 05 00 80 02 09 00 00 00 03 09 02 54 00   ..............T.
0020  03 01 00 a0 32                                    ....2

No.     Time           Source                Destination           Protocol Length Info
   1983 27.714801      host                  1.5.0                 USB      36     GET DESCRIPTOR Request CONFIGURATION

Frame 1983: Packet, 36 bytes on wire (288 bits), 36 bytes captured (288 bits) on interface \\.\USBPcap1, id 0
    Section number: 1
    Interface id: 0 (\\.\USBPcap1)
        Interface name: \\.\USBPcap1
        Interface description: USBPcap1
    Encapsulation type: USB packets with USBPcap header (152)
    Arrival Time: Dec  5, 2025 17:48:44.930979000 Финляндия (зима)
    UTC Arrival Time: Dec  5, 2025 15:48:44.930979000 UTC
    Epoch Arrival Time: 1764949724.930979000
    [Time shift for this packet: 0.000000000 seconds]
    [Time delta from previous captured frame: 22.000 microseconds]
    [Time delta from previous displayed frame: 22.000 microseconds]
    [Time since reference or first frame: 27.714801000 seconds]
    Frame Number: 1983
    Frame Length: 36 bytes (288 bits)
    Capture Length: 36 bytes (288 bits)
    [Frame is marked: False]
    [Frame is ignored: False]
    [Protocols in frame: usb]
    Character encoding: ASCII (0)
USB URB
    [Source: host]
    [Destination: 1.5.0]
    USBPcap pseudoheader length: 28
    IRP ID: 0xffff9906bb976010
    IRP USBD_STATUS: USBD_STATUS_SUCCESS (0x00000000)
    URB Function: URB_FUNCTION_GET_DESCRIPTOR_FROM_DEVICE (0x000b)
    IRP information: 0x00, Direction: FDO -> PDO
        0000 000. = Reserved: 0x00
        .... ...0 = Direction: FDO -> PDO (0x0)
    URB bus id: 1
    Device address: 5
    Endpoint: 0x80, Direction: IN
        1... .... = Direction: IN (1)
        .... 0000 = Endpoint number: 0
    URB transfer type: URB_CONTROL (0x02)
    Packet Data Length: 8
    [Response in: 1984]
    Control transfer stage: Setup (0)
Setup Data
    bmRequestType: 0x80
        1... .... = Direction: Device-to-host
        .00. .... = Type: Standard (0x0)
        ...0 0000 = Recipient: Device (0x00)
    bRequest: GET DESCRIPTOR (6)
    Descriptor Index: 0x00
    bDescriptorType: CONFIGURATION (0x02)
    Language Id: no language specified (0x0000)
    wLength: 84

27.714801
0000  1c 00 10 60 97 bb 06 99 ff ff 00 00 00 00 0b 00   ...`............
0010  00 01 00 05 00 80 02 08 00 00 00 00 80 06 00 02   ................
0020  00 00 54 00                                       ..T.

No.     Time           Source                Destination           Protocol Length Info
   1984 27.717720      1.5.0                 host                  USB      112    GET DESCRIPTOR Response CONFIGURATION

Frame 1984: Packet, 112 bytes on wire (896 bits), 112 bytes captured (896 bits) on interface \\.\USBPcap1, id 0
    Section number: 1
    Interface id: 0 (\\.\USBPcap1)
        Interface name: \\.\USBPcap1
        Interface description: USBPcap1
    Encapsulation type: USB packets with USBPcap header (152)
    Arrival Time: Dec  5, 2025 17:48:44.933898000 Финляндия (зима)
    UTC Arrival Time: Dec  5, 2025 15:48:44.933898000 UTC
    Epoch Arrival Time: 1764949724.933898000
    [Time shift for this packet: 0.000000000 seconds]
    [Time delta from previous captured frame: 2.919000 milliseconds]
    [Time delta from previous displayed frame: 2.919000 milliseconds]
    [Time since reference or first frame: 27.717720000 seconds]
    Frame Number: 1984
    Frame Length: 112 bytes (896 bits)
    Capture Length: 112 bytes (896 bits)
    [Frame is marked: False]
    [Frame is ignored: False]
    [Protocols in frame: usb:usbhid:usbhid:usbhid]
    Character encoding: ASCII (0)
USB URB
    [Source: 1.5.0]
    [Destination: host]
    USBPcap pseudoheader length: 28
    IRP ID: 0xffff9906bb976010
    IRP USBD_STATUS: USBD_STATUS_SUCCESS (0x00000000)
    URB Function: URB_FUNCTION_CONTROL_TRANSFER (0x0008)
    IRP information: 0x01, Direction: PDO -> FDO
        0000 000. = Reserved: 0x00
        .... ...1 = Direction: PDO -> FDO (0x1)
    URB bus id: 1
    Device address: 5
    Endpoint: 0x80, Direction: IN
        1... .... = Direction: IN (1)
        .... 0000 = Endpoint number: 0
    URB transfer type: URB_CONTROL (0x02)
    Packet Data Length: 84
    [Request in: 1983]
    [Time from request: 2.919000 milliseconds]
    Control transfer stage: Complete (3)
CONFIGURATION DESCRIPTOR
    bLength: 9
    bDescriptorType: 0x02 (CONFIGURATION)
    wTotalLength: 84
    bNumInterfaces: 3
    bConfigurationValue: 1
    iConfiguration: 0
    Configuration bmAttributes: 0xa0  NOT SELF-POWERED  REMOTE-WAKEUP
        1... .... = Must be 1: Must be 1 for USB 1.1 and higher
        .0.. .... = Self-Powered: This device is powered from the USB bus
        ..1. .... = Remote Wakeup: This device supports REMOTE WAKEUP
    bMaxPower: 50  (100mA)
INTERFACE DESCRIPTOR (0.0): class HID
    bLength: 9
    bDescriptorType: 0x04 (INTERFACE)
    bInterfaceNumber: 0
    bAlternateSetting: 0
    bNumEndpoints: 1
    bInterfaceClass: HID (0x03)
    bInterfaceSubClass: Boot Interface (0x01)
    bInterfaceProtocol: Mouse (0x02)
    iInterface: 0
HID DESCRIPTOR
    bLength: 9
    bDescriptorType: 0x21 (HID)
    bcdHID: 0x0110
    bCountryCode: Not Supported (0x00)
    bNumDescriptors: 1
    bDescriptorType: HID Report (0x22)
    wDescriptorLength: 64
ENDPOINT DESCRIPTOR
    bLength: 7
    bDescriptorType: 0x05 (ENDPOINT)
    bEndpointAddress: 0x81  IN  Endpoint:1
        1... .... = Direction: IN Endpoint
        .... 0001 = Endpoint Number: 0x1
    bmAttributes: 0x03
        .... ..11 = Transfertype: Interrupt-Transfer (0x3)
    wMaxPacketSize: 64
        ...0 0... .... .... = Transactions per microframe: 1 (0)
        .... .000 0100 0000 = Maximum Packet Size: 64
    bInterval: 10
INTERFACE DESCRIPTOR (1.0): class HID
    bLength: 9
    bDescriptorType: 0x04 (INTERFACE)
    bInterfaceNumber: 1
    bAlternateSetting: 0
    bNumEndpoints: 1
    bInterfaceClass: HID (0x03)
    bInterfaceSubClass: Boot Interface (0x01)
    bInterfaceProtocol: Keyboard (0x01)
    iInterface: 0
HID DESCRIPTOR
    bLength: 9
    bDescriptorType: 0x21 (HID)
    bcdHID: 0x0110
    bCountryCode: Not Supported (0x00)
    bNumDescriptors: 1
    bDescriptorType: HID Report (0x22)
    wDescriptorLength: 94
ENDPOINT DESCRIPTOR
    bLength: 7
    bDescriptorType: 0x05 (ENDPOINT)
    bEndpointAddress: 0x82  IN  Endpoint:2
        1... .... = Direction: IN Endpoint
        .... 0010 = Endpoint Number: 0x2
    bmAttributes: 0x03
        .... ..11 = Transfertype: Interrupt-Transfer (0x3)
    wMaxPacketSize: 64
        ...0 0... .... .... = Transactions per microframe: 1 (0)
        .... .000 0100 0000 = Maximum Packet Size: 64
    bInterval: 10
INTERFACE DESCRIPTOR (2.0): class HID
    bLength: 9
    bDescriptorType: 0x04 (INTERFACE)
    bInterfaceNumber: 2
    bAlternateSetting: 0
    bNumEndpoints: 1
    bInterfaceClass: HID (0x03)
    bInterfaceSubClass: Boot Interface (0x01)
    bInterfaceProtocol: Keyboard (0x01)
    iInterface: 0
HID DESCRIPTOR
    bLength: 9
    bDescriptorType: 0x21 (HID)
    bcdHID: 0x0110
    bCountryCode: Not Supported (0x00)
    bNumDescriptors: 1
    bDescriptorType: HID Report (0x22)
    wDescriptorLength: 64
ENDPOINT DESCRIPTOR
    bLength: 7
    bDescriptorType: 0x05 (ENDPOINT)
    bEndpointAddress: 0x83  IN  Endpoint:3
        1... .... = Direction: IN Endpoint
        .... 0011 = Endpoint Number: 0x3
    bmAttributes: 0x03
        .... ..11 = Transfertype: Interrupt-Transfer (0x3)
    wMaxPacketSize: 64
        ...0 0... .... .... = Transactions per microframe: 1 (0)
        .... .000 0100 0000 = Maximum Packet Size: 64
    bInterval: 10

27.717720
0000  1c 00 10 60 97 bb 06 99 ff ff 00 00 00 00 08 00   ...`............
0010  01 01 00 05 00 80 02 54 00 00 00 03 09 02 54 00   .......T......T.
0020  03 01 00 a0 32 09 04 00 00 01 03 01 02 00 09 21   ....2..........!
0030  10 01 00 01 22 40 00 07 05 81 03 40 00 0a 09 04   ...."@.....@....
0040  01 00 01 03 01 01 00 09 21 10 01 00 01 22 5e 00   ........!...."^.
0050  07 05 82 03 40 00 0a 09 04 02 00 01 03 01 01 00   ....@...........
0060  09 21 10 01 00 01 22 40 00 07 05 83 03 40 00 0a   .!...."@.....@..

No.     Time           Source                Destination           Protocol Length Info
   1985 27.718991      host                  1.5.0                 USB      36     SET CONFIGURATION Request

Frame 1985: Packet, 36 bytes on wire (288 bits), 36 bytes captured (288 bits) on interface \\.\USBPcap1, id 0
    Section number: 1
    Interface id: 0 (\\.\USBPcap1)
        Interface name: \\.\USBPcap1
        Interface description: USBPcap1
    Encapsulation type: USB packets with USBPcap header (152)
    Arrival Time: Dec  5, 2025 17:48:44.935169000 Финляндия (зима)
    UTC Arrival Time: Dec  5, 2025 15:48:44.935169000 UTC
    Epoch Arrival Time: 1764949724.935169000
    [Time shift for this packet: 0.000000000 seconds]
    [Time delta from previous captured frame: 1.271000 milliseconds]
    [Time delta from previous displayed frame: 1.271000 milliseconds]
    [Time since reference or first frame: 27.718991000 seconds]
    Frame Number: 1985
    Frame Length: 36 bytes (288 bits)
    Capture Length: 36 bytes (288 bits)
    [Frame is marked: False]
    [Frame is ignored: False]
    [Protocols in frame: usb]
    Character encoding: ASCII (0)
USB URB
    [Source: host]
    [Destination: 1.5.0]
    USBPcap pseudoheader length: 28
    IRP ID: 0xffff990688f84050
    IRP USBD_STATUS: USBD_STATUS_SUCCESS (0x00000000)
    URB Function: URB_FUNCTION_SELECT_CONFIGURATION (0x0000)
    IRP information: 0x00, Direction: FDO -> PDO
        0000 000. = Reserved: 0x00
        .... ...0 = Direction: FDO -> PDO (0x0)
    URB bus id: 1
    Device address: 5
    Endpoint: 0x00, Direction: OUT
        0... .... = Direction: OUT (0)
        .... 0000 = Endpoint number: 0
    URB transfer type: URB_CONTROL (0x02)
    Packet Data Length: 8
    [Response in: 1986]
    Control transfer stage: Setup (0)
Setup Data
    bmRequestType: 0x00
        0... .... = Direction: Host-to-device
        .00. .... = Type: Standard (0x0)
        ...0 0000 = Recipient: Device (0x00)
    bRequest: SET CONFIGURATION (9)
    bConfigurationValue: 1
    wIndex: 0 (0x0000)
    wLength: 0

27.718991
0000  1c 00 50 40 f8 88 06 99 ff ff 00 00 00 00 00 00   ..P@............
0010  00 01 00 05 00 00 02 08 00 00 00 00 00 09 01 00   ................
0020  00 00 00 00                                       ....

No.     Time           Source                Destination           Protocol Length Info
   1986 27.721720      1.5.0                 host                  USB      28     SET CONFIGURATION Response

Frame 1986: Packet, 28 bytes on wire (224 bits), 28 bytes captured (224 bits) on interface \\.\USBPcap1, id 0
    Section number: 1
    Interface id: 0 (\\.\USBPcap1)
        Interface name: \\.\USBPcap1
        Interface description: USBPcap1
    Encapsulation type: USB packets with USBPcap header (152)
    Arrival Time: Dec  5, 2025 17:48:44.937898000 Финляндия (зима)
    UTC Arrival Time: Dec  5, 2025 15:48:44.937898000 UTC
    Epoch Arrival Time: 1764949724.937898000
    [Time shift for this packet: 0.000000000 seconds]
    [Time delta from previous captured frame: 2.729000 milliseconds]
    [Time delta from previous displayed frame: 2.729000 milliseconds]
    [Time since reference or first frame: 27.721720000 seconds]
    Frame Number: 1986
    Frame Length: 28 bytes (224 bits)
    Capture Length: 28 bytes (224 bits)
    [Frame is marked: False]
    [Frame is ignored: False]
    [Protocols in frame: usb]
    Character encoding: ASCII (0)
USB URB
    [Source: 1.5.0]
    [Destination: host]
    USBPcap pseudoheader length: 28
    IRP ID: 0xffff990688f84050
    IRP USBD_STATUS: USBD_STATUS_SUCCESS (0x00000000)
    URB Function: URB_FUNCTION_SELECT_CONFIGURATION (0x0000)
    IRP information: 0x01, Direction: PDO -> FDO
        0000 000. = Reserved: 0x00
        .... ...1 = Direction: PDO -> FDO (0x1)
    URB bus id: 1
    Device address: 5
    Endpoint: 0x00, Direction: OUT
        0... .... = Direction: OUT (0)
        .... 0000 = Endpoint number: 0
    URB transfer type: URB_CONTROL (0x02)
    Packet Data Length: 0
    [Request in: 1985]
    [Time from request: 2.729000 milliseconds]
    Control transfer stage: Complete (3)

27.721720
0000  1c 00 50 40 f8 88 06 99 ff ff 00 00 00 00 00 00   ..P@............
0010  01 01 00 05 00 00 02 00 00 00 00 03               ............

No.     Time           Source                Destination           Protocol Length Info
   1987 27.721806      host                  1.5.0                 USB      27     Unknown type 7f

Frame 1987: Packet, 27 bytes on wire (216 bits), 27 bytes captured (216 bits) on interface \\.\USBPcap1, id 0
    Section number: 1
    Interface id: 0 (\\.\USBPcap1)
        Interface name: \\.\USBPcap1
        Interface description: USBPcap1
    Encapsulation type: USB packets with USBPcap header (152)
    Arrival Time: Dec  5, 2025 17:48:44.937984000 Финляндия (зима)
    UTC Arrival Time: Dec  5, 2025 15:48:44.937984000 UTC
    Epoch Arrival Time: 1764949724.937984000
    [Time shift for this packet: 0.000000000 seconds]
    [Time delta from previous captured frame: 86.000 microseconds]
    [Time delta from previous displayed frame: 86.000 microseconds]
    [Time since reference or first frame: 27.721806000 seconds]
    Frame Number: 1987
    Frame Length: 27 bytes (216 bits)
    Capture Length: 27 bytes (216 bits)
    [Frame is marked: False]
    [Frame is ignored: False]
    [Protocols in frame: usb]
    Character encoding: ASCII (0)
USB URB
    [Source: host]
    [Destination: 1.5.0]
    USBPcap pseudoheader length: 27
    IRP ID: 0xffff9906c4d8d9a0
    IRP USBD_STATUS: USBD_STATUS_SUCCESS (0x00000000)
    URB Function: URB_FUNCTION_GET_MS_FEATURE_DESCRIPTOR (0x002a)
    IRP information: 0x00, Direction: FDO -> PDO
        0000 000. = Reserved: 0x00
        .... ...0 = Direction: FDO -> PDO (0x0)
    URB bus id: 1
    Device address: 5
    Endpoint: 0x00, Direction: OUT
        0... .... = Direction: OUT (0)
        .... 0000 = Endpoint number: 0
    URB transfer type: Unknown (0xff)
        [Expert Info (Error/Malformed): USBPcap did not recognize URB Function code (report to desowin.org/USBPcap)]
            [USBPcap did not recognize URB Function code (report to desowin.org/USBPcap)]
            [Severity level: Error]
            [Group: Malformed]
    Packet Data Length: 0
    [Response in: 1988]

27.721806
0000  1b 00 a0 d9 d8 c4 06 99 ff ff 00 00 00 00 2a 00   ..............*.
0010  00 01 00 05 00 00 ff 00 00 00 00                  ...........

No.     Time           Source                Destination           Protocol Length Info
   1988 27.721811      1.5.0                 host                  USB      27     Unknown type 7f

Frame 1988: Packet, 27 bytes on wire (216 bits), 27 bytes captured (216 bits) on interface \\.\USBPcap1, id 0
    Section number: 1
    Interface id: 0 (\\.\USBPcap1)
        Interface name: \\.\USBPcap1
        Interface description: USBPcap1
    Encapsulation type: USB packets with USBPcap header (152)
    Arrival Time: Dec  5, 2025 17:48:44.937989000 Финляндия (зима)
    UTC Arrival Time: Dec  5, 2025 15:48:44.937989000 UTC
    Epoch Arrival Time: 1764949724.937989000
    [Time shift for this packet: 0.000000000 seconds]
    [Time delta from previous captured frame: 5.000 microseconds]
    [Time delta from previous displayed frame: 5.000 microseconds]
    [Time since reference or first frame: 27.721811000 seconds]
    Frame Number: 1988
    Frame Length: 27 bytes (216 bits)
    Capture Length: 27 bytes (216 bits)
    [Frame is marked: False]
    [Frame is ignored: False]
    [Protocols in frame: usb]
    Character encoding: ASCII (0)
USB URB
    [Source: 1.5.0]
    [Destination: host]
    USBPcap pseudoheader length: 27
    IRP ID: 0xffff9906c4d8d9a0
    IRP USBD_STATUS: USBD_STATUS_SUCCESS (0x00000000)
    URB Function: URB_FUNCTION_GET_MS_FEATURE_DESCRIPTOR (0x002a)
    IRP information: 0x01, Direction: PDO -> FDO
        0000 000. = Reserved: 0x00
        .... ...1 = Direction: PDO -> FDO (0x1)
    URB bus id: 1
    Device address: 5
    Endpoint: 0x00, Direction: OUT
        0... .... = Direction: OUT (0)
        .... 0000 = Endpoint number: 0
    URB transfer type: Unknown (0xff)
        [Expert Info (Error/Malformed): USBPcap did not recognize URB Function code (report to desowin.org/USBPcap)]
            [USBPcap did not recognize URB Function code (report to desowin.org/USBPcap)]
            [Severity level: Error]
            [Group: Malformed]
    Packet Data Length: 0
    [Request in: 1987]
    [Time from request: 5.000 microseconds]

27.721811
0000  1b 00 a0 d9 d8 c4 06 99 ff ff 00 00 00 00 2a 00   ..............*.
0010  01 01 00 05 00 00 ff 00 00 00 00                  ...........

No.     Time           Source                Destination           Protocol Length Info
   1989 27.721820      host                  1.5.0                 USB      27     Unknown type 7f

Frame 1989: Packet, 27 bytes on wire (216 bits), 27 bytes captured (216 bits) on interface \\.\USBPcap1, id 0
    Section number: 1
    Interface id: 0 (\\.\USBPcap1)
        Interface name: \\.\USBPcap1
        Interface description: USBPcap1
    Encapsulation type: USB packets with USBPcap header (152)
    Arrival Time: Dec  5, 2025 17:48:44.937998000 Финляндия (зима)
    UTC Arrival Time: Dec  5, 2025 15:48:44.937998000 UTC
    Epoch Arrival Time: 1764949724.937998000
    [Time shift for this packet: 0.000000000 seconds]
    [Time delta from previous captured frame: 9.000 microseconds]
    [Time delta from previous displayed frame: 9.000 microseconds]
    [Time since reference or first frame: 27.721820000 seconds]
    Frame Number: 1989
    Frame Length: 27 bytes (216 bits)
    Capture Length: 27 bytes (216 bits)
    [Frame is marked: False]
    [Frame is ignored: False]
    [Protocols in frame: usb]
    Character encoding: ASCII (0)
USB URB
    [Source: host]
    [Destination: 1.5.0]
    USBPcap pseudoheader length: 27
    IRP ID: 0xffff9906c4d8d9a0
    IRP USBD_STATUS: USBD_STATUS_SUCCESS (0x00000000)
    URB Function: URB_FUNCTION_GET_MS_FEATURE_DESCRIPTOR (0x002a)
    IRP information: 0x00, Direction: FDO -> PDO
        0000 000. = Reserved: 0x00
        .... ...0 = Direction: FDO -> PDO (0x0)
    URB bus id: 1
    Device address: 5
    Endpoint: 0x00, Direction: OUT
        0... .... = Direction: OUT (0)
        .... 0000 = Endpoint number: 0
    URB transfer type: Unknown (0xff)
        [Expert Info (Error/Malformed): USBPcap did not recognize URB Function code (report to desowin.org/USBPcap)]
            [USBPcap did not recognize URB Function code (report to desowin.org/USBPcap)]
            [Severity level: Error]
            [Group: Malformed]
    Packet Data Length: 0
    [Response in: 1990]

27.721820
0000  1b 00 a0 d9 d8 c4 06 99 ff ff 00 00 00 00 2a 00   ..............*.
0010  00 01 00 05 00 00 ff 00 00 00 00                  ...........

No.     Time           Source                Destination           Protocol Length Info
   1990 27.721822      1.5.0                 host                  USB      27     Unknown type 7f

Frame 1990: Packet, 27 bytes on wire (216 bits), 27 bytes captured (216 bits) on interface \\.\USBPcap1, id 0
    Section number: 1
    Interface id: 0 (\\.\USBPcap1)
        Interface name: \\.\USBPcap1
        Interface description: USBPcap1
    Encapsulation type: USB packets with USBPcap header (152)
    Arrival Time: Dec  5, 2025 17:48:44.938000000 Финляндия (зима)
    UTC Arrival Time: Dec  5, 2025 15:48:44.938000000 UTC
    Epoch Arrival Time: 1764949724.938000000
    [Time shift for this packet: 0.000000000 seconds]
    [Time delta from previous captured frame: 2.000 microseconds]
    [Time delta from previous displayed frame: 2.000 microseconds]
    [Time since reference or first frame: 27.721822000 seconds]
    Frame Number: 1990
    Frame Length: 27 bytes (216 bits)
    Capture Length: 27 bytes (216 bits)
    [Frame is marked: False]
    [Frame is ignored: False]
    [Protocols in frame: usb]
    Character encoding: ASCII (0)
USB URB
    [Source: 1.5.0]
    [Destination: host]
    USBPcap pseudoheader length: 27
    IRP ID: 0xffff9906c4d8d9a0
    IRP USBD_STATUS: USBD_STATUS_SUCCESS (0x00000000)
    URB Function: URB_FUNCTION_GET_MS_FEATURE_DESCRIPTOR (0x002a)
    IRP information: 0x01, Direction: PDO -> FDO
        0000 000. = Reserved: 0x00
        .... ...1 = Direction: PDO -> FDO (0x1)
    URB bus id: 1
    Device address: 5
    Endpoint: 0x00, Direction: OUT
        0... .... = Direction: OUT (0)
        .... 0000 = Endpoint number: 0
    URB transfer type: Unknown (0xff)
        [Expert Info (Error/Malformed): USBPcap did not recognize URB Function code (report to desowin.org/USBPcap)]
            [USBPcap did not recognize URB Function code (report to desowin.org/USBPcap)]
            [Severity level: Error]
            [Group: Malformed]
    Packet Data Length: 0
    [Request in: 1989]
    [Time from request: 2.000 microseconds]

27.721822
0000  1b 00 a0 d9 d8 c4 06 99 ff ff 00 00 00 00 2a 00   ..............*.
0010  01 01 00 05 00 00 ff 00 00 00 00                  ...........

No.     Time           Source                Destination           Protocol Length Info
   1991 27.723080      host                  1.5.0                 USB      36     GET DESCRIPTOR Request STRING

Frame 1991: Packet, 36 bytes on wire (288 bits), 36 bytes captured (288 bits) on interface \\.\USBPcap1, id 0
    Section number: 1
    Interface id: 0 (\\.\USBPcap1)
        Interface name: \\.\USBPcap1
        Interface description: USBPcap1
    Encapsulation type: USB packets with USBPcap header (152)
    Arrival Time: Dec  5, 2025 17:48:44.939258000 Финляндия (зима)
    UTC Arrival Time: Dec  5, 2025 15:48:44.939258000 UTC
    Epoch Arrival Time: 1764949724.939258000
    [Time shift for this packet: 0.000000000 seconds]
    [Time delta from previous captured frame: 1.258000 milliseconds]
    [Time delta from previous displayed frame: 1.258000 milliseconds]
    [Time since reference or first frame: 27.723080000 seconds]
    Frame Number: 1991
    Frame Length: 36 bytes (288 bits)
    Capture Length: 36 bytes (288 bits)
    [Frame is marked: False]
    [Frame is ignored: False]
    [Protocols in frame: usb]
    Character encoding: ASCII (0)
USB URB
    [Source: host]
    [Destination: 1.5.0]
    USBPcap pseudoheader length: 28
    IRP ID: 0xffff9906803d49d0
    IRP USBD_STATUS: USBD_STATUS_SUCCESS (0x00000000)
    URB Function: URB_FUNCTION_GET_DESCRIPTOR_FROM_DEVICE (0x000b)
    IRP information: 0x00, Direction: FDO -> PDO
        0000 000. = Reserved: 0x00
        .... ...0 = Direction: FDO -> PDO (0x0)
    URB bus id: 1
    Device address: 5
    Endpoint: 0x80, Direction: IN
        1... .... = Direction: IN (1)
        .... 0000 = Endpoint number: 0
    URB transfer type: URB_CONTROL (0x02)
    Packet Data Length: 8
    [Response in: 1992]
    Control transfer stage: Setup (0)
Setup Data
    bmRequestType: 0x80
        1... .... = Direction: Device-to-host
        .00. .... = Type: Standard (0x0)
        ...0 0000 = Recipient: Device (0x00)
    bRequest: GET DESCRIPTOR (6)
    Descriptor Index: 0x02
    bDescriptorType: STRING (0x03)
    Language Id: English (United States) (0x0409)
    wLength: 4

27.723080
0000  1c 00 d0 49 3d 80 06 99 ff ff 00 00 00 00 0b 00   ...I=...........
0010  00 01 00 05 00 80 02 08 00 00 00 00 80 06 02 03   ................
0020  09 04 04 00                                       ....

No.     Time           Source                Destination           Protocol Length Info
   1992 27.723733      1.5.0                 host                  USB      32     GET DESCRIPTOR Response STRING

Frame 1992: Packet, 32 bytes on wire (256 bits), 32 bytes captured (256 bits) on interface \\.\USBPcap1, id 0
    Section number: 1
    Interface id: 0 (\\.\USBPcap1)
        Interface name: \\.\USBPcap1
        Interface description: USBPcap1
    Encapsulation type: USB packets with USBPcap header (152)
    Arrival Time: Dec  5, 2025 17:48:44.939911000 Финляндия (зима)
    UTC Arrival Time: Dec  5, 2025 15:48:44.939911000 UTC
    Epoch Arrival Time: 1764949724.939911000
    [Time shift for this packet: 0.000000000 seconds]
    [Time delta from previous captured frame: 653.000 microseconds]
    [Time delta from previous displayed frame: 653.000 microseconds]
    [Time since reference or first frame: 27.723733000 seconds]
    Frame Number: 1992
    Frame Length: 32 bytes (256 bits)
    Capture Length: 32 bytes (256 bits)
    [Frame is marked: False]
    [Frame is ignored: False]
    [Protocols in frame: usb]
    Character encoding: ASCII (0)
USB URB
    [Source: 1.5.0]
    [Destination: host]
    USBPcap pseudoheader length: 28
    IRP ID: 0xffff9906803d49d0
    IRP USBD_STATUS: USBD_STATUS_SUCCESS (0x00000000)
    URB Function: URB_FUNCTION_CONTROL_TRANSFER (0x0008)
    IRP information: 0x01, Direction: PDO -> FDO
        0000 000. = Reserved: 0x00
        .... ...1 = Direction: PDO -> FDO (0x1)
    URB bus id: 1
    Device address: 5
    Endpoint: 0x80, Direction: IN
        1... .... = Direction: IN (1)
        .... 0000 = Endpoint number: 0
    URB transfer type: URB_CONTROL (0x02)
    Packet Data Length: 4
    [Request in: 1991]
    [Time from request: 653.000 microseconds]
    Control transfer stage: Complete (3)
STRING DESCRIPTOR
    bLength: 54
    bDescriptorType: 0x03 (STRING)
    bString: R

27.723733
0000  1c 00 d0 49 3d 80 06 99 ff ff 00 00 00 00 08 00   ...I=...........
0010  01 01 00 05 00 80 02 04 00 00 00 03 36 03 52 00   ............6.R.

No.     Time           Source                Destination           Protocol Length Info
   1993 27.723776      host                  1.5.0                 USB      36     GET DESCRIPTOR Request STRING

Frame 1993: Packet, 36 bytes on wire (288 bits), 36 bytes captured (288 bits) on interface \\.\USBPcap1, id 0
    Section number: 1
    Interface id: 0 (\\.\USBPcap1)
        Interface name: \\.\USBPcap1
        Interface description: USBPcap1
    Encapsulation type: USB packets with USBPcap header (152)
    Arrival Time: Dec  5, 2025 17:48:44.939954000 Финляндия (зима)
    UTC Arrival Time: Dec  5, 2025 15:48:44.939954000 UTC
    Epoch Arrival Time: 1764949724.939954000
    [Time shift for this packet: 0.000000000 seconds]
    [Time delta from previous captured frame: 43.000 microseconds]
    [Time delta from previous displayed frame: 43.000 microseconds]
    [Time since reference or first frame: 27.723776000 seconds]
    Frame Number: 1993
    Frame Length: 36 bytes (288 bits)
    Capture Length: 36 bytes (288 bits)
    [Frame is marked: False]
    [Frame is ignored: False]
    [Protocols in frame: usb]
    Character encoding: ASCII (0)
USB URB
    [Source: host]
    [Destination: 1.5.0]
    USBPcap pseudoheader length: 28
    IRP ID: 0xffff9906c4d8d9a0
    IRP USBD_STATUS: USBD_STATUS_SUCCESS (0x00000000)
    URB Function: URB_FUNCTION_GET_DESCRIPTOR_FROM_DEVICE (0x000b)
    IRP information: 0x00, Direction: FDO -> PDO
        0000 000. = Reserved: 0x00
        .... ...0 = Direction: FDO -> PDO (0x0)
    URB bus id: 1
    Device address: 5
    Endpoint: 0x80, Direction: IN
        1... .... = Direction: IN (1)
        .... 0000 = Endpoint number: 0
    URB transfer type: URB_CONTROL (0x02)
    Packet Data Length: 8
    [Response in: 1994]
    Control transfer stage: Setup (0)
Setup Data
    bmRequestType: 0x80
        1... .... = Direction: Device-to-host
        .00. .... = Type: Standard (0x0)
        ...0 0000 = Recipient: Device (0x00)
    bRequest: GET DESCRIPTOR (6)
    Descriptor Index: 0x02
    bDescriptorType: STRING (0x03)
    Language Id: English (United States) (0x0409)
    wLength: 54

27.723776
0000  1c 00 a0 d9 d8 c4 06 99 ff ff 00 00 00 00 0b 00   ................
0010  00 01 00 05 00 80 02 08 00 00 00 00 80 06 02 03   ................
0020  09 04 36 00                                       ..6.

No.     Time           Source                Destination           Protocol Length Info
   1994 27.725759      1.5.0                 host                  USB      82     GET DESCRIPTOR Response STRING

Frame 1994: Packet, 82 bytes on wire (656 bits), 82 bytes captured (656 bits) on interface \\.\USBPcap1, id 0
    Section number: 1
    Interface id: 0 (\\.\USBPcap1)
        Interface name: \\.\USBPcap1
        Interface description: USBPcap1
    Encapsulation type: USB packets with USBPcap header (152)
    Arrival Time: Dec  5, 2025 17:48:44.941937000 Финляндия (зима)
    UTC Arrival Time: Dec  5, 2025 15:48:44.941937000 UTC
    Epoch Arrival Time: 1764949724.941937000
    [Time shift for this packet: 0.000000000 seconds]
    [Time delta from previous captured frame: 1.983000 milliseconds]
    [Time delta from previous displayed frame: 1.983000 milliseconds]
    [Time since reference or first frame: 27.725759000 seconds]
    Frame Number: 1994
    Frame Length: 82 bytes (656 bits)
    Capture Length: 82 bytes (656 bits)
    [Frame is marked: False]
    [Frame is ignored: False]
    [Protocols in frame: usb]
    Character encoding: ASCII (0)
USB URB
    [Source: 1.5.0]
    [Destination: host]
    USBPcap pseudoheader length: 28
    IRP ID: 0xffff9906c4d8d9a0
    IRP USBD_STATUS: USBD_STATUS_SUCCESS (0x00000000)
    URB Function: URB_FUNCTION_CONTROL_TRANSFER (0x0008)
    IRP information: 0x01, Direction: PDO -> FDO
        0000 000. = Reserved: 0x00
        .... ...1 = Direction: PDO -> FDO (0x1)
    URB bus id: 1
    Device address: 5
    Endpoint: 0x80, Direction: IN
        1... .... = Direction: IN (1)
        .... 0000 = Endpoint number: 0
    URB transfer type: URB_CONTROL (0x02)
    Packet Data Length: 54
    [Request in: 1993]
    [Time from request: 1.983000 milliseconds]
    Control transfer stage: Complete (3)
STRING DESCRIPTOR
    bLength: 54
    bDescriptorType: 0x03 (STRING)
    bString: Rapoo 2.4G Wireless Device

27.725759
0000  1c 00 a0 d9 d8 c4 06 99 ff ff 00 00 00 00 08 00   ................
0010  01 01 00 05 00 80 02 36 00 00 00 03 36 03 52 00   .......6....6.R.
0020  61 00 70 00 6f 00 6f 00 20 00 32 00 2e 00 34 00   a.p.o.o. .2...4.
0030  47 00 20 00 57 00 69 00 72 00 65 00 6c 00 65 00   G. .W.i.r.e.l.e.
0040  73 00 73 00 20 00 44 00 65 00 76 00 69 00 63 00   s.s. .D.e.v.i.c.
0050  65 00                                             e.

No.     Time           Source                Destination           Protocol Length Info
   1995 27.727551      host                  1.5.0                 USB      36     GET DESCRIPTOR Request STRING

Frame 1995: Packet, 36 bytes on wire (288 bits), 36 bytes captured (288 bits) on interface \\.\USBPcap1, id 0
    Section number: 1
    Interface id: 0 (\\.\USBPcap1)
        Interface name: \\.\USBPcap1
        Interface description: USBPcap1
    Encapsulation type: USB packets with USBPcap header (152)
    Arrival Time: Dec  5, 2025 17:48:44.943729000 Финляндия (зима)
    UTC Arrival Time: Dec  5, 2025 15:48:44.943729000 UTC
    Epoch Arrival Time: 1764949724.943729000
    [Time shift for this packet: 0.000000000 seconds]
    [Time delta from previous captured frame: 1.792000 milliseconds]
    [Time delta from previous displayed frame: 1.792000 milliseconds]
    [Time since reference or first frame: 27.727551000 seconds]
    Frame Number: 1995
    Frame Length: 36 bytes (288 bits)
    Capture Length: 36 bytes (288 bits)
    [Frame is marked: False]
    [Frame is ignored: False]
    [Protocols in frame: usb]
    Character encoding: ASCII (0)
USB URB
    [Source: host]
    [Destination: 1.5.0]
    USBPcap pseudoheader length: 28
    IRP ID: 0xffff99065ea1f010
    IRP USBD_STATUS: USBD_STATUS_SUCCESS (0x00000000)
    URB Function: URB_FUNCTION_GET_DESCRIPTOR_FROM_DEVICE (0x000b)
    IRP information: 0x00, Direction: FDO -> PDO
        0000 000. = Reserved: 0x00
        .... ...0 = Direction: FDO -> PDO (0x0)
    URB bus id: 1
    Device address: 5
    Endpoint: 0x80, Direction: IN
        1... .... = Direction: IN (1)
        .... 0000 = Endpoint number: 0
    URB transfer type: URB_CONTROL (0x02)
    Packet Data Length: 8
    [Response in: 1996]
    Control transfer stage: Setup (0)
Setup Data
    bmRequestType: 0x80
        1... .... = Direction: Device-to-host
        .00. .... = Type: Standard (0x0)
        ...0 0000 = Recipient: Device (0x00)
    bRequest: GET DESCRIPTOR (6)
    Descriptor Index: 0x02
    bDescriptorType: STRING (0x03)
    Language Id: English (United States) (0x0409)
    wLength: 4

27.727551
0000  1c 00 10 f0 a1 5e 06 99 ff ff 00 00 00 00 0b 00   .....^..........
0010  00 01 00 05 00 80 02 08 00 00 00 00 80 06 02 03   ................
0020  09 04 04 00                                       ....

No.     Time           Source                Destination           Protocol Length Info
   1996 27.728729      1.5.0                 host                  USB      32     GET DESCRIPTOR Response STRING

Frame 1996: Packet, 32 bytes on wire (256 bits), 32 bytes captured (256 bits) on interface \\.\USBPcap1, id 0
    Section number: 1
    Interface id: 0 (\\.\USBPcap1)
        Interface name: \\.\USBPcap1
        Interface description: USBPcap1
    Encapsulation type: USB packets with USBPcap header (152)
    Arrival Time: Dec  5, 2025 17:48:44.944907000 Финляндия (зима)
    UTC Arrival Time: Dec  5, 2025 15:48:44.944907000 UTC
    Epoch Arrival Time: 1764949724.944907000
    [Time shift for this packet: 0.000000000 seconds]
    [Time delta from previous captured frame: 1.178000 milliseconds]
    [Time delta from previous displayed frame: 1.178000 milliseconds]
    [Time since reference or first frame: 27.728729000 seconds]
    Frame Number: 1996
    Frame Length: 32 bytes (256 bits)
    Capture Length: 32 bytes (256 bits)
    [Frame is marked: False]
    [Frame is ignored: False]
    [Protocols in frame: usb]
    Character encoding: ASCII (0)
USB URB
    [Source: 1.5.0]
    [Destination: host]
    USBPcap pseudoheader length: 28
    IRP ID: 0xffff99065ea1f010
    IRP USBD_STATUS: USBD_STATUS_SUCCESS (0x00000000)
    URB Function: URB_FUNCTION_CONTROL_TRANSFER (0x0008)
    IRP information: 0x01, Direction: PDO -> FDO
        0000 000. = Reserved: 0x00
        .... ...1 = Direction: PDO -> FDO (0x1)
    URB bus id: 1
    Device address: 5
    Endpoint: 0x80, Direction: IN
        1... .... = Direction: IN (1)
        .... 0000 = Endpoint number: 0
    URB transfer type: URB_CONTROL (0x02)
    Packet Data Length: 4
    [Request in: 1995]
    [Time from request: 1.178000 milliseconds]
    Control transfer stage: Complete (3)
STRING DESCRIPTOR
    bLength: 54
    bDescriptorType: 0x03 (STRING)
    bString: R

27.728729
0000  1c 00 10 f0 a1 5e 06 99 ff ff 00 00 00 00 08 00   .....^..........
0010  01 01 00 05 00 80 02 04 00 00 00 03 36 03 52 00   ............6.R.

No.     Time           Source                Destination           Protocol Length Info
   1997 27.728788      host                  1.5.0                 USB      36     GET DESCRIPTOR Request STRING

Frame 1997: Packet, 36 bytes on wire (288 bits), 36 bytes captured (288 bits) on interface \\.\USBPcap1, id 0
    Section number: 1
    Interface id: 0 (\\.\USBPcap1)
        Interface name: \\.\USBPcap1
        Interface description: USBPcap1
    Encapsulation type: USB packets with USBPcap header (152)
    Arrival Time: Dec  5, 2025 17:48:44.944966000 Финляндия (зима)
    UTC Arrival Time: Dec  5, 2025 15:48:44.944966000 UTC
    Epoch Arrival Time: 1764949724.944966000
    [Time shift for this packet: 0.000000000 seconds]
    [Time delta from previous captured frame: 59.000 microseconds]
    [Time delta from previous displayed frame: 59.000 microseconds]
    [Time since reference or first frame: 27.728788000 seconds]
    Frame Number: 1997
    Frame Length: 36 bytes (288 bits)
    Capture Length: 36 bytes (288 bits)
    [Frame is marked: False]
    [Frame is ignored: False]
    [Protocols in frame: usb]
    Character encoding: ASCII (0)
USB URB
    [Source: host]
    [Destination: 1.5.0]
    USBPcap pseudoheader length: 28
    IRP ID: 0xffff99069932b7e0
    IRP USBD_STATUS: USBD_STATUS_SUCCESS (0x00000000)
    URB Function: URB_FUNCTION_GET_DESCRIPTOR_FROM_DEVICE (0x000b)
    IRP information: 0x00, Direction: FDO -> PDO
        0000 000. = Reserved: 0x00
        .... ...0 = Direction: FDO -> PDO (0x0)
    URB bus id: 1
    Device address: 5
    Endpoint: 0x80, Direction: IN
        1... .... = Direction: IN (1)
        .... 0000 = Endpoint number: 0
    URB transfer type: URB_CONTROL (0x02)
    Packet Data Length: 8
    [Response in: 1998]
    Control transfer stage: Setup (0)
Setup Data
    bmRequestType: 0x80
        1... .... = Direction: Device-to-host
        .00. .... = Type: Standard (0x0)
        ...0 0000 = Recipient: Device (0x00)
    bRequest: GET DESCRIPTOR (6)
    Descriptor Index: 0x02
    bDescriptorType: STRING (0x03)
    Language Id: English (United States) (0x0409)
    wLength: 54

27.728788
0000  1c 00 e0 b7 32 99 06 99 ff ff 00 00 00 00 0b 00   ....2...........
0010  00 01 00 05 00 80 02 08 00 00 00 00 80 06 02 03   ................
0020  09 04 36 00                                       ..6.

No.     Time           Source                Destination           Protocol Length Info
   1998 27.730769      1.5.0                 host                  USB      82     GET DESCRIPTOR Response STRING

Frame 1998: Packet, 82 bytes on wire (656 bits), 82 bytes captured (656 bits) on interface \\.\USBPcap1, id 0
    Section number: 1
    Interface id: 0 (\\.\USBPcap1)
        Interface name: \\.\USBPcap1
        Interface description: USBPcap1
    Encapsulation type: USB packets with USBPcap header (152)
    Arrival Time: Dec  5, 2025 17:48:44.946947000 Финляндия (зима)
    UTC Arrival Time: Dec  5, 2025 15:48:44.946947000 UTC
    Epoch Arrival Time: 1764949724.946947000
    [Time shift for this packet: 0.000000000 seconds]
    [Time delta from previous captured frame: 1.981000 milliseconds]
    [Time delta from previous displayed frame: 1.981000 milliseconds]
    [Time since reference or first frame: 27.730769000 seconds]
    Frame Number: 1998
    Frame Length: 82 bytes (656 bits)
    Capture Length: 82 bytes (656 bits)
    [Frame is marked: False]
    [Frame is ignored: False]
    [Protocols in frame: usb]
    Character encoding: ASCII (0)
USB URB
    [Source: 1.5.0]
    [Destination: host]
    USBPcap pseudoheader length: 28
    IRP ID: 0xffff99069932b7e0
    IRP USBD_STATUS: USBD_STATUS_SUCCESS (0x00000000)
    URB Function: URB_FUNCTION_CONTROL_TRANSFER (0x0008)
    IRP information: 0x01, Direction: PDO -> FDO
        0000 000. = Reserved: 0x00
        .... ...1 = Direction: PDO -> FDO (0x1)
    URB bus id: 1
    Device address: 5
    Endpoint: 0x80, Direction: IN
        1... .... = Direction: IN (1)
        .... 0000 = Endpoint number: 0
    URB transfer type: URB_CONTROL (0x02)
    Packet Data Length: 54
    [Request in: 1997]
    [Time from request: 1.981000 milliseconds]
    Control transfer stage: Complete (3)
STRING DESCRIPTOR
    bLength: 54
    bDescriptorType: 0x03 (STRING)
    bString: Rapoo 2.4G Wireless Device

27.730769
0000  1c 00 e0 b7 32 99 06 99 ff ff 00 00 00 00 08 00   ....2...........
0010  01 01 00 05 00 80 02 36 00 00 00 03 36 03 52 00   .......6....6.R.
0020  61 00 70 00 6f 00 6f 00 20 00 32 00 2e 00 34 00   a.p.o.o. .2...4.
0030  47 00 20 00 57 00 69 00 72 00 65 00 6c 00 65 00   G. .W.i.r.e.l.e.
0040  73 00 73 00 20 00 44 00 65 00 76 00 69 00 63 00   s.s. .D.e.v.i.c.
0050  65 00                                             e.

No.     Time           Source                Destination           Protocol Length Info
   1999 27.732443      host                  1.5.0                 USB      36     GET DESCRIPTOR Request STRING

Frame 1999: Packet, 36 bytes on wire (288 bits), 36 bytes captured (288 bits) on interface \\.\USBPcap1, id 0
    Section number: 1
    Interface id: 0 (\\.\USBPcap1)
        Interface name: \\.\USBPcap1
        Interface description: USBPcap1
    Encapsulation type: USB packets with USBPcap header (152)
    Arrival Time: Dec  5, 2025 17:48:44.948621000 Финляндия (зима)
    UTC Arrival Time: Dec  5, 2025 15:48:44.948621000 UTC
    Epoch Arrival Time: 1764949724.948621000
    [Time shift for this packet: 0.000000000 seconds]
    [Time delta from previous captured frame: 1.674000 milliseconds]
    [Time delta from previous displayed frame: 1.674000 milliseconds]
    [Time since reference or first frame: 27.732443000 seconds]
    Frame Number: 1999
    Frame Length: 36 bytes (288 bits)
    Capture Length: 36 bytes (288 bits)
    [Frame is marked: False]
    [Frame is ignored: False]
    [Protocols in frame: usb]
    Character encoding: ASCII (0)
USB URB
    [Source: host]
    [Destination: 1.5.0]
    USBPcap pseudoheader length: 28
    IRP ID: 0xffff99065ea1f010
    IRP USBD_STATUS: USBD_STATUS_SUCCESS (0x00000000)
    URB Function: URB_FUNCTION_GET_DESCRIPTOR_FROM_DEVICE (0x000b)
    IRP information: 0x00, Direction: FDO -> PDO
        0000 000. = Reserved: 0x00
        .... ...0 = Direction: FDO -> PDO (0x0)
    URB bus id: 1
    Device address: 5
    Endpoint: 0x80, Direction: IN
        1... .... = Direction: IN (1)
        .... 0000 = Endpoint number: 0
    URB transfer type: URB_CONTROL (0x02)
    Packet Data Length: 8
    [Response in: 2000]
    Control transfer stage: Setup (0)
Setup Data
    bmRequestType: 0x80
        1... .... = Direction: Device-to-host
        .00. .... = Type: Standard (0x0)
        ...0 0000 = Recipient: Device (0x00)
    bRequest: GET DESCRIPTOR (6)
    Descriptor Index: 0x02
    bDescriptorType: STRING (0x03)
    Language Id: English (United States) (0x0409)
    wLength: 4

27.732443
0000  1c 00 10 f0 a1 5e 06 99 ff ff 00 00 00 00 0b 00   .....^..........
0010  00 01 00 05 00 80 02 08 00 00 00 00 80 06 02 03   ................
0020  09 04 04 00                                       ....

No.     Time           Source                Destination           Protocol Length Info
   2000 27.732723      1.5.0                 host                  USB      32     GET DESCRIPTOR Response STRING

Frame 2000: Packet, 32 bytes on wire (256 bits), 32 bytes captured (256 bits) on interface \\.\USBPcap1, id 0
    Section number: 1
    Interface id: 0 (\\.\USBPcap1)
        Interface name: \\.\USBPcap1
        Interface description: USBPcap1
    Encapsulation type: USB packets with USBPcap header (152)
    Arrival Time: Dec  5, 2025 17:48:44.948901000 Финляндия (зима)
    UTC Arrival Time: Dec  5, 2025 15:48:44.948901000 UTC
    Epoch Arrival Time: 1764949724.948901000
    [Time shift for this packet: 0.000000000 seconds]
    [Time delta from previous captured frame: 280.000 microseconds]
    [Time delta from previous displayed frame: 280.000 microseconds]
    [Time since reference or first frame: 27.732723000 seconds]
    Frame Number: 2000
    Frame Length: 32 bytes (256 bits)
    Capture Length: 32 bytes (256 bits)
    [Frame is marked: False]
    [Frame is ignored: False]
    [Protocols in frame: usb]
    Character encoding: ASCII (0)
USB URB
    [Source: 1.5.0]
    [Destination: host]
    USBPcap pseudoheader length: 28
    IRP ID: 0xffff99065ea1f010
    IRP USBD_STATUS: USBD_STATUS_SUCCESS (0x00000000)
    URB Function: URB_FUNCTION_CONTROL_TRANSFER (0x0008)
    IRP information: 0x01, Direction: PDO -> FDO
        0000 000. = Reserved: 0x00
        .... ...1 = Direction: PDO -> FDO (0x1)
    URB bus id: 1
    Device address: 5
    Endpoint: 0x80, Direction: IN
        1... .... = Direction: IN (1)
        .... 0000 = Endpoint number: 0
    URB transfer type: URB_CONTROL (0x02)
    Packet Data Length: 4
    [Request in: 1999]
    [Time from request: 280.000 microseconds]
    Control transfer stage: Complete (3)
STRING DESCRIPTOR
    bLength: 54
    bDescriptorType: 0x03 (STRING)
    bString: R

27.732723
0000  1c 00 10 f0 a1 5e 06 99 ff ff 00 00 00 00 08 00   .....^..........
0010  01 01 00 05 00 80 02 04 00 00 00 03 36 03 52 00   ............6.R.

No.     Time           Source                Destination           Protocol Length Info
   2001 27.732751      host                  1.5.0                 USB      36     GET DESCRIPTOR Request STRING

Frame 2001: Packet, 36 bytes on wire (288 bits), 36 bytes captured (288 bits) on interface \\.\USBPcap1, id 0
    Section number: 1
    Interface id: 0 (\\.\USBPcap1)
        Interface name: \\.\USBPcap1
        Interface description: USBPcap1
    Encapsulation type: USB packets with USBPcap header (152)
    Arrival Time: Dec  5, 2025 17:48:44.948929000 Финляндия (зима)
    UTC Arrival Time: Dec  5, 2025 15:48:44.948929000 UTC
    Epoch Arrival Time: 1764949724.948929000
    [Time shift for this packet: 0.000000000 seconds]
    [Time delta from previous captured frame: 28.000 microseconds]
    [Time delta from previous displayed frame: 28.000 microseconds]
    [Time since reference or first frame: 27.732751000 seconds]
    Frame Number: 2001
    Frame Length: 36 bytes (288 bits)
    Capture Length: 36 bytes (288 bits)
    [Frame is marked: False]
    [Frame is ignored: False]
    [Protocols in frame: usb]
    Character encoding: ASCII (0)
USB URB
    [Source: host]
    [Destination: 1.5.0]
    USBPcap pseudoheader length: 28
    IRP ID: 0xffff9906972d7660
    IRP USBD_STATUS: USBD_STATUS_SUCCESS (0x00000000)
    URB Function: URB_FUNCTION_GET_DESCRIPTOR_FROM_DEVICE (0x000b)
    IRP information: 0x00, Direction: FDO -> PDO
        0000 000. = Reserved: 0x00
        .... ...0 = Direction: FDO -> PDO (0x0)
    URB bus id: 1
    Device address: 5
    Endpoint: 0x80, Direction: IN
        1... .... = Direction: IN (1)
        .... 0000 = Endpoint number: 0
    URB transfer type: URB_CONTROL (0x02)
    Packet Data Length: 8
    [Response in: 2002]
    Control transfer stage: Setup (0)
Setup Data
    bmRequestType: 0x80
        1... .... = Direction: Device-to-host
        .00. .... = Type: Standard (0x0)
        ...0 0000 = Recipient: Device (0x00)
    bRequest: GET DESCRIPTOR (6)
    Descriptor Index: 0x02
    bDescriptorType: STRING (0x03)
    Language Id: English (United States) (0x0409)
    wLength: 54

27.732751
0000  1c 00 60 76 2d 97 06 99 ff ff 00 00 00 00 0b 00   ..`v-...........
0010  00 01 00 05 00 80 02 08 00 00 00 00 80 06 02 03   ................
0020  09 04 36 00                                       ..6.

No.     Time           Source                Destination           Protocol Length Info
   2002 27.734763      1.5.0                 host                  USB      82     GET DESCRIPTOR Response STRING

Frame 2002: Packet, 82 bytes on wire (656 bits), 82 bytes captured (656 bits) on interface \\.\USBPcap1, id 0
    Section number: 1
    Interface id: 0 (\\.\USBPcap1)
        Interface name: \\.\USBPcap1
        Interface description: USBPcap1
    Encapsulation type: USB packets with USBPcap header (152)
    Arrival Time: Dec  5, 2025 17:48:44.950941000 Финляндия (зима)
    UTC Arrival Time: Dec  5, 2025 15:48:44.950941000 UTC
    Epoch Arrival Time: 1764949724.950941000
    [Time shift for this packet: 0.000000000 seconds]
    [Time delta from previous captured frame: 2.012000 milliseconds]
    [Time delta from previous displayed frame: 2.012000 milliseconds]
    [Time since reference or first frame: 27.734763000 seconds]
    Frame Number: 2002
    Frame Length: 82 bytes (656 bits)
    Capture Length: 82 bytes (656 bits)
    [Frame is marked: False]
    [Frame is ignored: False]
    [Protocols in frame: usb]
    Character encoding: ASCII (0)
USB URB
    [Source: 1.5.0]
    [Destination: host]
    USBPcap pseudoheader length: 28
    IRP ID: 0xffff9906972d7660
    IRP USBD_STATUS: USBD_STATUS_SUCCESS (0x00000000)
    URB Function: URB_FUNCTION_CONTROL_TRANSFER (0x0008)
    IRP information: 0x01, Direction: PDO -> FDO
        0000 000. = Reserved: 0x00
        .... ...1 = Direction: PDO -> FDO (0x1)
    URB bus id: 1
    Device address: 5
    Endpoint: 0x80, Direction: IN
        1... .... = Direction: IN (1)
        .... 0000 = Endpoint number: 0
    URB transfer type: URB_CONTROL (0x02)
    Packet Data Length: 54
    [Request in: 2001]
    [Time from request: 2.012000 milliseconds]
    Control transfer stage: Complete (3)
STRING DESCRIPTOR
    bLength: 54
    bDescriptorType: 0x03 (STRING)
    bString: Rapoo 2.4G Wireless Device

27.734763
0000  1c 00 60 76 2d 97 06 99 ff ff 00 00 00 00 08 00   ..`v-...........
0010  01 01 00 05 00 80 02 36 00 00 00 03 36 03 52 00   .......6....6.R.
0020  61 00 70 00 6f 00 6f 00 20 00 32 00 2e 00 34 00   a.p.o.o. .2...4.
0030  47 00 20 00 57 00 69 00 72 00 65 00 6c 00 65 00   G. .W.i.r.e.l.e.
0040  73 00 73 00 20 00 44 00 65 00 76 00 69 00 63 00   s.s. .D.e.v.i.c.
0050  65 00                                             e.

No.     Time           Source                Destination           Protocol Length Info
   2003 27.736926      host                  1.5.0                 USBHID   36     SET_IDLE Request

Frame 2003: Packet, 36 bytes on wire (288 bits), 36 bytes captured (288 bits) on interface \\.\USBPcap1, id 0
    Section number: 1
    Interface id: 0 (\\.\USBPcap1)
        Interface name: \\.\USBPcap1
        Interface description: USBPcap1
    Encapsulation type: USB packets with USBPcap header (152)
    Arrival Time: Dec  5, 2025 17:48:44.953104000 Финляндия (зима)
    UTC Arrival Time: Dec  5, 2025 15:48:44.953104000 UTC
    Epoch Arrival Time: 1764949724.953104000
    [Time shift for this packet: 0.000000000 seconds]
    [Time delta from previous captured frame: 2.163000 milliseconds]
    [Time delta from previous displayed frame: 2.163000 milliseconds]
    [Time since reference or first frame: 27.736926000 seconds]
    Frame Number: 2003
    Frame Length: 36 bytes (288 bits)
    Capture Length: 36 bytes (288 bits)
    [Frame is marked: False]
    [Frame is ignored: False]
    [Protocols in frame: usb:usbhid]
    Character encoding: ASCII (0)
USB URB
    [Source: host]
    [Destination: 1.5.0]
    USBPcap pseudoheader length: 28
    IRP ID: 0xffff99065b6d6010
    IRP USBD_STATUS: USBD_STATUS_SUCCESS (0x00000000)
    URB Function: URB_FUNCTION_CLASS_INTERFACE (0x001b)
    IRP information: 0x00, Direction: FDO -> PDO
        0000 000. = Reserved: 0x00
        .... ...0 = Direction: FDO -> PDO (0x0)
    URB bus id: 1
    Device address: 5
    Endpoint: 0x00, Direction: OUT
        0... .... = Direction: OUT (0)
        .... 0000 = Endpoint number: 0
    URB transfer type: URB_CONTROL (0x02)
    Packet Data Length: 8
    [Response in: 2004]
    Control transfer stage: Setup (0)
    [bInterfaceClass: HID (0x03)]
Setup Data
    bmRequestType: 0x21
        0... .... = Direction: Host-to-device
        .01. .... = Type: Class (0x1)
        ...0 0001 = Recipient: Interface (0x01)
    bRequest: SET_IDLE (0x0a)
    wValue: 0x0000
        ReportID: 0
        Duration: 0
    wIndex: 0
    wLength: 0

27.736926
0000  1c 00 10 60 6d 5b 06 99 ff ff 00 00 00 00 1b 00   ...`m[..........
0010  00 01 00 05 00 00 02 08 00 00 00 00 21 0a 00 00   ............!...
0020  00 00 00 00                                       ....

No.     Time           Source                Destination           Protocol Length Info
   2004 27.737728      1.5.0                 host                  USBHID   28     SET_IDLE Response

Frame 2004: Packet, 28 bytes on wire (224 bits), 28 bytes captured (224 bits) on interface \\.\USBPcap1, id 0
    Section number: 1
    Interface id: 0 (\\.\USBPcap1)
        Interface name: \\.\USBPcap1
        Interface description: USBPcap1
    Encapsulation type: USB packets with USBPcap header (152)
    Arrival Time: Dec  5, 2025 17:48:44.953906000 Финляндия (зима)
    UTC Arrival Time: Dec  5, 2025 15:48:44.953906000 UTC
    Epoch Arrival Time: 1764949724.953906000
    [Time shift for this packet: 0.000000000 seconds]
    [Time delta from previous captured frame: 802.000 microseconds]
    [Time delta from previous displayed frame: 802.000 microseconds]
    [Time since reference or first frame: 27.737728000 seconds]
    Frame Number: 2004
    Frame Length: 28 bytes (224 bits)
    Capture Length: 28 bytes (224 bits)
    [Frame is marked: False]
    [Frame is ignored: False]
    [Protocols in frame: usb]
    Character encoding: ASCII (0)
USB URB
    [Source: 1.5.0]
    [Destination: host]
    USBPcap pseudoheader length: 28
    IRP ID: 0xffff99065b6d6010
    IRP USBD_STATUS: USBD_STATUS_SUCCESS (0x00000000)
    URB Function: URB_FUNCTION_CONTROL_TRANSFER (0x0008)
    IRP information: 0x01, Direction: PDO -> FDO
        0000 000. = Reserved: 0x00
        .... ...1 = Direction: PDO -> FDO (0x1)
    URB bus id: 1
    Device address: 5
    Endpoint: 0x00, Direction: OUT
        0... .... = Direction: OUT (0)
        .... 0000 = Endpoint number: 0
    URB transfer type: URB_CONTROL (0x02)
    Packet Data Length: 0
    [Request in: 2003]
    [Time from request: 802.000 microseconds]
    Control transfer stage: Complete (3)
    [bInterfaceClass: HID (0x03)]

27.737728
0000  1c 00 10 60 6d 5b 06 99 ff ff 00 00 00 00 08 00   ...`m[..........
0010  01 01 00 05 00 00 02 00 00 00 00 03               ............

No.     Time           Source                Destination           Protocol Length Info
   2005 27.737834      host                  1.5.0                 USBHID   36     GET DESCRIPTOR Request HID Report

Frame 2005: Packet, 36 bytes on wire (288 bits), 36 bytes captured (288 bits) on interface \\.\USBPcap1, id 0
    Section number: 1
    Interface id: 0 (\\.\USBPcap1)
        Interface name: \\.\USBPcap1
        Interface description: USBPcap1
    Encapsulation type: USB packets with USBPcap header (152)
    Arrival Time: Dec  5, 2025 17:48:44.954012000 Финляндия (зима)
    UTC Arrival Time: Dec  5, 2025 15:48:44.954012000 UTC
    Epoch Arrival Time: 1764949724.954012000
    [Time shift for this packet: 0.000000000 seconds]
    [Time delta from previous captured frame: 106.000 microseconds]
    [Time delta from previous displayed frame: 106.000 microseconds]
    [Time since reference or first frame: 27.737834000 seconds]
    Frame Number: 2005
    Frame Length: 36 bytes (288 bits)
    Capture Length: 36 bytes (288 bits)
    [Frame is marked: False]
    [Frame is ignored: False]
    [Protocols in frame: usb:usbhid]
    Character encoding: ASCII (0)
USB URB
    [Source: host]
    [Destination: 1.5.0]
    USBPcap pseudoheader length: 28
    IRP ID: 0xffff9906751429c0
    IRP USBD_STATUS: USBD_STATUS_SUCCESS (0x00000000)
    URB Function: URB_FUNCTION_GET_DESCRIPTOR_FROM_INTERFACE (0x0028)
    IRP information: 0x00, Direction: FDO -> PDO
        0000 000. = Reserved: 0x00
        .... ...0 = Direction: FDO -> PDO (0x0)
    URB bus id: 1
    Device address: 5
    Endpoint: 0x80, Direction: IN
        1... .... = Direction: IN (1)
        .... 0000 = Endpoint number: 0
    URB transfer type: URB_CONTROL (0x02)
    Packet Data Length: 8
    [Response in: 2006]
    Control transfer stage: Setup (0)
    [bInterfaceClass: HID (0x03)]
Setup Data
    bmRequestType: 0x81
        1... .... = Direction: Device-to-host
        .00. .... = Type: Standard (0x0)
        ...0 0001 = Recipient: Interface (0x01)
    bDescriptorIndex: 0x00
    bDescriptorType: HID Report (0x22)
    wInterfaceNumber: 0
    wDescriptorLength: 128

27.737834
0000  1c 00 c0 29 14 75 06 99 ff ff 00 00 00 00 28 00   ...).u........(.
0010  00 01 00 05 00 80 02 08 00 00 00 00 81 06 00 22   ..............."
0020  00 00 80 00                                       ....

No.     Time           Source                Destination           Protocol Length Info
   2006 27.740721      1.5.0                 host                  USBHID   92     GET DESCRIPTOR Response HID Report

Frame 2006: Packet, 92 bytes on wire (736 bits), 92 bytes captured (736 bits) on interface \\.\USBPcap1, id 0
    Section number: 1
    Interface id: 0 (\\.\USBPcap1)
        Interface name: \\.\USBPcap1
        Interface description: USBPcap1
    Encapsulation type: USB packets with USBPcap header (152)
    Arrival Time: Dec  5, 2025 17:48:44.956899000 Финляндия (зима)
    UTC Arrival Time: Dec  5, 2025 15:48:44.956899000 UTC
    Epoch Arrival Time: 1764949724.956899000
    [Time shift for this packet: 0.000000000 seconds]
    [Time delta from previous captured frame: 2.887000 milliseconds]
    [Time delta from previous displayed frame: 2.887000 milliseconds]
    [Time since reference or first frame: 27.740721000 seconds]
    Frame Number: 2006
    Frame Length: 92 bytes (736 bits)
    Capture Length: 92 bytes (736 bits)
    [Frame is marked: False]
    [Frame is ignored: False]
    [Protocols in frame: usb:usbhid]
    Character encoding: ASCII (0)
USB URB
    [Source: 1.5.0]
    [Destination: host]
    USBPcap pseudoheader length: 28
    IRP ID: 0xffff9906751429c0
    IRP USBD_STATUS: USBD_STATUS_SUCCESS (0x00000000)
    URB Function: URB_FUNCTION_CONTROL_TRANSFER (0x0008)
    IRP information: 0x01, Direction: PDO -> FDO
        0000 000. = Reserved: 0x00
        .... ...1 = Direction: PDO -> FDO (0x1)
    URB bus id: 1
    Device address: 5
    Endpoint: 0x80, Direction: IN
        1... .... = Direction: IN (1)
        .... 0000 = Endpoint number: 0
    URB transfer type: URB_CONTROL (0x02)
    Packet Data Length: 64
    [Request in: 2005]
    [Time from request: 2.887000 milliseconds]
    Control transfer stage: Complete (3)
    [bInterfaceClass: HID (0x03)]
HID Report
    Usage Page (Generic Desktop Controls)
        Header
            .... ..01 = bSize: 1 byte (1)
            .... 01.. = bType: Global (1)
            0000 .... = bTag: Usage Page (0x0)
        Usage Page: Generic Desktop Controls (0x01)
    Usage (Mouse)
        Header
            .... ..01 = bSize: 1 byte (1)
            .... 10.. = bType: Local (2)
            0000 .... = bTag: Usage (0x0)
        Usage: Mouse (0x02)
    Collection (Application)
        Header
            .... ..01 = bSize: 1 byte (1)
            .... 00.. = bType: Main (0)
            1010 .... = bTag: Collection (0xa)
        Collection type: Application (0x01)
        Usage (Pointer)
            Header
                .... ..01 = bSize: 1 byte (1)
                .... 10.. = bType: Local (2)
                0000 .... = bTag: Usage (0x0)
            Usage: Pointer (0x01)
        Collection (Physical)
            Header
                .... ..01 = bSize: 1 byte (1)
                .... 00.. = bType: Main (0)
                1010 .... = bTag: Collection (0xa)
            Collection type: Physical (0x00)
            Usage Page (Button)
                Header
                    .... ..01 = bSize: 1 byte (1)
                    .... 01.. = bType: Global (1)
                    0000 .... = bTag: Usage Page (0x0)
                Usage Page: Button (0x09)
            Usage Minimum (0x01)
                Header
                    .... ..01 = bSize: 1 byte (1)
                    .... 10.. = bType: Local (2)
                    0001 .... = bTag: Usage Minimum (0x1)
                Usage minimum: 0x01
            Usage Maximum (0x05)
                Header
                    .... ..01 = bSize: 1 byte (1)
                    .... 10.. = bType: Local (2)
                    0010 .... = bTag: Usage Maximum (0x2)
                Usage maximum: 0x05
            Logical Minimum (0)
                Header
                    .... ..01 = bSize: 1 byte (1)
                    .... 01.. = bType: Global (1)
                    0001 .... = bTag: Logical Minimum (0x1)
                Logical minimum: 0
            Logical Maximum (1)
                Header
                    .... ..01 = bSize: 1 byte (1)
                    .... 01.. = bType: Global (1)
                    0010 .... = bTag: Logical Maximum (0x2)
                Logical maximum: 1
            Report Count (5)
                Header
                    .... ..01 = bSize: 1 byte (1)
                    .... 01.. = bType: Global (1)
                    1001 .... = bTag: Report Count (0x9)
                Report count: 5
            Report Size (1)
                Header
                    .... ..01 = bSize: 1 byte (1)
                    .... 01.. = bType: Global (1)
                    0111 .... = bTag: Report Size (0x7)
                Report size: 1
            Input (Data,Var,Abs)
                Header
                    .... ..01 = bSize: 1 byte (1)
                    .... 00.. = bType: Main (0)
                    1000 .... = bTag: Input (0x8)
                .... .... 0 = Data/constant: Data
                .... ...1 . = Data type: Variable
                .... ..0. . = Coordinates: Absolute
                .... .0.. . = Min/max wraparound: No Wrap
                .... 0... . = Physical relationship to data: Linear
                ...0 .... . = Preferred state: Preferred State
                ..0. .... . = Has null position: No Null position
                .0.. .... . = [Reserved]: False
                0... .... . = Bits or bytes: Buffered bytes (default, no second byte present)
            Report Count (1)
                Header
                    .... ..01 = bSize: 1 byte (1)
                    .... 01.. = bType: Global (1)
                    1001 .... = bTag: Report Count (0x9)
                Report count: 1
            Report Size (3)
                Header
                    .... ..01 = bSize: 1 byte (1)
                    .... 01.. = bType: Global (1)
                    0111 .... = bTag: Report Size (0x7)
                Report size: 3
            Input (Const,Var,Abs)
                Header
                    .... ..01 = bSize: 1 byte (1)
                    .... 00.. = bType: Main (0)
                    1000 .... = bTag: Input (0x8)
                .... .... 1 = Data/constant: Constant
                .... ...1 . = Data type: Variable
                .... ..0. . = Coordinates: Absolute
                .... .0.. . = Min/max wraparound: No Wrap
                .... 0... . = Physical relationship to data: Linear
                ...0 .... . = Preferred state: Preferred State
                ..0. .... . = Has null position: No Null position
                .0.. .... . = [Reserved]: False
                0... .... . = Bits or bytes: Buffered bytes (default, no second byte present)
            Usage Page (Generic Desktop Controls)
                Header
                    .... ..01 = bSize: 1 byte (1)
                    .... 01.. = bType: Global (1)
                    0000 .... = bTag: Usage Page (0x0)
                Usage Page: Generic Desktop Controls (0x01)
            Usage (X)
                Header
                    .... ..01 = bSize: 1 byte (1)
                    .... 10.. = bType: Local (2)
                    0000 .... = bTag: Usage (0x0)
                Usage: X (0x30)
            Usage (Y)
                Header
                    .... ..01 = bSize: 1 byte (1)
                    .... 10.. = bType: Local (2)
                    0000 .... = bTag: Usage (0x0)
                Usage: Y (0x31)
            Logical Minimum (-32767)
                Header
                    .... ..10 = bSize: 2 bytes (2)
                    .... 01.. = bType: Global (1)
                    0001 .... = bTag: Logical Minimum (0x1)
                Logical minimum: -32767
            Logical Maximum (32767)
                Header
                    .... ..10 = bSize: 2 bytes (2)
                    .... 01.. = bType: Global (1)
                    0010 .... = bTag: Logical Maximum (0x2)
                Logical maximum: 32767
            Report Size (16)
                Header
                    .... ..01 = bSize: 1 byte (1)
                    .... 01.. = bType: Global (1)
                    0111 .... = bTag: Report Size (0x7)
                Report size: 16
            Report Count (2)
                Header
                    .... ..01 = bSize: 1 byte (1)
                    .... 01.. = bType: Global (1)
                    1001 .... = bTag: Report Count (0x9)
                Report count: 2
            Input (Data,Var,Rel)
                Header
                    .... ..01 = bSize: 1 byte (1)
                    .... 00.. = bType: Main (0)
                    1000 .... = bTag: Input (0x8)
                .... .... 0 = Data/constant: Data
                .... ...1 . = Data type: Variable
                .... ..1. . = Coordinates: Relative
                .... .0.. . = Min/max wraparound: No Wrap
                .... 0... . = Physical relationship to data: Linear
                ...0 .... . = Preferred state: Preferred State
                ..0. .... . = Has null position: No Null position
                .0.. .... . = [Reserved]: False
                0... .... . = Bits or bytes: Buffered bytes (default, no second byte present)
            Usage (Wheel)
                Header
                    .... ..01 = bSize: 1 byte (1)
                    .... 10.. = bType: Local (2)
                    0000 .... = bTag: Usage (0x0)
                Usage: Wheel (0x38)
            Logical Minimum (-127)
                Header
                    .... ..01 = bSize: 1 byte (1)
                    .... 01.. = bType: Global (1)
                    0001 .... = bTag: Logical Minimum (0x1)
                Logical minimum: -127
            Logical Maximum (127)
                Header
                    .... ..01 = bSize: 1 byte (1)
                    .... 01.. = bType: Global (1)
                    0010 .... = bTag: Logical Maximum (0x2)
                Logical maximum: 127
            Report Size (8)
                Header
                    .... ..01 = bSize: 1 byte (1)
                    .... 01.. = bType: Global (1)
                    0111 .... = bTag: Report Size (0x7)
                Report size: 8
            Report Count (1)
                Header
                    .... ..01 = bSize: 1 byte (1)
                    .... 01.. = bType: Global (1)
                    1001 .... = bTag: Report Count (0x9)
                Report count: 1
            Input (Data,Var,Rel)
                Header
                    .... ..01 = bSize: 1 byte (1)
                    .... 00.. = bType: Main (0)
                    1000 .... = bTag: Input (0x8)
                .... .... 0 = Data/constant: Data
                .... ...1 . = Data type: Variable
                .... ..1. . = Coordinates: Relative
                .... .0.. . = Min/max wraparound: No Wrap
                .... 0... . = Physical relationship to data: Linear
                ...0 .... . = Preferred state: Preferred State
                ..0. .... . = Has null position: No Null position
                .0.. .... . = [Reserved]: False
                0... .... . = Bits or bytes: Buffered bytes (default, no second byte present)
            End Collection
                Header
                    .... ..00 = bSize: 0 bytes (0)
                    .... 00.. = bType: Main (0)
                    1100 .... = bTag: End Collection (0xc)
        End Collection
            Header
                .... ..00 = bSize: 0 bytes (0)
                .... 00.. = bType: Main (0)
                1100 .... = bTag: End Collection (0xc)

27.740721
0000  1c 00 c0 29 14 75 06 99 ff ff 00 00 00 00 08 00   ...).u..........
0010  01 01 00 05 00 80 02 40 00 00 00 03 05 01 09 02   .......@........
0020  a1 01 09 01 a1 00 05 09 19 01 29 05 15 00 25 01   ..........)...%.
0030  95 05 75 01 81 02 95 01 75 03 81 03 05 01 09 30   ..u.....u......0
0040  09 31 16 01 80 26 ff 7f 75 10 95 02 81 06 09 38   .1...&..u......8
0050  15 81 25 7f 75 08 95 01 81 06 c0 c0               ..%.u.......

No.     Time           Source                Destination           Protocol Length Info
   2007 27.742427      host                  1.5.1                 USB      27     URB_INTERRUPT in

Frame 2007: Packet, 27 bytes on wire (216 bits), 27 bytes captured (216 bits) on interface \\.\USBPcap1, id 0
    Section number: 1
    Interface id: 0 (\\.\USBPcap1)
        Interface name: \\.\USBPcap1
        Interface description: USBPcap1
    Encapsulation type: USB packets with USBPcap header (152)
    Arrival Time: Dec  5, 2025 17:48:44.958605000 Финляндия (зима)
    UTC Arrival Time: Dec  5, 2025 15:48:44.958605000 UTC
    Epoch Arrival Time: 1764949724.958605000
    [Time shift for this packet: 0.000000000 seconds]
    [Time delta from previous captured frame: 1.706000 milliseconds]
    [Time delta from previous displayed frame: 1.706000 milliseconds]
    [Time since reference or first frame: 27.742427000 seconds]
    Frame Number: 2007
    Frame Length: 27 bytes (216 bits)
    Capture Length: 27 bytes (216 bits)
    [Frame is marked: False]
    [Frame is ignored: False]
    [Protocols in frame: usb]
    Character encoding: ASCII (0)
USB URB
    [Source: host]
    [Destination: 1.5.1]
    USBPcap pseudoheader length: 27
    IRP ID: 0xffff990662a94990
    IRP USBD_STATUS: USBD_STATUS_SUCCESS (0x00000000)
    URB Function: URB_FUNCTION_BULK_OR_INTERRUPT_TRANSFER (0x0009)
    IRP information: 0x00, Direction: FDO -> PDO
        0000 000. = Reserved: 0x00
        .... ...0 = Direction: FDO -> PDO (0x0)
    URB bus id: 1
    Device address: 5
    Endpoint: 0x81, Direction: IN
        1... .... = Direction: IN (1)
        .... 0001 = Endpoint number: 1
    URB transfer type: URB_INTERRUPT (0x01)
    Packet Data Length: 0
    [Response in: 2467]
    [bInterfaceClass: HID (0x03)]

27.742427
0000  1b 00 90 49 a9 62 06 99 ff ff 00 00 00 00 09 00   ...I.b..........
0010  00 01 00 05 00 81 01 00 00 00 00                  ...........

No.     Time           Source                Destination           Protocol Length Info
   2008 27.742487      host                  1.5.1                 USB      27     URB_INTERRUPT in

Frame 2008: Packet, 27 bytes on wire (216 bits), 27 bytes captured (216 bits) on interface \\.\USBPcap1, id 0
    Section number: 1
    Interface id: 0 (\\.\USBPcap1)
        Interface name: \\.\USBPcap1
        Interface description: USBPcap1
    Encapsulation type: USB packets with USBPcap header (152)
    Arrival Time: Dec  5, 2025 17:48:44.958665000 Финляндия (зима)
    UTC Arrival Time: Dec  5, 2025 15:48:44.958665000 UTC
    Epoch Arrival Time: 1764949724.958665000
    [Time shift for this packet: 0.000000000 seconds]
    [Time delta from previous captured frame: 60.000 microseconds]
    [Time delta from previous displayed frame: 60.000 microseconds]
    [Time since reference or first frame: 27.742487000 seconds]
    Frame Number: 2008
    Frame Length: 27 bytes (216 bits)
    Capture Length: 27 bytes (216 bits)
    [Frame is marked: False]
    [Frame is ignored: False]
    [Protocols in frame: usb]
    Character encoding: ASCII (0)
USB URB
    [Source: host]
    [Destination: 1.5.1]
    USBPcap pseudoheader length: 27
    IRP ID: 0xffff99066ae8c990
    IRP USBD_STATUS: USBD_STATUS_SUCCESS (0x00000000)
    URB Function: URB_FUNCTION_BULK_OR_INTERRUPT_TRANSFER (0x0009)
    IRP information: 0x00, Direction: FDO -> PDO
        0000 000. = Reserved: 0x00
        .... ...0 = Direction: FDO -> PDO (0x0)
    URB bus id: 1
    Device address: 5
    Endpoint: 0x81, Direction: IN
        1... .... = Direction: IN (1)
        .... 0001 = Endpoint number: 1
    URB transfer type: URB_INTERRUPT (0x01)
    Packet Data Length: 0
    [Response in: 2469]
    [bInterfaceClass: HID (0x03)]

27.742487
0000  1b 00 90 c9 e8 6a 06 99 ff ff 00 00 00 00 09 00   .....j..........
0010  00 01 00 05 00 81 01 00 00 00 00                  ...........

No.     Time           Source                Destination           Protocol Length Info
   2009 27.745172      host                  1.5.0                 USBHID   36     SET_IDLE Request

Frame 2009: Packet, 36 bytes on wire (288 bits), 36 bytes captured (288 bits) on interface \\.\USBPcap1, id 0
    Section number: 1
    Interface id: 0 (\\.\USBPcap1)
        Interface name: \\.\USBPcap1
        Interface description: USBPcap1
    Encapsulation type: USB packets with USBPcap header (152)
    Arrival Time: Dec  5, 2025 17:48:44.961350000 Финляндия (зима)
    UTC Arrival Time: Dec  5, 2025 15:48:44.961350000 UTC
    Epoch Arrival Time: 1764949724.961350000
    [Time shift for this packet: 0.000000000 seconds]
    [Time delta from previous captured frame: 2.685000 milliseconds]
    [Time delta from previous displayed frame: 2.685000 milliseconds]
    [Time since reference or first frame: 27.745172000 seconds]
    Frame Number: 2009
    Frame Length: 36 bytes (288 bits)
    Capture Length: 36 bytes (288 bits)
    [Frame is marked: False]
    [Frame is ignored: False]
    [Protocols in frame: usb:usbhid]
    Character encoding: ASCII (0)
USB URB
    [Source: host]
    [Destination: 1.5.0]
    USBPcap pseudoheader length: 28
    IRP ID: 0xffff99068ab74620
    IRP USBD_STATUS: USBD_STATUS_SUCCESS (0x00000000)
    URB Function: URB_FUNCTION_CLASS_INTERFACE (0x001b)
    IRP information: 0x00, Direction: FDO -> PDO
        0000 000. = Reserved: 0x00
        .... ...0 = Direction: FDO -> PDO (0x0)
    URB bus id: 1
    Device address: 5
    Endpoint: 0x00, Direction: OUT
        0... .... = Direction: OUT (0)
        .... 0000 = Endpoint number: 0
    URB transfer type: URB_CONTROL (0x02)
    Packet Data Length: 8
    [Response in: 2010]
    Control transfer stage: Setup (0)
    [bInterfaceClass: HID (0x03)]
Setup Data
    bmRequestType: 0x21
        0... .... = Direction: Host-to-device
        .01. .... = Type: Class (0x1)
        ...0 0001 = Recipient: Interface (0x01)
    bRequest: SET_IDLE (0x0a)
    wValue: 0x0000
        ReportID: 0
        Duration: 0
    wIndex: 1
    wLength: 0

27.745172
0000  1c 00 20 46 b7 8a 06 99 ff ff 00 00 00 00 1b 00   .. F............
0010  00 01 00 05 00 00 02 08 00 00 00 00 21 0a 00 00   ............!...
0020  01 00 00 00                                       ....

No.     Time           Source                Destination           Protocol Length Info
   2010 27.745727      1.5.0                 host                  USBHID   28     SET_IDLE Response

Frame 2010: Packet, 28 bytes on wire (224 bits), 28 bytes captured (224 bits) on interface \\.\USBPcap1, id 0
    Section number: 1
    Interface id: 0 (\\.\USBPcap1)
        Interface name: \\.\USBPcap1
        Interface description: USBPcap1
    Encapsulation type: USB packets with USBPcap header (152)
    Arrival Time: Dec  5, 2025 17:48:44.961905000 Финляндия (зима)
    UTC Arrival Time: Dec  5, 2025 15:48:44.961905000 UTC
    Epoch Arrival Time: 1764949724.961905000
    [Time shift for this packet: 0.000000000 seconds]
    [Time delta from previous captured frame: 555.000 microseconds]
    [Time delta from previous displayed frame: 555.000 microseconds]
    [Time since reference or first frame: 27.745727000 seconds]
    Frame Number: 2010
    Frame Length: 28 bytes (224 bits)
    Capture Length: 28 bytes (224 bits)
    [Frame is marked: False]
    [Frame is ignored: False]
    [Protocols in frame: usb]
    Character encoding: ASCII (0)
USB URB
    [Source: 1.5.0]
    [Destination: host]
    USBPcap pseudoheader length: 28
    IRP ID: 0xffff99068ab74620
    IRP USBD_STATUS: USBD_STATUS_SUCCESS (0x00000000)
    URB Function: URB_FUNCTION_CONTROL_TRANSFER (0x0008)
    IRP information: 0x01, Direction: PDO -> FDO
        0000 000. = Reserved: 0x00
        .... ...1 = Direction: PDO -> FDO (0x1)
    URB bus id: 1
    Device address: 5
    Endpoint: 0x00, Direction: OUT
        0... .... = Direction: OUT (0)
        .... 0000 = Endpoint number: 0
    URB transfer type: URB_CONTROL (0x02)
    Packet Data Length: 0
    [Request in: 2009]
    [Time from request: 555.000 microseconds]
    Control transfer stage: Complete (3)
    [bInterfaceClass: HID (0x03)]

27.745727
0000  1c 00 20 46 b7 8a 06 99 ff ff 00 00 00 00 08 00   .. F............
0010  01 01 00 05 00 00 02 00 00 00 00 03               ............

No.     Time           Source                Destination           Protocol Length Info
   2011 27.745885      host                  1.5.0                 USBHID   36     GET DESCRIPTOR Request HID Report

Frame 2011: Packet, 36 bytes on wire (288 bits), 36 bytes captured (288 bits) on interface \\.\USBPcap1, id 0
    Section number: 1
    Interface id: 0 (\\.\USBPcap1)
        Interface name: \\.\USBPcap1
        Interface description: USBPcap1
    Encapsulation type: USB packets with USBPcap header (152)
    Arrival Time: Dec  5, 2025 17:48:44.962063000 Финляндия (зима)
    UTC Arrival Time: Dec  5, 2025 15:48:44.962063000 UTC
    Epoch Arrival Time: 1764949724.962063000
    [Time shift for this packet: 0.000000000 seconds]
    [Time delta from previous captured frame: 158.000 microseconds]
    [Time delta from previous displayed frame: 158.000 microseconds]
    [Time since reference or first frame: 27.745885000 seconds]
    Frame Number: 2011
    Frame Length: 36 bytes (288 bits)
    Capture Length: 36 bytes (288 bits)
    [Frame is marked: False]
    [Frame is ignored: False]
    [Protocols in frame: usb:usbhid]
    Character encoding: ASCII (0)
USB URB
    [Source: host]
    [Destination: 1.5.0]
    USBPcap pseudoheader length: 28
    IRP ID: 0xffff9906c4d8d9a0
    IRP USBD_STATUS: USBD_STATUS_SUCCESS (0x00000000)
    URB Function: URB_FUNCTION_GET_DESCRIPTOR_FROM_INTERFACE (0x0028)
    IRP information: 0x00, Direction: FDO -> PDO
        0000 000. = Reserved: 0x00
        .... ...0 = Direction: FDO -> PDO (0x0)
    URB bus id: 1
    Device address: 5
    Endpoint: 0x80, Direction: IN
        1... .... = Direction: IN (1)
        .... 0000 = Endpoint number: 0
    URB transfer type: URB_CONTROL (0x02)
    Packet Data Length: 8
    [Response in: 2012]
    Control transfer stage: Setup (0)
    [bInterfaceClass: HID (0x03)]
Setup Data
    bmRequestType: 0x81
        1... .... = Direction: Device-to-host
        .00. .... = Type: Standard (0x0)
        ...0 0001 = Recipient: Interface (0x01)
    bDescriptorIndex: 0x00
    bDescriptorType: HID Report (0x22)
    wInterfaceNumber: 1
    wDescriptorLength: 158

27.745885
0000  1c 00 a0 d9 d8 c4 06 99 ff ff 00 00 00 00 28 00   ..............(.
0010  00 01 00 05 00 80 02 08 00 00 00 00 81 06 00 22   ..............."
0020  01 00 9e 00                                       ....

No.     Time           Source                Destination           Protocol Length Info
   2012 27.748731      1.5.0                 host                  USBHID   122    GET DESCRIPTOR Response HID Report

Frame 2012: Packet, 122 bytes on wire (976 bits), 122 bytes captured (976 bits) on interface \\.\USBPcap1, id 0
    Section number: 1
    Interface id: 0 (\\.\USBPcap1)
        Interface name: \\.\USBPcap1
        Interface description: USBPcap1
    Encapsulation type: USB packets with USBPcap header (152)
    Arrival Time: Dec  5, 2025 17:48:44.964909000 Финляндия (зима)
    UTC Arrival Time: Dec  5, 2025 15:48:44.964909000 UTC
    Epoch Arrival Time: 1764949724.964909000
    [Time shift for this packet: 0.000000000 seconds]
    [Time delta from previous captured frame: 2.846000 milliseconds]
    [Time delta from previous displayed frame: 2.846000 milliseconds]
    [Time since reference or first frame: 27.748731000 seconds]
    Frame Number: 2012
    Frame Length: 122 bytes (976 bits)
    Capture Length: 122 bytes (976 bits)
    [Frame is marked: False]
    [Frame is ignored: False]
    [Protocols in frame: usb:usbhid]
    Character encoding: ASCII (0)
USB URB
    [Source: 1.5.0]
    [Destination: host]
    USBPcap pseudoheader length: 28
    IRP ID: 0xffff9906c4d8d9a0
    IRP USBD_STATUS: USBD_STATUS_SUCCESS (0x00000000)
    URB Function: URB_FUNCTION_CONTROL_TRANSFER (0x0008)
    IRP information: 0x01, Direction: PDO -> FDO
        0000 000. = Reserved: 0x00
        .... ...1 = Direction: PDO -> FDO (0x1)
    URB bus id: 1
    Device address: 5
    Endpoint: 0x80, Direction: IN
        1... .... = Direction: IN (1)
        .... 0000 = Endpoint number: 0
    URB transfer type: URB_CONTROL (0x02)
    Packet Data Length: 94
    [Request in: 2011]
    [Time from request: 2.846000 milliseconds]
    Control transfer stage: Complete (3)
    [bInterfaceClass: HID (0x03)]
HID Report
    Usage Page (Vendor)
        Header
            .... ..10 = bSize: 2 bytes (2)
            .... 01.. = bType: Global (1)
            0000 .... = bTag: Usage Page (0x0)
        Usage Page: Vendor (0xff00)
    Usage (Vendor)
        Header
            .... ..01 = bSize: 1 byte (1)
            .... 10.. = bType: Local (2)
            0000 .... = bTag: Usage (0x0)
        Usage: Vendor (0x0e)
    Collection (Application)
        Header
            .... ..01 = bSize: 1 byte (1)
            .... 00.. = bType: Main (0)
            1010 .... = bTag: Collection (0xa)
        Collection type: Application (0x01)
        Report ID (0xba)
            Header
                .... ..01 = bSize: 1 byte (1)
                .... 01.. = bType: Global (1)
                1000 .... = bTag: Report ID (0x8)
            Report ID: 0xba
        Report Count (31)
            Header
                .... ..01 = bSize: 1 byte (1)
                .... 01.. = bType: Global (1)
                1001 .... = bTag: Report Count (0x9)
            Report count: 31
        Report Size (8)
            Header
                .... ..01 = bSize: 1 byte (1)
                .... 01.. = bType: Global (1)
                0111 .... = bTag: Report Size (0x7)
            Report size: 8
        Logical Maximum (255)
            Header
                .... ..10 = bSize: 2 bytes (2)
                .... 01.. = bType: Global (1)
                0010 .... = bTag: Logical Maximum (0x2)
            Logical maximum: 255
        Logical Minimum (0)
            Header
                .... ..01 = bSize: 1 byte (1)
                .... 01.. = bType: Global (1)
                0001 .... = bTag: Logical Minimum (0x1)
            Logical minimum: 0
        Usage (Vendor)
            Header
                .... ..01 = bSize: 1 byte (1)
                .... 10.. = bType: Local (2)
                0000 .... = bTag: Usage (0x0)
            Usage: Vendor (0x01)
        Output (Data,Var,Abs)
            Header
                .... ..01 = bSize: 1 byte (1)
                .... 00.. = bType: Main (0)
                1001 .... = bTag: Output (0x9)
            .... .... 0 = Data/constant: Data
            .... ...1 . = Data type: Variable
            .... ..0. . = Coordinates: Absolute
            .... .0.. . = Min/max wraparound: No Wrap
            .... 0... . = Physical relationship to data: Linear
            ...0 .... . = Preferred state: Preferred State
            ..0. .... . = Has null position: No Null position
            .0.. .... . = (Non)-volatile: Non Volatile
            0... .... . = Bits or bytes: Buffered bytes (default, no second byte present)
        Report ID (0xba)
            Header
                .... ..01 = bSize: 1 byte (1)
                .... 01.. = bType: Global (1)
                1000 .... = bTag: Report ID (0x8)
            Report ID: 0xba
        Report Count (31)
            Header
                .... ..01 = bSize: 1 byte (1)
                .... 01.. = bType: Global (1)
                1001 .... = bTag: Report Count (0x9)
            Report count: 31
        Report Size (8)
            Header
                .... ..01 = bSize: 1 byte (1)
                .... 01.. = bType: Global (1)
                0111 .... = bTag: Report Size (0x7)
            Report size: 8
        Logical Maximum (255)
            Header
                .... ..10 = bSize: 2 bytes (2)
                .... 01.. = bType: Global (1)
                0010 .... = bTag: Logical Maximum (0x2)
            Logical maximum: 255
        Logical Minimum (0)
            Header
                .... ..01 = bSize: 1 byte (1)
                .... 01.. = bType: Global (1)
                0001 .... = bTag: Logical Minimum (0x1)
            Logical minimum: 0
        Usage (Vendor)
            Header
                .... ..01 = bSize: 1 byte (1)
                .... 10.. = bType: Local (2)
                0000 .... = bTag: Usage (0x0)
            Usage: Vendor (0x01)
        Input (Data,Var,Abs)
            Header
                .... ..01 = bSize: 1 byte (1)
                .... 00.. = bType: Main (0)
                1000 .... = bTag: Input (0x8)
            .... .... 0 = Data/constant: Data
            .... ...1 . = Data type: Variable
            .... ..0. . = Coordinates: Absolute
            .... .0.. . = Min/max wraparound: No Wrap
            .... 0... . = Physical relationship to data: Linear
            ...0 .... . = Preferred state: Preferred State
            ..0. .... . = Has null position: No Null position
            .0.. .... . = [Reserved]: False
            0... .... . = Bits or bytes: Buffered bytes (default, no second byte present)
        End Collection
            Header
                .... ..00 = bSize: 0 bytes (0)
                .... 00.. = bType: Main (0)
                1100 .... = bTag: End Collection (0xc)
    Usage Page (Generic Desktop Controls)
        Header
            .... ..01 = bSize: 1 byte (1)
            .... 01.. = bType: Global (1)
            0000 .... = bTag: Usage Page (0x0)
        Usage Page: Generic Desktop Controls (0x01)
    Usage (System Control)
        Header
            .... ..01 = bSize: 1 byte (1)
            .... 10.. = bType: Local (2)
            0000 .... = bTag: Usage (0x0)
        Usage: System Control (0x80)
    Collection (Application)
        Header
            .... ..01 = bSize: 1 byte (1)
            .... 00.. = bType: Main (0)
            1010 .... = bTag: Collection (0xa)
        Collection type: Application (0x01)
        Report ID (0x02)
            Header
                .... ..01 = bSize: 1 byte (1)
                .... 01.. = bType: Global (1)
                1000 .... = bTag: Report ID (0x8)
            Report ID: 0x02
        Usage Page (Generic Desktop Controls)
            Header
                .... ..01 = bSize: 1 byte (1)
                .... 01.. = bType: Global (1)
                0000 .... = bTag: Usage Page (0x0)
            Usage Page: Generic Desktop Controls (0x01)
        Usage Minimum (0x81)
            Header
                .... ..01 = bSize: 1 byte (1)
                .... 10.. = bType: Local (2)
                0001 .... = bTag: Usage Minimum (0x1)
            Usage minimum: 0x81
        Usage Maximum (0x83)
            Header
                .... ..01 = bSize: 1 byte (1)
                .... 10.. = bType: Local (2)
                0010 .... = bTag: Usage Maximum (0x2)
            Usage maximum: 0x83
        Logical Minimum (0)
            Header
                .... ..01 = bSize: 1 byte (1)
                .... 01.. = bType: Global (1)
                0001 .... = bTag: Logical Minimum (0x1)
            Logical minimum: 0
        Logical Maximum (1)
            Header
                .... ..01 = bSize: 1 byte (1)
                .... 01.. = bType: Global (1)
                0010 .... = bTag: Logical Maximum (0x2)
            Logical maximum: 1
        Report Count (3)
            Header
                .... ..01 = bSize: 1 byte (1)
                .... 01.. = bType: Global (1)
                1001 .... = bTag: Report Count (0x9)
            Report count: 3
        Report Size (1)
            Header
                .... ..01 = bSize: 1 byte (1)
                .... 01.. = bType: Global (1)
                0111 .... = bTag: Report Size (0x7)
            Report size: 1
        Input (Data,Var,Rel)
            Header
                .... ..01 = bSize: 1 byte (1)
                .... 00.. = bType: Main (0)
                1000 .... = bTag: Input (0x8)
            .... .... 0 = Data/constant: Data
            .... ...1 . = Data type: Variable
            .... ..1. . = Coordinates: Relative
            .... .0.. . = Min/max wraparound: No Wrap
            .... 0... . = Physical relationship to data: Linear
